{
	"contracts/jobPortal.sol": {
		"jobPortal": {
			"abi": [
				{
					"inputs": [],
					"stateMutability": "nonpayable",
					"type": "constructor"
				},
				{
					"inputs": [
						{
							"internalType": "address",
							"name": "_address",
							"type": "address"
						},
						{
							"internalType": "string",
							"name": "_name",
							"type": "string"
						},
						{
							"internalType": "uint256",
							"name": "_phone",
							"type": "uint256"
						},
						{
							"internalType": "string",
							"name": "_home_address",
							"type": "string"
						},
						{
							"internalType": "uint8",
							"name": "_age",
							"type": "uint8"
						},
						{
							"internalType": "string",
							"name": "_skills",
							"type": "string"
						},
						{
							"internalType": "string",
							"name": "_workExp",
							"type": "string"
						},
						{
							"internalType": "enum jobPortal.jobType",
							"name": "_type",
							"type": "uint8"
						}
					],
					"name": "addApplicant",
					"outputs": [],
					"stateMutability": "nonpayable",
					"type": "function"
				},
				{
					"inputs": [
						{
							"internalType": "uint256",
							"name": "_id",
							"type": "uint256"
						},
						{
							"internalType": "string",
							"name": "_title",
							"type": "string"
						},
						{
							"internalType": "string",
							"name": "_description",
							"type": "string"
						},
						{
							"internalType": "string",
							"name": "_salary",
							"type": "string"
						},
						{
							"internalType": "string",
							"name": "_expirence",
							"type": "string"
						}
					],
					"name": "addJob",
					"outputs": [],
					"stateMutability": "nonpayable",
					"type": "function"
				},
				{
					"inputs": [
						{
							"internalType": "address",
							"name": "_applicantAddress",
							"type": "address"
						},
						{
							"internalType": "uint8",
							"name": "_rating",
							"type": "uint8"
						}
					],
					"name": "addRating",
					"outputs": [],
					"stateMutability": "nonpayable",
					"type": "function"
				},
				{
					"inputs": [
						{
							"internalType": "address",
							"name": "_address",
							"type": "address"
						}
					],
					"name": "fetchApplicant",
					"outputs": [
						{
							"components": [
								{
									"internalType": "string",
									"name": "name",
									"type": "string"
								},
								{
									"internalType": "uint256",
									"name": "phone",
									"type": "uint256"
								},
								{
									"internalType": "string",
									"name": "home_address",
									"type": "string"
								},
								{
									"internalType": "uint8",
									"name": "age",
									"type": "uint8"
								},
								{
									"internalType": "uint8",
									"name": "rating",
									"type": "uint8"
								},
								{
									"internalType": "string",
									"name": "skills",
									"type": "string"
								},
								{
									"internalType": "string",
									"name": "work_exp",
									"type": "string"
								},
								{
									"internalType": "enum jobPortal.jobType",
									"name": "job_preference",
									"type": "uint8"
								}
							],
							"internalType": "struct jobPortal.applicant_details",
							"name": "",
							"type": "tuple"
						}
					],
					"stateMutability": "view",
					"type": "function"
				},
				{
					"inputs": [
						{
							"internalType": "address",
							"name": "_address",
							"type": "address"
						}
					],
					"name": "fetchApplicantType",
					"outputs": [
						{
							"internalType": "enum jobPortal.jobType",
							"name": "",
							"type": "uint8"
						}
					],
					"stateMutability": "view",
					"type": "function"
				},
				{
					"inputs": [
						{
							"internalType": "uint256",
							"name": "_id",
							"type": "uint256"
						}
					],
					"name": "fetchJob",
					"outputs": [
						{
							"components": [
								{
									"internalType": "string",
									"name": "title",
									"type": "string"
								},
								{
									"internalType": "string",
									"name": "description",
									"type": "string"
								},
								{
									"internalType": "string",
									"name": "salary",
									"type": "string"
								},
								{
									"internalType": "string",
									"name": "expirence",
									"type": "string"
								},
								{
									"internalType": "address[]",
									"name": "applicants",
									"type": "address[]"
								}
							],
							"internalType": "struct jobPortal.job_details",
							"name": "",
							"type": "tuple"
						}
					],
					"stateMutability": "view",
					"type": "function"
				},
				{
					"inputs": [
						{
							"internalType": "address",
							"name": "_applicantAddress",
							"type": "address"
						}
					],
					"name": "fetchRating",
					"outputs": [
						{
							"internalType": "uint8",
							"name": "",
							"type": "uint8"
						}
					],
					"stateMutability": "view",
					"type": "function"
				},
				{
					"inputs": [
						{
							"internalType": "uint256",
							"name": "",
							"type": "uint256"
						},
						{
							"internalType": "address",
							"name": "",
							"type": "address"
						}
					],
					"name": "hasApplied",
					"outputs": [
						{
							"internalType": "bool",
							"name": "",
							"type": "bool"
						}
					],
					"stateMutability": "view",
					"type": "function"
				},
				{
					"inputs": [
						{
							"internalType": "uint256",
							"name": "_jobId",
							"type": "uint256"
						}
					],
					"name": "jobApply",
					"outputs": [],
					"stateMutability": "nonpayable",
					"type": "function"
				}
			],
			"devdoc": {
				"kind": "dev",
				"methods": {},
				"version": 1
			},
			"evm": {
				"assembly": "    /* \"contracts/jobPortal.sol\":60:3248  contract jobPortal {... */\n  mstore(0x40, 0x80)\n    /* \"contracts/jobPortal.sol\":112:163  constructor() {... */\n  callvalue\n  dup1\n  iszero\n  tag_1\n  jumpi\n  0x00\n  dup1\n  revert\ntag_1:\n  pop\n    /* \"contracts/jobPortal.sol\":145:155  msg.sender */\n  caller\n    /* \"contracts/jobPortal.sol\":137:142  admin */\n  0x00\n  dup1\n    /* \"contracts/jobPortal.sol\":137:155  admin = msg.sender */\n  0x0100\n  exp\n  dup2\n  sload\n  dup2\n  0xffffffffffffffffffffffffffffffffffffffff\n  mul\n  not\n  and\n  swap1\n  dup4\n  0xffffffffffffffffffffffffffffffffffffffff\n  and\n  mul\n  or\n  swap1\n  sstore\n  pop\n    /* \"contracts/jobPortal.sol\":60:3248  contract jobPortal {... */\n  dataSize(sub_0)\n  dup1\n  dataOffset(sub_0)\n  0x00\n  codecopy\n  0x00\n  return\nstop\n\nsub_0: assembly {\n        /* \"contracts/jobPortal.sol\":60:3248  contract jobPortal {... */\n      mstore(0x40, 0x80)\n      callvalue\n      dup1\n      iszero\n      tag_1\n      jumpi\n      0x00\n      dup1\n      revert\n    tag_1:\n      pop\n      jumpi(tag_2, lt(calldatasize, 0x04))\n      shr(0xe0, calldataload(0x00))\n      dup1\n      0x8677b0a2\n      gt\n      tag_12\n      jumpi\n      dup1\n      0x8677b0a2\n      eq\n      tag_7\n      jumpi\n      dup1\n      0x9890877f\n      eq\n      tag_8\n      jumpi\n      dup1\n      0xa0386310\n      eq\n      tag_9\n      jumpi\n      dup1\n      0xa39bf544\n      eq\n      tag_10\n      jumpi\n      dup1\n      0xaf43ceb4\n      eq\n      tag_11\n      jumpi\n      jump(tag_2)\n    tag_12:\n      dup1\n      0x15fc27d8\n      eq\n      tag_3\n      jumpi\n      dup1\n      0x61011df7\n      eq\n      tag_4\n      jumpi\n      dup1\n      0x70787868\n      eq\n      tag_5\n      jumpi\n      dup1\n      0x82050766\n      eq\n      tag_6\n      jumpi\n    tag_2:\n      0x00\n      dup1\n      revert\n        /* \"contracts/jobPortal.sol\":2856:3070  function addRating(address _applicantAddress, uint8 _rating) public {... */\n    tag_3:\n      tag_13\n      0x04\n      dup1\n      calldatasize\n      sub\n      dup2\n      add\n      swap1\n      tag_14\n      swap2\n      swap1\n      tag_15\n      jump\t// in\n    tag_14:\n      tag_16\n      jump\t// in\n    tag_13:\n      stop\n        /* \"contracts/jobPortal.sol\":2271:2373  function fetchJob(uint _id) public view returns(job_details memory) {... */\n    tag_4:\n      tag_17\n      0x04\n      dup1\n      calldatasize\n      sub\n      dup2\n      add\n      swap1\n      tag_18\n      swap2\n      swap1\n      tag_19\n      jump\t// in\n    tag_18:\n      tag_20\n      jump\t// in\n    tag_17:\n      mload(0x40)\n      tag_21\n      swap2\n      swap1\n      tag_22\n      jump\t// in\n    tag_21:\n      mload(0x40)\n      dup1\n      swap2\n      sub\n      swap1\n      return\n        /* \"contracts/jobPortal.sol\":1987:2239  function addJob(uint _id, string memory _title, string memory _description, string memory _salary, string memory _expirence) public jobIdIsUnique(_id){... */\n    tag_5:\n      tag_23\n      0x04\n      dup1\n      calldatasize\n      sub\n      dup2\n      add\n      swap1\n      tag_24\n      swap2\n      swap1\n      tag_25\n      jump\t// in\n    tag_24:\n      tag_26\n      jump\t// in\n    tag_23:\n      stop\n        /* \"contracts/jobPortal.sol\":1287:1603  function addApplicant(address _address, string memory _name,uint _phone, string memory _home_address, uint8 _age, string memory _skills, string memory _workExp, jobType _type)public onlyAdmin {... */\n    tag_6:\n      tag_27\n      0x04\n      dup1\n      calldatasize\n      sub\n      dup2\n      add\n      swap1\n      tag_28\n      swap2\n      swap1\n      tag_29\n      jump\t// in\n    tag_28:\n      tag_30\n      jump\t// in\n    tag_27:\n      stop\n        /* \"contracts/jobPortal.sol\":2416:2807  function jobApply(uint _jobId) public jobExists(_jobId){... */\n    tag_7:\n      tag_31\n      0x04\n      dup1\n      calldatasize\n      sub\n      dup2\n      add\n      swap1\n      tag_32\n      swap2\n      swap1\n      tag_19\n      jump\t// in\n    tag_32:\n      tag_33\n      jump\t// in\n    tag_31:\n      stop\n        /* \"contracts/jobPortal.sol\":1642:1775  function fetchApplicant(address _address) public view returns(applicant_details memory) {... */\n    tag_8:\n      tag_34\n      0x04\n      dup1\n      calldatasize\n      sub\n      dup2\n      add\n      swap1\n      tag_35\n      swap2\n      swap1\n      tag_36\n      jump\t// in\n    tag_35:\n      tag_37\n      jump\t// in\n    tag_34:\n      mload(0x40)\n      tag_38\n      swap2\n      swap1\n      tag_39\n      jump\t// in\n    tag_38:\n      mload(0x40)\n      dup1\n      swap2\n      sub\n      swap1\n      return\n        /* \"contracts/jobPortal.sol\":1809:1944  function fetchApplicantType(address _address) public view returns(jobType) {... */\n    tag_9:\n      tag_40\n      0x04\n      dup1\n      calldatasize\n      sub\n      dup2\n      add\n      swap1\n      tag_41\n      swap2\n      swap1\n      tag_36\n      jump\t// in\n    tag_41:\n      tag_42\n      jump\t// in\n    tag_40:\n      mload(0x40)\n      tag_43\n      swap2\n      swap1\n      tag_44\n      jump\t// in\n    tag_43:\n      mload(0x40)\n      dup1\n      swap2\n      sub\n      swap1\n      return\n        /* \"contracts/jobPortal.sol\":768:828  mapping (uint => mapping(address => bool)) public hasApplied */\n    tag_10:\n      tag_45\n      0x04\n      dup1\n      calldatasize\n      sub\n      dup2\n      add\n      swap1\n      tag_46\n      swap2\n      swap1\n      tag_47\n      jump\t// in\n    tag_46:\n      tag_48\n      jump\t// in\n    tag_45:\n      mload(0x40)\n      tag_49\n      swap2\n      swap1\n      tag_50\n      jump\t// in\n    tag_49:\n      mload(0x40)\n      dup1\n      swap2\n      sub\n      swap1\n      return\n        /* \"contracts/jobPortal.sol\":3109:3245  function fetchRating(address _applicantAddress) public view returns(uint8) {... */\n    tag_11:\n      tag_51\n      0x04\n      dup1\n      calldatasize\n      sub\n      dup2\n      add\n      swap1\n      tag_52\n      swap2\n      swap1\n      tag_36\n      jump\t// in\n    tag_52:\n      tag_53\n      jump\t// in\n    tag_51:\n      mload(0x40)\n      tag_54\n      swap2\n      swap1\n      tag_55\n      jump\t// in\n    tag_54:\n      mload(0x40)\n      dup1\n      swap2\n      sub\n      swap1\n      return\n        /* \"contracts/jobPortal.sol\":2856:3070  function addRating(address _applicantAddress, uint8 _rating) public {... */\n    tag_16:\n        /* \"contracts/jobPortal.sol\":2954:2955  1 */\n      0x01\n        /* \"contracts/jobPortal.sol\":2943:2950  _rating */\n      dup2\n        /* \"contracts/jobPortal.sol\":2943:2955  _rating >= 1 */\n      0xff\n      and\n      lt\n      iszero\n        /* \"contracts/jobPortal.sol\":2943:2971  _rating >= 1 && _rating <= 5 */\n      dup1\n      iszero\n      tag_57\n      jumpi\n      pop\n        /* \"contracts/jobPortal.sol\":2970:2971  5 */\n      0x05\n        /* \"contracts/jobPortal.sol\":2959:2966  _rating */\n      dup2\n        /* \"contracts/jobPortal.sol\":2959:2971  _rating <= 5 */\n      0xff\n      and\n      gt\n      iszero\n        /* \"contracts/jobPortal.sol\":2943:2971  _rating >= 1 && _rating <= 5 */\n    tag_57:\n        /* \"contracts/jobPortal.sol\":2935:3006  require(_rating >= 1 && _rating <= 5, \"Rating must be between 1 and 5\") */\n      tag_58\n      jumpi\n      mload(0x40)\n      0x08c379a000000000000000000000000000000000000000000000000000000000\n      dup2\n      mstore\n      0x04\n      add\n      tag_59\n      swap1\n      tag_60\n      jump\t// in\n    tag_59:\n      mload(0x40)\n      dup1\n      swap2\n      sub\n      swap1\n      revert\n    tag_58:\n        /* \"contracts/jobPortal.sol\":3055:3062  _rating */\n      dup1\n        /* \"contracts/jobPortal.sol\":3017:3026  applicant */\n      0x01\n        /* \"contracts/jobPortal.sol\":3017:3045  applicant[_applicantAddress] */\n      0x00\n        /* \"contracts/jobPortal.sol\":3027:3044  _applicantAddress */\n      dup5\n        /* \"contracts/jobPortal.sol\":3017:3045  applicant[_applicantAddress] */\n      0xffffffffffffffffffffffffffffffffffffffff\n      and\n      0xffffffffffffffffffffffffffffffffffffffff\n      and\n      dup2\n      mstore\n      0x20\n      add\n      swap1\n      dup2\n      mstore\n      0x20\n      add\n      0x00\n      keccak256\n        /* \"contracts/jobPortal.sol\":3017:3052  applicant[_applicantAddress].rating */\n      0x03\n      add\n      0x01\n        /* \"contracts/jobPortal.sol\":3017:3062  applicant[_applicantAddress].rating = _rating */\n      0x0100\n      exp\n      dup2\n      sload\n      dup2\n      0xff\n      mul\n      not\n      and\n      swap1\n      dup4\n      0xff\n      and\n      mul\n      or\n      swap1\n      sstore\n      pop\n        /* \"contracts/jobPortal.sol\":2856:3070  function addRating(address _applicantAddress, uint8 _rating) public {... */\n      pop\n      pop\n      jump\t// out\n        /* \"contracts/jobPortal.sol\":2271:2373  function fetchJob(uint _id) public view returns(job_details memory) {... */\n    tag_20:\n        /* \"contracts/jobPortal.sol\":2319:2337  job_details memory */\n      tag_61\n      tag_62\n      jump\t// in\n    tag_61:\n        /* \"contracts/jobPortal.sol\":2357:2360  job */\n      0x02\n        /* \"contracts/jobPortal.sol\":2357:2365  job[_id] */\n      0x00\n        /* \"contracts/jobPortal.sol\":2361:2364  _id */\n      dup4\n        /* \"contracts/jobPortal.sol\":2357:2365  job[_id] */\n      dup2\n      mstore\n      0x20\n      add\n      swap1\n      dup2\n      mstore\n      0x20\n      add\n      0x00\n      keccak256\n        /* \"contracts/jobPortal.sol\":2350:2365  return job[_id] */\n      mload(0x40)\n      dup1\n      0xa0\n      add\n      0x40\n      mstore\n      swap1\n      dup2\n      0x00\n      dup3\n      add\n      dup1\n      sload\n      tag_64\n      swap1\n      tag_65\n      jump\t// in\n    tag_64:\n      dup1\n      0x1f\n      add\n      0x20\n      dup1\n      swap2\n      div\n      mul\n      0x20\n      add\n      mload(0x40)\n      swap1\n      dup2\n      add\n      0x40\n      mstore\n      dup1\n      swap3\n      swap2\n      swap1\n      dup2\n      dup2\n      mstore\n      0x20\n      add\n      dup3\n      dup1\n      sload\n      tag_66\n      swap1\n      tag_65\n      jump\t// in\n    tag_66:\n      dup1\n      iszero\n      tag_67\n      jumpi\n      dup1\n      0x1f\n      lt\n      tag_68\n      jumpi\n      0x0100\n      dup1\n      dup4\n      sload\n      div\n      mul\n      dup4\n      mstore\n      swap2\n      0x20\n      add\n      swap2\n      jump(tag_67)\n    tag_68:\n      dup3\n      add\n      swap2\n      swap1\n      0x00\n      mstore\n      keccak256(0x00, 0x20)\n      swap1\n    tag_69:\n      dup2\n      sload\n      dup2\n      mstore\n      swap1\n      0x01\n      add\n      swap1\n      0x20\n      add\n      dup1\n      dup4\n      gt\n      tag_69\n      jumpi\n      dup3\n      swap1\n      sub\n      0x1f\n      and\n      dup3\n      add\n      swap2\n    tag_67:\n      pop\n      pop\n      pop\n      pop\n      pop\n      dup2\n      mstore\n      0x20\n      add\n      0x01\n      dup3\n      add\n      dup1\n      sload\n      tag_70\n      swap1\n      tag_65\n      jump\t// in\n    tag_70:\n      dup1\n      0x1f\n      add\n      0x20\n      dup1\n      swap2\n      div\n      mul\n      0x20\n      add\n      mload(0x40)\n      swap1\n      dup2\n      add\n      0x40\n      mstore\n      dup1\n      swap3\n      swap2\n      swap1\n      dup2\n      dup2\n      mstore\n      0x20\n      add\n      dup3\n      dup1\n      sload\n      tag_71\n      swap1\n      tag_65\n      jump\t// in\n    tag_71:\n      dup1\n      iszero\n      tag_72\n      jumpi\n      dup1\n      0x1f\n      lt\n      tag_73\n      jumpi\n      0x0100\n      dup1\n      dup4\n      sload\n      div\n      mul\n      dup4\n      mstore\n      swap2\n      0x20\n      add\n      swap2\n      jump(tag_72)\n    tag_73:\n      dup3\n      add\n      swap2\n      swap1\n      0x00\n      mstore\n      keccak256(0x00, 0x20)\n      swap1\n    tag_74:\n      dup2\n      sload\n      dup2\n      mstore\n      swap1\n      0x01\n      add\n      swap1\n      0x20\n      add\n      dup1\n      dup4\n      gt\n      tag_74\n      jumpi\n      dup3\n      swap1\n      sub\n      0x1f\n      and\n      dup3\n      add\n      swap2\n    tag_72:\n      pop\n      pop\n      pop\n      pop\n      pop\n      dup2\n      mstore\n      0x20\n      add\n      0x02\n      dup3\n      add\n      dup1\n      sload\n      tag_75\n      swap1\n      tag_65\n      jump\t// in\n    tag_75:\n      dup1\n      0x1f\n      add\n      0x20\n      dup1\n      swap2\n      div\n      mul\n      0x20\n      add\n      mload(0x40)\n      swap1\n      dup2\n      add\n      0x40\n      mstore\n      dup1\n      swap3\n      swap2\n      swap1\n      dup2\n      dup2\n      mstore\n      0x20\n      add\n      dup3\n      dup1\n      sload\n      tag_76\n      swap1\n      tag_65\n      jump\t// in\n    tag_76:\n      dup1\n      iszero\n      tag_77\n      jumpi\n      dup1\n      0x1f\n      lt\n      tag_78\n      jumpi\n      0x0100\n      dup1\n      dup4\n      sload\n      div\n      mul\n      dup4\n      mstore\n      swap2\n      0x20\n      add\n      swap2\n      jump(tag_77)\n    tag_78:\n      dup3\n      add\n      swap2\n      swap1\n      0x00\n      mstore\n      keccak256(0x00, 0x20)\n      swap1\n    tag_79:\n      dup2\n      sload\n      dup2\n      mstore\n      swap1\n      0x01\n      add\n      swap1\n      0x20\n      add\n      dup1\n      dup4\n      gt\n      tag_79\n      jumpi\n      dup3\n      swap1\n      sub\n      0x1f\n      and\n      dup3\n      add\n      swap2\n    tag_77:\n      pop\n      pop\n      pop\n      pop\n      pop\n      dup2\n      mstore\n      0x20\n      add\n      0x03\n      dup3\n      add\n      dup1\n      sload\n      tag_80\n      swap1\n      tag_65\n      jump\t// in\n    tag_80:\n      dup1\n      0x1f\n      add\n      0x20\n      dup1\n      swap2\n      div\n      mul\n      0x20\n      add\n      mload(0x40)\n      swap1\n      dup2\n      add\n      0x40\n      mstore\n      dup1\n      swap3\n      swap2\n      swap1\n      dup2\n      dup2\n      mstore\n      0x20\n      add\n      dup3\n      dup1\n      sload\n      tag_81\n      swap1\n      tag_65\n      jump\t// in\n    tag_81:\n      dup1\n      iszero\n      tag_82\n      jumpi\n      dup1\n      0x1f\n      lt\n      tag_83\n      jumpi\n      0x0100\n      dup1\n      dup4\n      sload\n      div\n      mul\n      dup4\n      mstore\n      swap2\n      0x20\n      add\n      swap2\n      jump(tag_82)\n    tag_83:\n      dup3\n      add\n      swap2\n      swap1\n      0x00\n      mstore\n      keccak256(0x00, 0x20)\n      swap1\n    tag_84:\n      dup2\n      sload\n      dup2\n      mstore\n      swap1\n      0x01\n      add\n      swap1\n      0x20\n      add\n      dup1\n      dup4\n      gt\n      tag_84\n      jumpi\n      dup3\n      swap1\n      sub\n      0x1f\n      and\n      dup3\n      add\n      swap2\n    tag_82:\n      pop\n      pop\n      pop\n      pop\n      pop\n      dup2\n      mstore\n      0x20\n      add\n      0x04\n      dup3\n      add\n      dup1\n      sload\n      dup1\n      0x20\n      mul\n      0x20\n      add\n      mload(0x40)\n      swap1\n      dup2\n      add\n      0x40\n      mstore\n      dup1\n      swap3\n      swap2\n      swap1\n      dup2\n      dup2\n      mstore\n      0x20\n      add\n      dup3\n      dup1\n      sload\n      dup1\n      iszero\n      tag_85\n      jumpi\n      0x20\n      mul\n      dup3\n      add\n      swap2\n      swap1\n      0x00\n      mstore\n      keccak256(0x00, 0x20)\n      swap1\n    tag_86:\n      dup2\n      0x00\n      swap1\n      sload\n      swap1\n      0x0100\n      exp\n      swap1\n      div\n      0xffffffffffffffffffffffffffffffffffffffff\n      and\n      0xffffffffffffffffffffffffffffffffffffffff\n      and\n      dup2\n      mstore\n      0x20\n      add\n      swap1\n      0x01\n      add\n      swap1\n      dup1\n      dup4\n      gt\n      tag_86\n      jumpi\n    tag_85:\n      pop\n      pop\n      pop\n      pop\n      pop\n      dup2\n      mstore\n      pop\n      pop\n      swap1\n      pop\n        /* \"contracts/jobPortal.sol\":2271:2373  function fetchJob(uint _id) public view returns(job_details memory) {... */\n      swap2\n      swap1\n      pop\n      jump\t// out\n        /* \"contracts/jobPortal.sol\":1987:2239  function addJob(uint _id, string memory _title, string memory _description, string memory _salary, string memory _expirence) public jobIdIsUnique(_id){... */\n    tag_26:\n        /* \"contracts/jobPortal.sol\":2133:2136  _id */\n      dup5\n        /* \"contracts/jobPortal.sol\":1055:1056  0 */\n      0x00\n        /* \"contracts/jobPortal.sol\":1030:1033  job */\n      0x02\n        /* \"contracts/jobPortal.sol\":1030:1038  job[_id] */\n      0x00\n        /* \"contracts/jobPortal.sol\":1034:1037  _id */\n      dup4\n        /* \"contracts/jobPortal.sol\":1030:1038  job[_id] */\n      dup2\n      mstore\n      0x20\n      add\n      swap1\n      dup2\n      mstore\n      0x20\n      add\n      0x00\n      keccak256\n        /* \"contracts/jobPortal.sol\":1030:1044  job[_id].title */\n      0x00\n      add\n        /* \"contracts/jobPortal.sol\":1024:1052  bytes(job[_id].title).length */\n      dup1\n      sload\n      tag_88\n      swap1\n      tag_65\n      jump\t// in\n    tag_88:\n      swap1\n      pop\n        /* \"contracts/jobPortal.sol\":1024:1056  bytes(job[_id].title).length > 0 */\n      gt\n        /* \"contracts/jobPortal.sol\":1022:1057  !(bytes(job[_id].title).length > 0) */\n      iszero\n        /* \"contracts/jobPortal.sol\":1014:1096  require(!(bytes(job[_id].title).length > 0), \"Job with similar ID already Exists\") */\n      tag_89\n      jumpi\n      mload(0x40)\n      0x08c379a000000000000000000000000000000000000000000000000000000000\n      dup2\n      mstore\n      0x04\n      add\n      tag_90\n      swap1\n      tag_91\n      jump\t// in\n    tag_90:\n      mload(0x40)\n      dup1\n      swap2\n      sub\n      swap1\n      revert\n    tag_89:\n        /* \"contracts/jobPortal.sol\":2159:2231  job_details(_title, _description, _salary, _expirence, new address[](0)) */\n      mload(0x40)\n      dup1\n      0xa0\n      add\n      0x40\n      mstore\n      dup1\n        /* \"contracts/jobPortal.sol\":2171:2177  _title */\n      dup7\n        /* \"contracts/jobPortal.sol\":2159:2231  job_details(_title, _description, _salary, _expirence, new address[](0)) */\n      dup2\n      mstore\n      0x20\n      add\n        /* \"contracts/jobPortal.sol\":2179:2191  _description */\n      dup6\n        /* \"contracts/jobPortal.sol\":2159:2231  job_details(_title, _description, _salary, _expirence, new address[](0)) */\n      dup2\n      mstore\n      0x20\n      add\n        /* \"contracts/jobPortal.sol\":2193:2200  _salary */\n      dup5\n        /* \"contracts/jobPortal.sol\":2159:2231  job_details(_title, _description, _salary, _expirence, new address[](0)) */\n      dup2\n      mstore\n      0x20\n      add\n        /* \"contracts/jobPortal.sol\":2202:2212  _expirence */\n      dup4\n        /* \"contracts/jobPortal.sol\":2159:2231  job_details(_title, _description, _salary, _expirence, new address[](0)) */\n      dup2\n      mstore\n      0x20\n      add\n        /* \"contracts/jobPortal.sol\":2228:2229  0 */\n      0x00\n        /* \"contracts/jobPortal.sol\":2214:2230  new address[](0) */\n      0xffffffffffffffff\n      dup2\n      gt\n      iszero\n      tag_93\n      jumpi\n      tag_94\n      tag_95\n      jump\t// in\n    tag_94:\n    tag_93:\n      mload(0x40)\n      swap1\n      dup1\n      dup3\n      mstore\n      dup1\n      0x20\n      mul\n      0x20\n      add\n      dup3\n      add\n      0x40\n      mstore\n      dup1\n      iszero\n      tag_96\n      jumpi\n      dup2\n      0x20\n      add\n      0x20\n      dup3\n      mul\n      dup1\n      calldatasize\n      dup4\n      calldatacopy\n      dup1\n      dup3\n      add\n      swap2\n      pop\n      pop\n      swap1\n      pop\n    tag_96:\n      pop\n        /* \"contracts/jobPortal.sol\":2159:2231  job_details(_title, _description, _salary, _expirence, new address[](0)) */\n      dup2\n      mstore\n      pop\n        /* \"contracts/jobPortal.sol\":2148:2151  job */\n      0x02\n        /* \"contracts/jobPortal.sol\":2148:2156  job[_id] */\n      0x00\n        /* \"contracts/jobPortal.sol\":2152:2155  _id */\n      dup9\n        /* \"contracts/jobPortal.sol\":2148:2156  job[_id] */\n      dup2\n      mstore\n      0x20\n      add\n      swap1\n      dup2\n      mstore\n      0x20\n      add\n      0x00\n      keccak256\n        /* \"contracts/jobPortal.sol\":2148:2231  job[_id] = job_details(_title, _description, _salary, _expirence, new address[](0)) */\n      0x00\n      dup3\n      add\n      mload\n      dup2\n      0x00\n      add\n      swap1\n      dup2\n      tag_97\n      swap2\n      swap1\n      tag_98\n      jump\t// in\n    tag_97:\n      pop\n      0x20\n      dup3\n      add\n      mload\n      dup2\n      0x01\n      add\n      swap1\n      dup2\n      tag_99\n      swap2\n      swap1\n      tag_98\n      jump\t// in\n    tag_99:\n      pop\n      0x40\n      dup3\n      add\n      mload\n      dup2\n      0x02\n      add\n      swap1\n      dup2\n      tag_100\n      swap2\n      swap1\n      tag_98\n      jump\t// in\n    tag_100:\n      pop\n      0x60\n      dup3\n      add\n      mload\n      dup2\n      0x03\n      add\n      swap1\n      dup2\n      tag_101\n      swap2\n      swap1\n      tag_98\n      jump\t// in\n    tag_101:\n      pop\n      0x80\n      dup3\n      add\n      mload\n      dup2\n      0x04\n      add\n      swap1\n      dup1\n      mload\n      swap1\n      0x20\n      add\n      swap1\n      tag_102\n      swap3\n      swap2\n      swap1\n      tag_103\n      jump\t// in\n    tag_102:\n      pop\n      swap1\n      pop\n      pop\n        /* \"contracts/jobPortal.sol\":1987:2239  function addJob(uint _id, string memory _title, string memory _description, string memory _salary, string memory _expirence) public jobIdIsUnique(_id){... */\n      pop\n      pop\n      pop\n      pop\n      pop\n      pop\n      jump\t// out\n        /* \"contracts/jobPortal.sol\":1287:1603  function addApplicant(address _address, string memory _name,uint _phone, string memory _home_address, uint8 _age, string memory _skills, string memory _workExp, jobType _type)public onlyAdmin {... */\n    tag_30:\n        /* \"contracts/jobPortal.sol\":891:901  msg.sender */\n      caller\n        /* \"contracts/jobPortal.sol\":882:901  admin == msg.sender */\n      0xffffffffffffffffffffffffffffffffffffffff\n      and\n        /* \"contracts/jobPortal.sol\":882:887  admin */\n      0x00\n      dup1\n      sload\n      swap1\n      0x0100\n      exp\n      swap1\n      div\n      0xffffffffffffffffffffffffffffffffffffffff\n      and\n        /* \"contracts/jobPortal.sol\":882:901  admin == msg.sender */\n      0xffffffffffffffffffffffffffffffffffffffff\n      and\n      eq\n        /* \"contracts/jobPortal.sol\":874:943  require(admin == msg.sender, \"Only Admin is allowed for this action\") */\n      tag_105\n      jumpi\n      mload(0x40)\n      0x08c379a000000000000000000000000000000000000000000000000000000000\n      dup2\n      mstore\n      0x04\n      add\n      tag_106\n      swap1\n      tag_107\n      jump\t// in\n    tag_106:\n      mload(0x40)\n      dup1\n      swap2\n      sub\n      swap1\n      revert\n    tag_105:\n        /* \"contracts/jobPortal.sol\":1512:1595  applicant_details(_name, _phone, _home_address , _age, 0 ,_skills, _workExp, _type) */\n      mload(0x40)\n      dup1\n      0x0100\n      add\n      0x40\n      mstore\n      dup1\n        /* \"contracts/jobPortal.sol\":1530:1535  _name */\n      dup9\n        /* \"contracts/jobPortal.sol\":1512:1595  applicant_details(_name, _phone, _home_address , _age, 0 ,_skills, _workExp, _type) */\n      dup2\n      mstore\n      0x20\n      add\n        /* \"contracts/jobPortal.sol\":1537:1543  _phone */\n      dup8\n        /* \"contracts/jobPortal.sol\":1512:1595  applicant_details(_name, _phone, _home_address , _age, 0 ,_skills, _workExp, _type) */\n      dup2\n      mstore\n      0x20\n      add\n        /* \"contracts/jobPortal.sol\":1545:1558  _home_address */\n      dup7\n        /* \"contracts/jobPortal.sol\":1512:1595  applicant_details(_name, _phone, _home_address , _age, 0 ,_skills, _workExp, _type) */\n      dup2\n      mstore\n      0x20\n      add\n        /* \"contracts/jobPortal.sol\":1561:1565  _age */\n      dup6\n        /* \"contracts/jobPortal.sol\":1512:1595  applicant_details(_name, _phone, _home_address , _age, 0 ,_skills, _workExp, _type) */\n      0xff\n      and\n      dup2\n      mstore\n      0x20\n      add\n        /* \"contracts/jobPortal.sol\":1567:1568  0 */\n      0x00\n        /* \"contracts/jobPortal.sol\":1512:1595  applicant_details(_name, _phone, _home_address , _age, 0 ,_skills, _workExp, _type) */\n      0xff\n      and\n      dup2\n      mstore\n      0x20\n      add\n        /* \"contracts/jobPortal.sol\":1570:1577  _skills */\n      dup5\n        /* \"contracts/jobPortal.sol\":1512:1595  applicant_details(_name, _phone, _home_address , _age, 0 ,_skills, _workExp, _type) */\n      dup2\n      mstore\n      0x20\n      add\n        /* \"contracts/jobPortal.sol\":1579:1587  _workExp */\n      dup4\n        /* \"contracts/jobPortal.sol\":1512:1595  applicant_details(_name, _phone, _home_address , _age, 0 ,_skills, _workExp, _type) */\n      dup2\n      mstore\n      0x20\n      add\n        /* \"contracts/jobPortal.sol\":1589:1594  _type */\n      dup3\n        /* \"contracts/jobPortal.sol\":1512:1595  applicant_details(_name, _phone, _home_address , _age, 0 ,_skills, _workExp, _type) */\n      0x02\n      dup2\n      gt\n      iszero\n      tag_109\n      jumpi\n      tag_110\n      tag_111\n      jump\t// in\n    tag_110:\n    tag_109:\n      dup2\n      mstore\n      pop\n        /* \"contracts/jobPortal.sol\":1490:1499  applicant */\n      0x01\n        /* \"contracts/jobPortal.sol\":1490:1509  applicant[_address] */\n      0x00\n        /* \"contracts/jobPortal.sol\":1500:1508  _address */\n      dup11\n        /* \"contracts/jobPortal.sol\":1490:1509  applicant[_address] */\n      0xffffffffffffffffffffffffffffffffffffffff\n      and\n      0xffffffffffffffffffffffffffffffffffffffff\n      and\n      dup2\n      mstore\n      0x20\n      add\n      swap1\n      dup2\n      mstore\n      0x20\n      add\n      0x00\n      keccak256\n        /* \"contracts/jobPortal.sol\":1490:1595  applicant[_address] = applicant_details(_name, _phone, _home_address , _age, 0 ,_skills, _workExp, _type) */\n      0x00\n      dup3\n      add\n      mload\n      dup2\n      0x00\n      add\n      swap1\n      dup2\n      tag_112\n      swap2\n      swap1\n      tag_98\n      jump\t// in\n    tag_112:\n      pop\n      0x20\n      dup3\n      add\n      mload\n      dup2\n      0x01\n      add\n      sstore\n      0x40\n      dup3\n      add\n      mload\n      dup2\n      0x02\n      add\n      swap1\n      dup2\n      tag_113\n      swap2\n      swap1\n      tag_98\n      jump\t// in\n    tag_113:\n      pop\n      0x60\n      dup3\n      add\n      mload\n      dup2\n      0x03\n      add\n      exp(0x0100, 0x00)\n      dup2\n      sload\n      dup2\n      0xff\n      mul\n      not\n      and\n      swap1\n      dup4\n      0xff\n      and\n      mul\n      or\n      swap1\n      sstore\n      pop\n      0x80\n      dup3\n      add\n      mload\n      dup2\n      0x03\n      add\n      exp(0x0100, 0x01)\n      dup2\n      sload\n      dup2\n      0xff\n      mul\n      not\n      and\n      swap1\n      dup4\n      0xff\n      and\n      mul\n      or\n      swap1\n      sstore\n      pop\n      0xa0\n      dup3\n      add\n      mload\n      dup2\n      0x04\n      add\n      swap1\n      dup2\n      tag_114\n      swap2\n      swap1\n      tag_98\n      jump\t// in\n    tag_114:\n      pop\n      0xc0\n      dup3\n      add\n      mload\n      dup2\n      0x05\n      add\n      swap1\n      dup2\n      tag_115\n      swap2\n      swap1\n      tag_98\n      jump\t// in\n    tag_115:\n      pop\n      0xe0\n      dup3\n      add\n      mload\n      dup2\n      0x06\n      add\n      exp(0x0100, 0x00)\n      dup2\n      sload\n      dup2\n      0xff\n      mul\n      not\n      and\n      swap1\n      dup4\n      0x02\n      dup2\n      gt\n      iszero\n      tag_116\n      jumpi\n      tag_117\n      tag_111\n      jump\t// in\n    tag_117:\n    tag_116:\n      mul\n      or\n      swap1\n      sstore\n      pop\n      swap1\n      pop\n      pop\n        /* \"contracts/jobPortal.sol\":1287:1603  function addApplicant(address _address, string memory _name,uint _phone, string memory _home_address, uint8 _age, string memory _skills, string memory _workExp, jobType _type)public onlyAdmin {... */\n      pop\n      pop\n      pop\n      pop\n      pop\n      pop\n      pop\n      pop\n      jump\t// out\n        /* \"contracts/jobPortal.sol\":2416:2807  function jobApply(uint _jobId) public jobExists(_jobId){... */\n    tag_33:\n        /* \"contracts/jobPortal.sol\":2464:2470  _jobId */\n      dup1\n        /* \"contracts/jobPortal.sol\":1202:1203  0 */\n      0x00\n        /* \"contracts/jobPortal.sol\":1177:1180  job */\n      0x02\n        /* \"contracts/jobPortal.sol\":1177:1185  job[_id] */\n      0x00\n        /* \"contracts/jobPortal.sol\":1181:1184  _id */\n      dup4\n        /* \"contracts/jobPortal.sol\":1177:1185  job[_id] */\n      dup2\n      mstore\n      0x20\n      add\n      swap1\n      dup2\n      mstore\n      0x20\n      add\n      0x00\n      keccak256\n        /* \"contracts/jobPortal.sol\":1177:1191  job[_id].title */\n      0x00\n      add\n        /* \"contracts/jobPortal.sol\":1171:1199  bytes(job[_id].title).length */\n      dup1\n      sload\n      tag_119\n      swap1\n      tag_65\n      jump\t// in\n    tag_119:\n      swap1\n      pop\n        /* \"contracts/jobPortal.sol\":1171:1203  bytes(job[_id].title).length > 0 */\n      gt\n        /* \"contracts/jobPortal.sol\":1163:1226  require(bytes(job[_id].title).length > 0, \"No Such Job Exists\") */\n      tag_120\n      jumpi\n      mload(0x40)\n      0x08c379a000000000000000000000000000000000000000000000000000000000\n      dup2\n      mstore\n      0x04\n      add\n      tag_121\n      swap1\n      tag_122\n      jump\t// in\n    tag_121:\n      mload(0x40)\n      dup1\n      swap2\n      sub\n      swap1\n      revert\n    tag_120:\n        /* \"contracts/jobPortal.sol\":2533:2534  0 */\n      0x00\n        /* \"contracts/jobPortal.sol\":2496:2505  applicant */\n      0x01\n        /* \"contracts/jobPortal.sol\":2496:2517  applicant[msg.sender] */\n      0x00\n        /* \"contracts/jobPortal.sol\":2506:2516  msg.sender */\n      caller\n        /* \"contracts/jobPortal.sol\":2496:2517  applicant[msg.sender] */\n      0xffffffffffffffffffffffffffffffffffffffff\n      and\n      0xffffffffffffffffffffffffffffffffffffffff\n      and\n      dup2\n      mstore\n      0x20\n      add\n      swap1\n      dup2\n      mstore\n      0x20\n      add\n      0x00\n      keccak256\n        /* \"contracts/jobPortal.sol\":2496:2522  applicant[msg.sender].name */\n      0x00\n      add\n        /* \"contracts/jobPortal.sol\":2490:2530  bytes(applicant[msg.sender].name).length */\n      dup1\n      sload\n      tag_124\n      swap1\n      tag_65\n      jump\t// in\n    tag_124:\n      swap1\n      pop\n        /* \"contracts/jobPortal.sol\":2490:2534  bytes(applicant[msg.sender].name).length > 0 */\n      gt\n        /* \"contracts/jobPortal.sol\":2482:2574  require(bytes(applicant[msg.sender].name).length > 0, \"Only Registered applicant can apply\") */\n      tag_125\n      jumpi\n      mload(0x40)\n      0x08c379a000000000000000000000000000000000000000000000000000000000\n      dup2\n      mstore\n      0x04\n      add\n      tag_126\n      swap1\n      tag_127\n      jump\t// in\n    tag_126:\n      mload(0x40)\n      dup1\n      swap2\n      sub\n      swap1\n      revert\n    tag_125:\n        /* \"contracts/jobPortal.sol\":2595:2605  hasApplied */\n      0x03\n        /* \"contracts/jobPortal.sol\":2595:2613  hasApplied[_jobId] */\n      0x00\n        /* \"contracts/jobPortal.sol\":2606:2612  _jobId */\n      dup4\n        /* \"contracts/jobPortal.sol\":2595:2613  hasApplied[_jobId] */\n      dup2\n      mstore\n      0x20\n      add\n      swap1\n      dup2\n      mstore\n      0x20\n      add\n      0x00\n      keccak256\n        /* \"contracts/jobPortal.sol\":2595:2625  hasApplied[_jobId][msg.sender] */\n      0x00\n        /* \"contracts/jobPortal.sol\":2614:2624  msg.sender */\n      caller\n        /* \"contracts/jobPortal.sol\":2595:2625  hasApplied[_jobId][msg.sender] */\n      0xffffffffffffffffffffffffffffffffffffffff\n      and\n      0xffffffffffffffffffffffffffffffffffffffff\n      and\n      dup2\n      mstore\n      0x20\n      add\n      swap1\n      dup2\n      mstore\n      0x20\n      add\n      0x00\n      keccak256\n      0x00\n      swap1\n      sload\n      swap1\n      0x0100\n      exp\n      swap1\n      div\n      0xff\n      and\n        /* \"contracts/jobPortal.sol\":2593:2626  !(hasApplied[_jobId][msg.sender]) */\n      iszero\n        /* \"contracts/jobPortal.sol\":2585:2646  require(!(hasApplied[_jobId][msg.sender]), \"Already Applied\") */\n      tag_128\n      jumpi\n      mload(0x40)\n      0x08c379a000000000000000000000000000000000000000000000000000000000\n      dup2\n      mstore\n      0x04\n      add\n      tag_129\n      swap1\n      tag_130\n      jump\t// in\n    tag_129:\n      mload(0x40)\n      dup1\n      swap2\n      sub\n      swap1\n      revert\n    tag_128:\n        /* \"contracts/jobPortal.sol\":2690:2694  true */\n      0x01\n        /* \"contracts/jobPortal.sol\":2657:2667  hasApplied */\n      0x03\n        /* \"contracts/jobPortal.sol\":2657:2675  hasApplied[_jobId] */\n      0x00\n        /* \"contracts/jobPortal.sol\":2668:2674  _jobId */\n      dup5\n        /* \"contracts/jobPortal.sol\":2657:2675  hasApplied[_jobId] */\n      dup2\n      mstore\n      0x20\n      add\n      swap1\n      dup2\n      mstore\n      0x20\n      add\n      0x00\n      keccak256\n        /* \"contracts/jobPortal.sol\":2657:2687  hasApplied[_jobId][msg.sender] */\n      0x00\n        /* \"contracts/jobPortal.sol\":2676:2686  msg.sender */\n      caller\n        /* \"contracts/jobPortal.sol\":2657:2687  hasApplied[_jobId][msg.sender] */\n      0xffffffffffffffffffffffffffffffffffffffff\n      and\n      0xffffffffffffffffffffffffffffffffffffffff\n      and\n      dup2\n      mstore\n      0x20\n      add\n      swap1\n      dup2\n      mstore\n      0x20\n      add\n      0x00\n      keccak256\n      0x00\n        /* \"contracts/jobPortal.sol\":2657:2694  hasApplied[_jobId][msg.sender] = true */\n      0x0100\n      exp\n      dup2\n      sload\n      dup2\n      0xff\n      mul\n      not\n      and\n      swap1\n      dup4\n      iszero\n      iszero\n      mul\n      or\n      swap1\n      sstore\n      pop\n        /* \"contracts/jobPortal.sol\":2705:2708  job */\n      0x02\n        /* \"contracts/jobPortal.sol\":2705:2716  job[_jobId] */\n      0x00\n        /* \"contracts/jobPortal.sol\":2709:2715  _jobId */\n      dup4\n        /* \"contracts/jobPortal.sol\":2705:2716  job[_jobId] */\n      dup2\n      mstore\n      0x20\n      add\n      swap1\n      dup2\n      mstore\n      0x20\n      add\n      0x00\n      keccak256\n        /* \"contracts/jobPortal.sol\":2705:2727  job[_jobId].applicants */\n      0x04\n      add\n        /* \"contracts/jobPortal.sol\":2733:2743  msg.sender */\n      caller\n        /* \"contracts/jobPortal.sol\":2705:2744  job[_jobId].applicants.push(msg.sender) */\n      swap1\n      dup1\n      0x01\n      dup2\n      sload\n      add\n      dup1\n      dup3\n      sstore\n      dup1\n      swap2\n      pop\n      pop\n      0x01\n      swap1\n      sub\n      swap1\n      0x00\n      mstore\n      keccak256(0x00, 0x20)\n      add\n      0x00\n      swap1\n      swap2\n      swap1\n      swap2\n      swap1\n      swap2\n      0x0100\n      exp\n      dup2\n      sload\n      dup2\n      0xffffffffffffffffffffffffffffffffffffffff\n      mul\n      not\n      and\n      swap1\n      dup4\n      0xffffffffffffffffffffffffffffffffffffffff\n      and\n      mul\n      or\n      swap1\n      sstore\n      pop\n        /* \"contracts/jobPortal.sol\":2416:2807  function jobApply(uint _jobId) public jobExists(_jobId){... */\n      pop\n      pop\n      jump\t// out\n        /* \"contracts/jobPortal.sol\":1642:1775  function fetchApplicant(address _address) public view returns(applicant_details memory) {... */\n    tag_37:\n        /* \"contracts/jobPortal.sol\":1704:1728  applicant_details memory */\n      tag_132\n      tag_133\n      jump\t// in\n    tag_132:\n        /* \"contracts/jobPortal.sol\":1748:1757  applicant */\n      0x01\n        /* \"contracts/jobPortal.sol\":1748:1767  applicant[_address] */\n      0x00\n        /* \"contracts/jobPortal.sol\":1758:1766  _address */\n      dup4\n        /* \"contracts/jobPortal.sol\":1748:1767  applicant[_address] */\n      0xffffffffffffffffffffffffffffffffffffffff\n      and\n      0xffffffffffffffffffffffffffffffffffffffff\n      and\n      dup2\n      mstore\n      0x20\n      add\n      swap1\n      dup2\n      mstore\n      0x20\n      add\n      0x00\n      keccak256\n        /* \"contracts/jobPortal.sol\":1741:1767  return applicant[_address] */\n      mload(0x40)\n      dup1\n      0x0100\n      add\n      0x40\n      mstore\n      swap1\n      dup2\n      0x00\n      dup3\n      add\n      dup1\n      sload\n      tag_135\n      swap1\n      tag_65\n      jump\t// in\n    tag_135:\n      dup1\n      0x1f\n      add\n      0x20\n      dup1\n      swap2\n      div\n      mul\n      0x20\n      add\n      mload(0x40)\n      swap1\n      dup2\n      add\n      0x40\n      mstore\n      dup1\n      swap3\n      swap2\n      swap1\n      dup2\n      dup2\n      mstore\n      0x20\n      add\n      dup3\n      dup1\n      sload\n      tag_136\n      swap1\n      tag_65\n      jump\t// in\n    tag_136:\n      dup1\n      iszero\n      tag_137\n      jumpi\n      dup1\n      0x1f\n      lt\n      tag_138\n      jumpi\n      0x0100\n      dup1\n      dup4\n      sload\n      div\n      mul\n      dup4\n      mstore\n      swap2\n      0x20\n      add\n      swap2\n      jump(tag_137)\n    tag_138:\n      dup3\n      add\n      swap2\n      swap1\n      0x00\n      mstore\n      keccak256(0x00, 0x20)\n      swap1\n    tag_139:\n      dup2\n      sload\n      dup2\n      mstore\n      swap1\n      0x01\n      add\n      swap1\n      0x20\n      add\n      dup1\n      dup4\n      gt\n      tag_139\n      jumpi\n      dup3\n      swap1\n      sub\n      0x1f\n      and\n      dup3\n      add\n      swap2\n    tag_137:\n      pop\n      pop\n      pop\n      pop\n      pop\n      dup2\n      mstore\n      0x20\n      add\n      0x01\n      dup3\n      add\n      sload\n      dup2\n      mstore\n      0x20\n      add\n      0x02\n      dup3\n      add\n      dup1\n      sload\n      tag_140\n      swap1\n      tag_65\n      jump\t// in\n    tag_140:\n      dup1\n      0x1f\n      add\n      0x20\n      dup1\n      swap2\n      div\n      mul\n      0x20\n      add\n      mload(0x40)\n      swap1\n      dup2\n      add\n      0x40\n      mstore\n      dup1\n      swap3\n      swap2\n      swap1\n      dup2\n      dup2\n      mstore\n      0x20\n      add\n      dup3\n      dup1\n      sload\n      tag_141\n      swap1\n      tag_65\n      jump\t// in\n    tag_141:\n      dup1\n      iszero\n      tag_142\n      jumpi\n      dup1\n      0x1f\n      lt\n      tag_143\n      jumpi\n      0x0100\n      dup1\n      dup4\n      sload\n      div\n      mul\n      dup4\n      mstore\n      swap2\n      0x20\n      add\n      swap2\n      jump(tag_142)\n    tag_143:\n      dup3\n      add\n      swap2\n      swap1\n      0x00\n      mstore\n      keccak256(0x00, 0x20)\n      swap1\n    tag_144:\n      dup2\n      sload\n      dup2\n      mstore\n      swap1\n      0x01\n      add\n      swap1\n      0x20\n      add\n      dup1\n      dup4\n      gt\n      tag_144\n      jumpi\n      dup3\n      swap1\n      sub\n      0x1f\n      and\n      dup3\n      add\n      swap2\n    tag_142:\n      pop\n      pop\n      pop\n      pop\n      pop\n      dup2\n      mstore\n      0x20\n      add\n      0x03\n      dup3\n      add\n      0x00\n      swap1\n      sload\n      swap1\n      0x0100\n      exp\n      swap1\n      div\n      0xff\n      and\n      0xff\n      and\n      0xff\n      and\n      dup2\n      mstore\n      0x20\n      add\n      0x03\n      dup3\n      add\n      0x01\n      swap1\n      sload\n      swap1\n      0x0100\n      exp\n      swap1\n      div\n      0xff\n      and\n      0xff\n      and\n      0xff\n      and\n      dup2\n      mstore\n      0x20\n      add\n      0x04\n      dup3\n      add\n      dup1\n      sload\n      tag_145\n      swap1\n      tag_65\n      jump\t// in\n    tag_145:\n      dup1\n      0x1f\n      add\n      0x20\n      dup1\n      swap2\n      div\n      mul\n      0x20\n      add\n      mload(0x40)\n      swap1\n      dup2\n      add\n      0x40\n      mstore\n      dup1\n      swap3\n      swap2\n      swap1\n      dup2\n      dup2\n      mstore\n      0x20\n      add\n      dup3\n      dup1\n      sload\n      tag_146\n      swap1\n      tag_65\n      jump\t// in\n    tag_146:\n      dup1\n      iszero\n      tag_147\n      jumpi\n      dup1\n      0x1f\n      lt\n      tag_148\n      jumpi\n      0x0100\n      dup1\n      dup4\n      sload\n      div\n      mul\n      dup4\n      mstore\n      swap2\n      0x20\n      add\n      swap2\n      jump(tag_147)\n    tag_148:\n      dup3\n      add\n      swap2\n      swap1\n      0x00\n      mstore\n      keccak256(0x00, 0x20)\n      swap1\n    tag_149:\n      dup2\n      sload\n      dup2\n      mstore\n      swap1\n      0x01\n      add\n      swap1\n      0x20\n      add\n      dup1\n      dup4\n      gt\n      tag_149\n      jumpi\n      dup3\n      swap1\n      sub\n      0x1f\n      and\n      dup3\n      add\n      swap2\n    tag_147:\n      pop\n      pop\n      pop\n      pop\n      pop\n      dup2\n      mstore\n      0x20\n      add\n      0x05\n      dup3\n      add\n      dup1\n      sload\n      tag_150\n      swap1\n      tag_65\n      jump\t// in\n    tag_150:\n      dup1\n      0x1f\n      add\n      0x20\n      dup1\n      swap2\n      div\n      mul\n      0x20\n      add\n      mload(0x40)\n      swap1\n      dup2\n      add\n      0x40\n      mstore\n      dup1\n      swap3\n      swap2\n      swap1\n      dup2\n      dup2\n      mstore\n      0x20\n      add\n      dup3\n      dup1\n      sload\n      tag_151\n      swap1\n      tag_65\n      jump\t// in\n    tag_151:\n      dup1\n      iszero\n      tag_152\n      jumpi\n      dup1\n      0x1f\n      lt\n      tag_153\n      jumpi\n      0x0100\n      dup1\n      dup4\n      sload\n      div\n      mul\n      dup4\n      mstore\n      swap2\n      0x20\n      add\n      swap2\n      jump(tag_152)\n    tag_153:\n      dup3\n      add\n      swap2\n      swap1\n      0x00\n      mstore\n      keccak256(0x00, 0x20)\n      swap1\n    tag_154:\n      dup2\n      sload\n      dup2\n      mstore\n      swap1\n      0x01\n      add\n      swap1\n      0x20\n      add\n      dup1\n      dup4\n      gt\n      tag_154\n      jumpi\n      dup3\n      swap1\n      sub\n      0x1f\n      and\n      dup3\n      add\n      swap2\n    tag_152:\n      pop\n      pop\n      pop\n      pop\n      pop\n      dup2\n      mstore\n      0x20\n      add\n      0x06\n      dup3\n      add\n      0x00\n      swap1\n      sload\n      swap1\n      0x0100\n      exp\n      swap1\n      div\n      0xff\n      and\n      0x02\n      dup2\n      gt\n      iszero\n      tag_155\n      jumpi\n      tag_156\n      tag_111\n      jump\t// in\n    tag_156:\n    tag_155:\n      0x02\n      dup2\n      gt\n      iszero\n      tag_157\n      jumpi\n      tag_158\n      tag_111\n      jump\t// in\n    tag_158:\n    tag_157:\n      dup2\n      mstore\n      pop\n      pop\n      swap1\n      pop\n        /* \"contracts/jobPortal.sol\":1642:1775  function fetchApplicant(address _address) public view returns(applicant_details memory) {... */\n      swap2\n      swap1\n      pop\n      jump\t// out\n        /* \"contracts/jobPortal.sol\":1809:1944  function fetchApplicantType(address _address) public view returns(jobType) {... */\n    tag_42:\n        /* \"contracts/jobPortal.sol\":1875:1882  jobType */\n      0x00\n        /* \"contracts/jobPortal.sol\":1902:1911  applicant */\n      0x01\n        /* \"contracts/jobPortal.sol\":1902:1921  applicant[_address] */\n      0x00\n        /* \"contracts/jobPortal.sol\":1912:1920  _address */\n      dup4\n        /* \"contracts/jobPortal.sol\":1902:1921  applicant[_address] */\n      0xffffffffffffffffffffffffffffffffffffffff\n      and\n      0xffffffffffffffffffffffffffffffffffffffff\n      and\n      dup2\n      mstore\n      0x20\n      add\n      swap1\n      dup2\n      mstore\n      0x20\n      add\n      0x00\n      keccak256\n        /* \"contracts/jobPortal.sol\":1902:1936  applicant[_address].job_preference */\n      0x06\n      add\n      0x00\n      swap1\n      sload\n      swap1\n      0x0100\n      exp\n      swap1\n      div\n      0xff\n      and\n        /* \"contracts/jobPortal.sol\":1895:1936  return applicant[_address].job_preference */\n      swap1\n      pop\n        /* \"contracts/jobPortal.sol\":1809:1944  function fetchApplicantType(address _address) public view returns(jobType) {... */\n      swap2\n      swap1\n      pop\n      jump\t// out\n        /* \"contracts/jobPortal.sol\":768:828  mapping (uint => mapping(address => bool)) public hasApplied */\n    tag_48:\n      mstore(0x20, 0x03)\n      dup2\n      0x00\n      mstore\n      mstore(0x20, keccak256(0x00, 0x40))\n      dup1\n      0x00\n      mstore\n      keccak256(0x00, 0x40)\n      0x00\n      swap2\n      pop\n      swap2\n      pop\n      swap1\n      sload\n      swap1\n      0x0100\n      exp\n      swap1\n      div\n      0xff\n      and\n      dup2\n      jump\t// out\n        /* \"contracts/jobPortal.sol\":3109:3245  function fetchRating(address _applicantAddress) public view returns(uint8) {... */\n    tag_53:\n        /* \"contracts/jobPortal.sol\":3177:3182  uint8 */\n      0x00\n        /* \"contracts/jobPortal.sol\":3202:3211  applicant */\n      0x01\n        /* \"contracts/jobPortal.sol\":3202:3230  applicant[_applicantAddress] */\n      0x00\n        /* \"contracts/jobPortal.sol\":3212:3229  _applicantAddress */\n      dup4\n        /* \"contracts/jobPortal.sol\":3202:3230  applicant[_applicantAddress] */\n      0xffffffffffffffffffffffffffffffffffffffff\n      and\n      0xffffffffffffffffffffffffffffffffffffffff\n      and\n      dup2\n      mstore\n      0x20\n      add\n      swap1\n      dup2\n      mstore\n      0x20\n      add\n      0x00\n      keccak256\n        /* \"contracts/jobPortal.sol\":3202:3237  applicant[_applicantAddress].rating */\n      0x03\n      add\n      0x01\n      swap1\n      sload\n      swap1\n      0x0100\n      exp\n      swap1\n      div\n      0xff\n      and\n        /* \"contracts/jobPortal.sol\":3195:3237  return applicant[_applicantAddress].rating */\n      swap1\n      pop\n        /* \"contracts/jobPortal.sol\":3109:3245  function fetchRating(address _applicantAddress) public view returns(uint8) {... */\n      swap2\n      swap1\n      pop\n      jump\t// out\n    tag_62:\n      mload(0x40)\n      dup1\n      0xa0\n      add\n      0x40\n      mstore\n      dup1\n      0x60\n      dup2\n      mstore\n      0x20\n      add\n      0x60\n      dup2\n      mstore\n      0x20\n      add\n      0x60\n      dup2\n      mstore\n      0x20\n      add\n      0x60\n      dup2\n      mstore\n      0x20\n      add\n      0x60\n      dup2\n      mstore\n      pop\n      swap1\n      jump\t// out\n    tag_103:\n      dup3\n      dup1\n      sload\n      dup3\n      dup3\n      sstore\n      swap1\n      0x00\n      mstore\n      keccak256(0x00, 0x20)\n      swap1\n      dup2\n      add\n      swap3\n      dup3\n      iszero\n      tag_161\n      jumpi\n      swap2\n      0x20\n      mul\n      dup3\n      add\n    tag_162:\n      dup3\n      dup2\n      gt\n      iszero\n      tag_163\n      jumpi\n      dup3\n      mload\n      dup3\n      exp(0x0100, 0x00)\n      dup2\n      sload\n      dup2\n      0xffffffffffffffffffffffffffffffffffffffff\n      mul\n      not\n      and\n      swap1\n      dup4\n      0xffffffffffffffffffffffffffffffffffffffff\n      and\n      mul\n      or\n      swap1\n      sstore\n      pop\n      swap2\n      0x20\n      add\n      swap2\n      swap1\n      0x01\n      add\n      swap1\n      jump(tag_162)\n    tag_163:\n    tag_161:\n      pop\n      swap1\n      pop\n      tag_164\n      swap2\n      swap1\n      tag_165\n      jump\t// in\n    tag_164:\n      pop\n      swap1\n      jump\t// out\n    tag_133:\n      mload(0x40)\n      dup1\n      0x0100\n      add\n      0x40\n      mstore\n      dup1\n      0x60\n      dup2\n      mstore\n      0x20\n      add\n      0x00\n      dup2\n      mstore\n      0x20\n      add\n      0x60\n      dup2\n      mstore\n      0x20\n      add\n      and(0xff, 0x00)\n      dup2\n      mstore\n      0x20\n      add\n      and(0xff, 0x00)\n      dup2\n      mstore\n      0x20\n      add\n      0x60\n      dup2\n      mstore\n      0x20\n      add\n      0x60\n      dup2\n      mstore\n      0x20\n      add\n      0x00\n      0x02\n      dup2\n      gt\n      iszero\n      tag_166\n      jumpi\n      tag_167\n      tag_111\n      jump\t// in\n    tag_167:\n    tag_166:\n      dup2\n      mstore\n      pop\n      swap1\n      jump\t// out\n    tag_165:\n    tag_168:\n      dup1\n      dup3\n      gt\n      iszero\n      tag_169\n      jumpi\n      0x00\n      dup2\n      0x00\n      swap1\n      sstore\n      pop\n      0x01\n      add\n      jump(tag_168)\n    tag_169:\n      pop\n      swap1\n      jump\t// out\n        /* \"#utility.yul\":7:82   */\n    tag_170:\n        /* \"#utility.yul\":40:46   */\n      0x00\n        /* \"#utility.yul\":73:75   */\n      0x40\n        /* \"#utility.yul\":67:76   */\n      mload\n        /* \"#utility.yul\":57:76   */\n      swap1\n      pop\n        /* \"#utility.yul\":7:82   */\n      swap1\n      jump\t// out\n        /* \"#utility.yul\":88:205   */\n    tag_171:\n        /* \"#utility.yul\":197:198   */\n      0x00\n        /* \"#utility.yul\":194:195   */\n      dup1\n        /* \"#utility.yul\":187:199   */\n      revert\n        /* \"#utility.yul\":211:328   */\n    tag_172:\n        /* \"#utility.yul\":320:321   */\n      0x00\n        /* \"#utility.yul\":317:318   */\n      dup1\n        /* \"#utility.yul\":310:322   */\n      revert\n        /* \"#utility.yul\":334:460   */\n    tag_173:\n        /* \"#utility.yul\":371:378   */\n      0x00\n        /* \"#utility.yul\":411:453   */\n      0xffffffffffffffffffffffffffffffffffffffff\n        /* \"#utility.yul\":404:409   */\n      dup3\n        /* \"#utility.yul\":400:454   */\n      and\n        /* \"#utility.yul\":389:454   */\n      swap1\n      pop\n        /* \"#utility.yul\":334:460   */\n      swap2\n      swap1\n      pop\n      jump\t// out\n        /* \"#utility.yul\":466:562   */\n    tag_174:\n        /* \"#utility.yul\":503:510   */\n      0x00\n        /* \"#utility.yul\":532:556   */\n      tag_252\n        /* \"#utility.yul\":550:555   */\n      dup3\n        /* \"#utility.yul\":532:556   */\n      tag_173\n      jump\t// in\n    tag_252:\n        /* \"#utility.yul\":521:556   */\n      swap1\n      pop\n        /* \"#utility.yul\":466:562   */\n      swap2\n      swap1\n      pop\n      jump\t// out\n        /* \"#utility.yul\":568:690   */\n    tag_175:\n        /* \"#utility.yul\":641:665   */\n      tag_254\n        /* \"#utility.yul\":659:664   */\n      dup2\n        /* \"#utility.yul\":641:665   */\n      tag_174\n      jump\t// in\n    tag_254:\n        /* \"#utility.yul\":634:639   */\n      dup2\n        /* \"#utility.yul\":631:666   */\n      eq\n        /* \"#utility.yul\":621:684   */\n      tag_255\n      jumpi\n        /* \"#utility.yul\":680:681   */\n      0x00\n        /* \"#utility.yul\":677:678   */\n      dup1\n        /* \"#utility.yul\":670:682   */\n      revert\n        /* \"#utility.yul\":621:684   */\n    tag_255:\n        /* \"#utility.yul\":568:690   */\n      pop\n      jump\t// out\n        /* \"#utility.yul\":696:835   */\n    tag_176:\n        /* \"#utility.yul\":742:747   */\n      0x00\n        /* \"#utility.yul\":780:786   */\n      dup2\n        /* \"#utility.yul\":767:787   */\n      calldataload\n        /* \"#utility.yul\":758:787   */\n      swap1\n      pop\n        /* \"#utility.yul\":796:829   */\n      tag_257\n        /* \"#utility.yul\":823:828   */\n      dup2\n        /* \"#utility.yul\":796:829   */\n      tag_175\n      jump\t// in\n    tag_257:\n        /* \"#utility.yul\":696:835   */\n      swap3\n      swap2\n      pop\n      pop\n      jump\t// out\n        /* \"#utility.yul\":841:927   */\n    tag_177:\n        /* \"#utility.yul\":876:883   */\n      0x00\n        /* \"#utility.yul\":916:920   */\n      0xff\n        /* \"#utility.yul\":909:914   */\n      dup3\n        /* \"#utility.yul\":905:921   */\n      and\n        /* \"#utility.yul\":894:921   */\n      swap1\n      pop\n        /* \"#utility.yul\":841:927   */\n      swap2\n      swap1\n      pop\n      jump\t// out\n        /* \"#utility.yul\":933:1051   */\n    tag_178:\n        /* \"#utility.yul\":1004:1026   */\n      tag_260\n        /* \"#utility.yul\":1020:1025   */\n      dup2\n        /* \"#utility.yul\":1004:1026   */\n      tag_177\n      jump\t// in\n    tag_260:\n        /* \"#utility.yul\":997:1002   */\n      dup2\n        /* \"#utility.yul\":994:1027   */\n      eq\n        /* \"#utility.yul\":984:1045   */\n      tag_261\n      jumpi\n        /* \"#utility.yul\":1041:1042   */\n      0x00\n        /* \"#utility.yul\":1038:1039   */\n      dup1\n        /* \"#utility.yul\":1031:1043   */\n      revert\n        /* \"#utility.yul\":984:1045   */\n    tag_261:\n        /* \"#utility.yul\":933:1051   */\n      pop\n      jump\t// out\n        /* \"#utility.yul\":1057:1192   */\n    tag_179:\n        /* \"#utility.yul\":1101:1106   */\n      0x00\n        /* \"#utility.yul\":1139:1145   */\n      dup2\n        /* \"#utility.yul\":1126:1146   */\n      calldataload\n        /* \"#utility.yul\":1117:1146   */\n      swap1\n      pop\n        /* \"#utility.yul\":1155:1186   */\n      tag_263\n        /* \"#utility.yul\":1180:1185   */\n      dup2\n        /* \"#utility.yul\":1155:1186   */\n      tag_178\n      jump\t// in\n    tag_263:\n        /* \"#utility.yul\":1057:1192   */\n      swap3\n      swap2\n      pop\n      pop\n      jump\t// out\n        /* \"#utility.yul\":1198:1668   */\n    tag_15:\n        /* \"#utility.yul\":1264:1270   */\n      0x00\n        /* \"#utility.yul\":1272:1278   */\n      dup1\n        /* \"#utility.yul\":1321:1323   */\n      0x40\n        /* \"#utility.yul\":1309:1318   */\n      dup4\n        /* \"#utility.yul\":1300:1307   */\n      dup6\n        /* \"#utility.yul\":1296:1319   */\n      sub\n        /* \"#utility.yul\":1292:1324   */\n      slt\n        /* \"#utility.yul\":1289:1408   */\n      iszero\n      tag_265\n      jumpi\n        /* \"#utility.yul\":1327:1406   */\n      tag_266\n      tag_171\n      jump\t// in\n    tag_266:\n        /* \"#utility.yul\":1289:1408   */\n    tag_265:\n        /* \"#utility.yul\":1447:1448   */\n      0x00\n        /* \"#utility.yul\":1472:1525   */\n      tag_267\n        /* \"#utility.yul\":1517:1524   */\n      dup6\n        /* \"#utility.yul\":1508:1514   */\n      dup3\n        /* \"#utility.yul\":1497:1506   */\n      dup7\n        /* \"#utility.yul\":1493:1515   */\n      add\n        /* \"#utility.yul\":1472:1525   */\n      tag_176\n      jump\t// in\n    tag_267:\n        /* \"#utility.yul\":1462:1525   */\n      swap3\n      pop\n        /* \"#utility.yul\":1418:1535   */\n      pop\n        /* \"#utility.yul\":1574:1576   */\n      0x20\n        /* \"#utility.yul\":1600:1651   */\n      tag_268\n        /* \"#utility.yul\":1643:1650   */\n      dup6\n        /* \"#utility.yul\":1634:1640   */\n      dup3\n        /* \"#utility.yul\":1623:1632   */\n      dup7\n        /* \"#utility.yul\":1619:1641   */\n      add\n        /* \"#utility.yul\":1600:1651   */\n      tag_179\n      jump\t// in\n    tag_268:\n        /* \"#utility.yul\":1590:1651   */\n      swap2\n      pop\n        /* \"#utility.yul\":1545:1661   */\n      pop\n        /* \"#utility.yul\":1198:1668   */\n      swap3\n      pop\n      swap3\n      swap1\n      pop\n      jump\t// out\n        /* \"#utility.yul\":1674:1751   */\n    tag_180:\n        /* \"#utility.yul\":1711:1718   */\n      0x00\n        /* \"#utility.yul\":1740:1745   */\n      dup2\n        /* \"#utility.yul\":1729:1745   */\n      swap1\n      pop\n        /* \"#utility.yul\":1674:1751   */\n      swap2\n      swap1\n      pop\n      jump\t// out\n        /* \"#utility.yul\":1757:1879   */\n    tag_181:\n        /* \"#utility.yul\":1830:1854   */\n      tag_271\n        /* \"#utility.yul\":1848:1853   */\n      dup2\n        /* \"#utility.yul\":1830:1854   */\n      tag_180\n      jump\t// in\n    tag_271:\n        /* \"#utility.yul\":1823:1828   */\n      dup2\n        /* \"#utility.yul\":1820:1855   */\n      eq\n        /* \"#utility.yul\":1810:1873   */\n      tag_272\n      jumpi\n        /* \"#utility.yul\":1869:1870   */\n      0x00\n        /* \"#utility.yul\":1866:1867   */\n      dup1\n        /* \"#utility.yul\":1859:1871   */\n      revert\n        /* \"#utility.yul\":1810:1873   */\n    tag_272:\n        /* \"#utility.yul\":1757:1879   */\n      pop\n      jump\t// out\n        /* \"#utility.yul\":1885:2024   */\n    tag_182:\n        /* \"#utility.yul\":1931:1936   */\n      0x00\n        /* \"#utility.yul\":1969:1975   */\n      dup2\n        /* \"#utility.yul\":1956:1976   */\n      calldataload\n        /* \"#utility.yul\":1947:1976   */\n      swap1\n      pop\n        /* \"#utility.yul\":1985:2018   */\n      tag_274\n        /* \"#utility.yul\":2012:2017   */\n      dup2\n        /* \"#utility.yul\":1985:2018   */\n      tag_181\n      jump\t// in\n    tag_274:\n        /* \"#utility.yul\":1885:2024   */\n      swap3\n      swap2\n      pop\n      pop\n      jump\t// out\n        /* \"#utility.yul\":2030:2359   */\n    tag_19:\n        /* \"#utility.yul\":2089:2095   */\n      0x00\n        /* \"#utility.yul\":2138:2140   */\n      0x20\n        /* \"#utility.yul\":2126:2135   */\n      dup3\n        /* \"#utility.yul\":2117:2124   */\n      dup5\n        /* \"#utility.yul\":2113:2136   */\n      sub\n        /* \"#utility.yul\":2109:2141   */\n      slt\n        /* \"#utility.yul\":2106:2225   */\n      iszero\n      tag_276\n      jumpi\n        /* \"#utility.yul\":2144:2223   */\n      tag_277\n      tag_171\n      jump\t// in\n    tag_277:\n        /* \"#utility.yul\":2106:2225   */\n    tag_276:\n        /* \"#utility.yul\":2264:2265   */\n      0x00\n        /* \"#utility.yul\":2289:2342   */\n      tag_278\n        /* \"#utility.yul\":2334:2341   */\n      dup5\n        /* \"#utility.yul\":2325:2331   */\n      dup3\n        /* \"#utility.yul\":2314:2323   */\n      dup6\n        /* \"#utility.yul\":2310:2332   */\n      add\n        /* \"#utility.yul\":2289:2342   */\n      tag_182\n      jump\t// in\n    tag_278:\n        /* \"#utility.yul\":2279:2342   */\n      swap2\n      pop\n        /* \"#utility.yul\":2235:2352   */\n      pop\n        /* \"#utility.yul\":2030:2359   */\n      swap3\n      swap2\n      pop\n      pop\n      jump\t// out\n        /* \"#utility.yul\":2365:2464   */\n    tag_183:\n        /* \"#utility.yul\":2417:2423   */\n      0x00\n        /* \"#utility.yul\":2451:2456   */\n      dup2\n        /* \"#utility.yul\":2445:2457   */\n      mload\n        /* \"#utility.yul\":2435:2457   */\n      swap1\n      pop\n        /* \"#utility.yul\":2365:2464   */\n      swap2\n      swap1\n      pop\n      jump\t// out\n        /* \"#utility.yul\":2470:2629   */\n    tag_184:\n        /* \"#utility.yul\":2544:2555   */\n      0x00\n        /* \"#utility.yul\":2578:2584   */\n      dup3\n        /* \"#utility.yul\":2573:2576   */\n      dup3\n        /* \"#utility.yul\":2566:2585   */\n      mstore\n        /* \"#utility.yul\":2618:2622   */\n      0x20\n        /* \"#utility.yul\":2613:2616   */\n      dup3\n        /* \"#utility.yul\":2609:2623   */\n      add\n        /* \"#utility.yul\":2594:2623   */\n      swap1\n      pop\n        /* \"#utility.yul\":2470:2629   */\n      swap3\n      swap2\n      pop\n      pop\n      jump\t// out\n        /* \"#utility.yul\":2635:2881   */\n    tag_185:\n        /* \"#utility.yul\":2716:2717   */\n      0x00\n        /* \"#utility.yul\":2726:2839   */\n    tag_282:\n        /* \"#utility.yul\":2740:2746   */\n      dup4\n        /* \"#utility.yul\":2737:2738   */\n      dup2\n        /* \"#utility.yul\":2734:2747   */\n      lt\n        /* \"#utility.yul\":2726:2839   */\n      iszero\n      tag_284\n      jumpi\n        /* \"#utility.yul\":2825:2826   */\n      dup1\n        /* \"#utility.yul\":2820:2823   */\n      dup3\n        /* \"#utility.yul\":2816:2827   */\n      add\n        /* \"#utility.yul\":2810:2828   */\n      mload\n        /* \"#utility.yul\":2806:2807   */\n      dup2\n        /* \"#utility.yul\":2801:2804   */\n      dup5\n        /* \"#utility.yul\":2797:2808   */\n      add\n        /* \"#utility.yul\":2790:2829   */\n      mstore\n        /* \"#utility.yul\":2762:2764   */\n      0x20\n        /* \"#utility.yul\":2759:2760   */\n      dup2\n        /* \"#utility.yul\":2755:2765   */\n      add\n        /* \"#utility.yul\":2750:2765   */\n      swap1\n      pop\n        /* \"#utility.yul\":2726:2839   */\n      jump(tag_282)\n    tag_284:\n        /* \"#utility.yul\":2873:2874   */\n      0x00\n        /* \"#utility.yul\":2864:2870   */\n      dup5\n        /* \"#utility.yul\":2859:2862   */\n      dup5\n        /* \"#utility.yul\":2855:2871   */\n      add\n        /* \"#utility.yul\":2848:2875   */\n      mstore\n        /* \"#utility.yul\":2697:2881   */\n      pop\n        /* \"#utility.yul\":2635:2881   */\n      pop\n      pop\n      pop\n      jump\t// out\n        /* \"#utility.yul\":2887:2989   */\n    tag_186:\n        /* \"#utility.yul\":2928:2934   */\n      0x00\n        /* \"#utility.yul\":2979:2981   */\n      0x1f\n        /* \"#utility.yul\":2975:2982   */\n      not\n        /* \"#utility.yul\":2970:2972   */\n      0x1f\n        /* \"#utility.yul\":2963:2968   */\n      dup4\n        /* \"#utility.yul\":2959:2973   */\n      add\n        /* \"#utility.yul\":2955:2983   */\n      and\n        /* \"#utility.yul\":2945:2983   */\n      swap1\n      pop\n        /* \"#utility.yul\":2887:2989   */\n      swap2\n      swap1\n      pop\n      jump\t// out\n        /* \"#utility.yul\":2995:3352   */\n    tag_187:\n        /* \"#utility.yul\":3073:3076   */\n      0x00\n        /* \"#utility.yul\":3101:3140   */\n      tag_287\n        /* \"#utility.yul\":3134:3139   */\n      dup3\n        /* \"#utility.yul\":3101:3140   */\n      tag_183\n      jump\t// in\n    tag_287:\n        /* \"#utility.yul\":3156:3217   */\n      tag_288\n        /* \"#utility.yul\":3210:3216   */\n      dup2\n        /* \"#utility.yul\":3205:3208   */\n      dup6\n        /* \"#utility.yul\":3156:3217   */\n      tag_184\n      jump\t// in\n    tag_288:\n        /* \"#utility.yul\":3149:3217   */\n      swap4\n      pop\n        /* \"#utility.yul\":3226:3291   */\n      tag_289\n        /* \"#utility.yul\":3284:3290   */\n      dup2\n        /* \"#utility.yul\":3279:3282   */\n      dup6\n        /* \"#utility.yul\":3272:3276   */\n      0x20\n        /* \"#utility.yul\":3265:3270   */\n      dup7\n        /* \"#utility.yul\":3261:3277   */\n      add\n        /* \"#utility.yul\":3226:3291   */\n      tag_185\n      jump\t// in\n    tag_289:\n        /* \"#utility.yul\":3316:3345   */\n      tag_290\n        /* \"#utility.yul\":3338:3344   */\n      dup2\n        /* \"#utility.yul\":3316:3345   */\n      tag_186\n      jump\t// in\n    tag_290:\n        /* \"#utility.yul\":3311:3314   */\n      dup5\n        /* \"#utility.yul\":3307:3346   */\n      add\n        /* \"#utility.yul\":3300:3346   */\n      swap2\n      pop\n        /* \"#utility.yul\":3077:3352   */\n      pop\n        /* \"#utility.yul\":2995:3352   */\n      swap3\n      swap2\n      pop\n      pop\n      jump\t// out\n        /* \"#utility.yul\":3358:3472   */\n    tag_188:\n        /* \"#utility.yul\":3425:3431   */\n      0x00\n        /* \"#utility.yul\":3459:3464   */\n      dup2\n        /* \"#utility.yul\":3453:3465   */\n      mload\n        /* \"#utility.yul\":3443:3465   */\n      swap1\n      pop\n        /* \"#utility.yul\":3358:3472   */\n      swap2\n      swap1\n      pop\n      jump\t// out\n        /* \"#utility.yul\":3478:3652   */\n    tag_189:\n        /* \"#utility.yul\":3567:3578   */\n      0x00\n        /* \"#utility.yul\":3601:3607   */\n      dup3\n        /* \"#utility.yul\":3596:3599   */\n      dup3\n        /* \"#utility.yul\":3589:3608   */\n      mstore\n        /* \"#utility.yul\":3641:3645   */\n      0x20\n        /* \"#utility.yul\":3636:3639   */\n      dup3\n        /* \"#utility.yul\":3632:3646   */\n      add\n        /* \"#utility.yul\":3617:3646   */\n      swap1\n      pop\n        /* \"#utility.yul\":3478:3652   */\n      swap3\n      swap2\n      pop\n      pop\n      jump\t// out\n        /* \"#utility.yul\":3658:3790   */\n    tag_190:\n        /* \"#utility.yul\":3725:3729   */\n      0x00\n        /* \"#utility.yul\":3748:3751   */\n      dup2\n        /* \"#utility.yul\":3740:3751   */\n      swap1\n      pop\n        /* \"#utility.yul\":3778:3782   */\n      0x20\n        /* \"#utility.yul\":3773:3776   */\n      dup3\n        /* \"#utility.yul\":3769:3783   */\n      add\n        /* \"#utility.yul\":3761:3783   */\n      swap1\n      pop\n        /* \"#utility.yul\":3658:3790   */\n      swap2\n      swap1\n      pop\n      jump\t// out\n        /* \"#utility.yul\":3796:3904   */\n    tag_191:\n        /* \"#utility.yul\":3873:3897   */\n      tag_295\n        /* \"#utility.yul\":3891:3896   */\n      dup2\n        /* \"#utility.yul\":3873:3897   */\n      tag_174\n      jump\t// in\n    tag_295:\n        /* \"#utility.yul\":3868:3871   */\n      dup3\n        /* \"#utility.yul\":3861:3898   */\n      mstore\n        /* \"#utility.yul\":3796:3904   */\n      pop\n      pop\n      jump\t// out\n        /* \"#utility.yul\":3910:4089   */\n    tag_192:\n        /* \"#utility.yul\":3979:3989   */\n      0x00\n        /* \"#utility.yul\":4000:4046   */\n      tag_297\n        /* \"#utility.yul\":4042:4045   */\n      dup4\n        /* \"#utility.yul\":4034:4040   */\n      dup4\n        /* \"#utility.yul\":4000:4046   */\n      tag_191\n      jump\t// in\n    tag_297:\n        /* \"#utility.yul\":4078:4082   */\n      0x20\n        /* \"#utility.yul\":4073:4076   */\n      dup4\n        /* \"#utility.yul\":4069:4083   */\n      add\n        /* \"#utility.yul\":4055:4083   */\n      swap1\n      pop\n        /* \"#utility.yul\":3910:4089   */\n      swap3\n      swap2\n      pop\n      pop\n      jump\t// out\n        /* \"#utility.yul\":4095:4208   */\n    tag_193:\n        /* \"#utility.yul\":4165:4169   */\n      0x00\n        /* \"#utility.yul\":4197:4201   */\n      0x20\n        /* \"#utility.yul\":4192:4195   */\n      dup3\n        /* \"#utility.yul\":4188:4202   */\n      add\n        /* \"#utility.yul\":4180:4202   */\n      swap1\n      pop\n        /* \"#utility.yul\":4095:4208   */\n      swap2\n      swap1\n      pop\n      jump\t// out\n        /* \"#utility.yul\":4244:4956   */\n    tag_194:\n        /* \"#utility.yul\":4353:4356   */\n      0x00\n        /* \"#utility.yul\":4382:4436   */\n      tag_300\n        /* \"#utility.yul\":4430:4435   */\n      dup3\n        /* \"#utility.yul\":4382:4436   */\n      tag_188\n      jump\t// in\n    tag_300:\n        /* \"#utility.yul\":4452:4528   */\n      tag_301\n        /* \"#utility.yul\":4521:4527   */\n      dup2\n        /* \"#utility.yul\":4516:4519   */\n      dup6\n        /* \"#utility.yul\":4452:4528   */\n      tag_189\n      jump\t// in\n    tag_301:\n        /* \"#utility.yul\":4445:4528   */\n      swap4\n      pop\n        /* \"#utility.yul\":4552:4608   */\n      tag_302\n        /* \"#utility.yul\":4602:4607   */\n      dup4\n        /* \"#utility.yul\":4552:4608   */\n      tag_190\n      jump\t// in\n    tag_302:\n        /* \"#utility.yul\":4631:4638   */\n      dup1\n        /* \"#utility.yul\":4662:4663   */\n      0x00\n        /* \"#utility.yul\":4647:4931   */\n    tag_303:\n        /* \"#utility.yul\":4672:4678   */\n      dup4\n        /* \"#utility.yul\":4669:4670   */\n      dup2\n        /* \"#utility.yul\":4666:4679   */\n      lt\n        /* \"#utility.yul\":4647:4931   */\n      iszero\n      tag_305\n      jumpi\n        /* \"#utility.yul\":4748:4754   */\n      dup2\n        /* \"#utility.yul\":4742:4755   */\n      mload\n        /* \"#utility.yul\":4775:4838   */\n      tag_306\n        /* \"#utility.yul\":4834:4837   */\n      dup9\n        /* \"#utility.yul\":4819:4832   */\n      dup3\n        /* \"#utility.yul\":4775:4838   */\n      tag_192\n      jump\t// in\n    tag_306:\n        /* \"#utility.yul\":4768:4838   */\n      swap8\n      pop\n        /* \"#utility.yul\":4861:4921   */\n      tag_307\n        /* \"#utility.yul\":4914:4920   */\n      dup4\n        /* \"#utility.yul\":4861:4921   */\n      tag_193\n      jump\t// in\n    tag_307:\n        /* \"#utility.yul\":4851:4921   */\n      swap3\n      pop\n        /* \"#utility.yul\":4707:4931   */\n      pop\n        /* \"#utility.yul\":4694:4695   */\n      0x01\n        /* \"#utility.yul\":4691:4692   */\n      dup2\n        /* \"#utility.yul\":4687:4696   */\n      add\n        /* \"#utility.yul\":4682:4696   */\n      swap1\n      pop\n        /* \"#utility.yul\":4647:4931   */\n      jump(tag_303)\n    tag_305:\n        /* \"#utility.yul\":4651:4665   */\n      pop\n        /* \"#utility.yul\":4947:4950   */\n      dup6\n        /* \"#utility.yul\":4940:4950   */\n      swap4\n      pop\n        /* \"#utility.yul\":4358:4956   */\n      pop\n      pop\n      pop\n        /* \"#utility.yul\":4244:4956   */\n      swap3\n      swap2\n      pop\n      pop\n      jump\t// out\n        /* \"#utility.yul\":5030:6497   */\n    tag_195:\n        /* \"#utility.yul\":5153:5156   */\n      0x00\n        /* \"#utility.yul\":5189:5193   */\n      0xa0\n        /* \"#utility.yul\":5184:5187   */\n      dup4\n        /* \"#utility.yul\":5180:5194   */\n      add\n        /* \"#utility.yul\":5277:5281   */\n      0x00\n        /* \"#utility.yul\":5270:5275   */\n      dup4\n        /* \"#utility.yul\":5266:5282   */\n      add\n        /* \"#utility.yul\":5260:5283   */\n      mload\n        /* \"#utility.yul\":5330:5333   */\n      dup5\n        /* \"#utility.yul\":5324:5328   */\n      dup3\n        /* \"#utility.yul\":5320:5334   */\n      sub\n        /* \"#utility.yul\":5313:5317   */\n      0x00\n        /* \"#utility.yul\":5308:5311   */\n      dup7\n        /* \"#utility.yul\":5304:5318   */\n      add\n        /* \"#utility.yul\":5297:5335   */\n      mstore\n        /* \"#utility.yul\":5356:5429   */\n      tag_309\n        /* \"#utility.yul\":5424:5428   */\n      dup3\n        /* \"#utility.yul\":5410:5422   */\n      dup3\n        /* \"#utility.yul\":5356:5429   */\n      tag_187\n      jump\t// in\n    tag_309:\n        /* \"#utility.yul\":5348:5429   */\n      swap2\n      pop\n        /* \"#utility.yul\":5204:5440   */\n      pop\n        /* \"#utility.yul\":5529:5533   */\n      0x20\n        /* \"#utility.yul\":5522:5527   */\n      dup4\n        /* \"#utility.yul\":5518:5534   */\n      add\n        /* \"#utility.yul\":5512:5535   */\n      mload\n        /* \"#utility.yul\":5582:5585   */\n      dup5\n        /* \"#utility.yul\":5576:5580   */\n      dup3\n        /* \"#utility.yul\":5572:5586   */\n      sub\n        /* \"#utility.yul\":5565:5569   */\n      0x20\n        /* \"#utility.yul\":5560:5563   */\n      dup7\n        /* \"#utility.yul\":5556:5570   */\n      add\n        /* \"#utility.yul\":5549:5587   */\n      mstore\n        /* \"#utility.yul\":5608:5681   */\n      tag_310\n        /* \"#utility.yul\":5676:5680   */\n      dup3\n        /* \"#utility.yul\":5662:5674   */\n      dup3\n        /* \"#utility.yul\":5608:5681   */\n      tag_187\n      jump\t// in\n    tag_310:\n        /* \"#utility.yul\":5600:5681   */\n      swap2\n      pop\n        /* \"#utility.yul\":5450:5692   */\n      pop\n        /* \"#utility.yul\":5776:5780   */\n      0x40\n        /* \"#utility.yul\":5769:5774   */\n      dup4\n        /* \"#utility.yul\":5765:5781   */\n      add\n        /* \"#utility.yul\":5759:5782   */\n      mload\n        /* \"#utility.yul\":5829:5832   */\n      dup5\n        /* \"#utility.yul\":5823:5827   */\n      dup3\n        /* \"#utility.yul\":5819:5833   */\n      sub\n        /* \"#utility.yul\":5812:5816   */\n      0x40\n        /* \"#utility.yul\":5807:5810   */\n      dup7\n        /* \"#utility.yul\":5803:5817   */\n      add\n        /* \"#utility.yul\":5796:5834   */\n      mstore\n        /* \"#utility.yul\":5855:5928   */\n      tag_311\n        /* \"#utility.yul\":5923:5927   */\n      dup3\n        /* \"#utility.yul\":5909:5921   */\n      dup3\n        /* \"#utility.yul\":5855:5928   */\n      tag_187\n      jump\t// in\n    tag_311:\n        /* \"#utility.yul\":5847:5928   */\n      swap2\n      pop\n        /* \"#utility.yul\":5702:5939   */\n      pop\n        /* \"#utility.yul\":6026:6030   */\n      0x60\n        /* \"#utility.yul\":6019:6024   */\n      dup4\n        /* \"#utility.yul\":6015:6031   */\n      add\n        /* \"#utility.yul\":6009:6032   */\n      mload\n        /* \"#utility.yul\":6079:6082   */\n      dup5\n        /* \"#utility.yul\":6073:6077   */\n      dup3\n        /* \"#utility.yul\":6069:6083   */\n      sub\n        /* \"#utility.yul\":6062:6066   */\n      0x60\n        /* \"#utility.yul\":6057:6060   */\n      dup7\n        /* \"#utility.yul\":6053:6067   */\n      add\n        /* \"#utility.yul\":6046:6084   */\n      mstore\n        /* \"#utility.yul\":6105:6178   */\n      tag_312\n        /* \"#utility.yul\":6173:6177   */\n      dup3\n        /* \"#utility.yul\":6159:6171   */\n      dup3\n        /* \"#utility.yul\":6105:6178   */\n      tag_187\n      jump\t// in\n    tag_312:\n        /* \"#utility.yul\":6097:6178   */\n      swap2\n      pop\n        /* \"#utility.yul\":5949:6189   */\n      pop\n        /* \"#utility.yul\":6277:6281   */\n      0x80\n        /* \"#utility.yul\":6270:6275   */\n      dup4\n        /* \"#utility.yul\":6266:6282   */\n      add\n        /* \"#utility.yul\":6260:6283   */\n      mload\n        /* \"#utility.yul\":6330:6333   */\n      dup5\n        /* \"#utility.yul\":6324:6328   */\n      dup3\n        /* \"#utility.yul\":6320:6334   */\n      sub\n        /* \"#utility.yul\":6313:6317   */\n      0x80\n        /* \"#utility.yul\":6308:6311   */\n      dup7\n        /* \"#utility.yul\":6304:6318   */\n      add\n        /* \"#utility.yul\":6297:6335   */\n      mstore\n        /* \"#utility.yul\":6356:6459   */\n      tag_313\n        /* \"#utility.yul\":6454:6458   */\n      dup3\n        /* \"#utility.yul\":6440:6452   */\n      dup3\n        /* \"#utility.yul\":6356:6459   */\n      tag_194\n      jump\t// in\n    tag_313:\n        /* \"#utility.yul\":6348:6459   */\n      swap2\n      pop\n        /* \"#utility.yul\":6199:6470   */\n      pop\n        /* \"#utility.yul\":6487:6491   */\n      dup1\n        /* \"#utility.yul\":6480:6491   */\n      swap2\n      pop\n        /* \"#utility.yul\":5158:6497   */\n      pop\n        /* \"#utility.yul\":5030:6497   */\n      swap3\n      swap2\n      pop\n      pop\n      jump\t// out\n        /* \"#utility.yul\":6503:6884   */\n    tag_22:\n        /* \"#utility.yul\":6650:6654   */\n      0x00\n        /* \"#utility.yul\":6688:6690   */\n      0x20\n        /* \"#utility.yul\":6677:6686   */\n      dup3\n        /* \"#utility.yul\":6673:6691   */\n      add\n        /* \"#utility.yul\":6665:6691   */\n      swap1\n      pop\n        /* \"#utility.yul\":6737:6746   */\n      dup2\n        /* \"#utility.yul\":6731:6735   */\n      dup2\n        /* \"#utility.yul\":6727:6747   */\n      sub\n        /* \"#utility.yul\":6723:6724   */\n      0x00\n        /* \"#utility.yul\":6712:6721   */\n      dup4\n        /* \"#utility.yul\":6708:6725   */\n      add\n        /* \"#utility.yul\":6701:6748   */\n      mstore\n        /* \"#utility.yul\":6765:6877   */\n      tag_315\n        /* \"#utility.yul\":6872:6876   */\n      dup2\n        /* \"#utility.yul\":6863:6869   */\n      dup5\n        /* \"#utility.yul\":6765:6877   */\n      tag_195\n      jump\t// in\n    tag_315:\n        /* \"#utility.yul\":6757:6877   */\n      swap1\n      pop\n        /* \"#utility.yul\":6503:6884   */\n      swap3\n      swap2\n      pop\n      pop\n      jump\t// out\n        /* \"#utility.yul\":6890:7007   */\n    tag_196:\n        /* \"#utility.yul\":6999:7000   */\n      0x00\n        /* \"#utility.yul\":6996:6997   */\n      dup1\n        /* \"#utility.yul\":6989:7001   */\n      revert\n        /* \"#utility.yul\":7013:7130   */\n    tag_197:\n        /* \"#utility.yul\":7122:7123   */\n      0x00\n        /* \"#utility.yul\":7119:7120   */\n      dup1\n        /* \"#utility.yul\":7112:7124   */\n      revert\n        /* \"#utility.yul\":7136:7316   */\n    tag_95:\n        /* \"#utility.yul\":7184:7261   */\n      0x4e487b7100000000000000000000000000000000000000000000000000000000\n        /* \"#utility.yul\":7181:7182   */\n      0x00\n        /* \"#utility.yul\":7174:7262   */\n      mstore\n        /* \"#utility.yul\":7281:7285   */\n      0x41\n        /* \"#utility.yul\":7278:7279   */\n      0x04\n        /* \"#utility.yul\":7271:7286   */\n      mstore\n        /* \"#utility.yul\":7305:7309   */\n      0x24\n        /* \"#utility.yul\":7302:7303   */\n      0x00\n        /* \"#utility.yul\":7295:7310   */\n      revert\n        /* \"#utility.yul\":7322:7603   */\n    tag_198:\n        /* \"#utility.yul\":7405:7432   */\n      tag_320\n        /* \"#utility.yul\":7427:7431   */\n      dup3\n        /* \"#utility.yul\":7405:7432   */\n      tag_186\n      jump\t// in\n    tag_320:\n        /* \"#utility.yul\":7397:7403   */\n      dup2\n        /* \"#utility.yul\":7393:7433   */\n      add\n        /* \"#utility.yul\":7535:7541   */\n      dup2\n        /* \"#utility.yul\":7523:7533   */\n      dup2\n        /* \"#utility.yul\":7520:7542   */\n      lt\n        /* \"#utility.yul\":7499:7517   */\n      0xffffffffffffffff\n        /* \"#utility.yul\":7487:7497   */\n      dup3\n        /* \"#utility.yul\":7484:7518   */\n      gt\n        /* \"#utility.yul\":7481:7543   */\n      or\n        /* \"#utility.yul\":7478:7566   */\n      iszero\n      tag_321\n      jumpi\n        /* \"#utility.yul\":7546:7564   */\n      tag_322\n      tag_95\n      jump\t// in\n    tag_322:\n        /* \"#utility.yul\":7478:7566   */\n    tag_321:\n        /* \"#utility.yul\":7586:7596   */\n      dup1\n        /* \"#utility.yul\":7582:7584   */\n      0x40\n        /* \"#utility.yul\":7575:7597   */\n      mstore\n        /* \"#utility.yul\":7365:7603   */\n      pop\n        /* \"#utility.yul\":7322:7603   */\n      pop\n      pop\n      jump\t// out\n        /* \"#utility.yul\":7609:7738   */\n    tag_199:\n        /* \"#utility.yul\":7643:7649   */\n      0x00\n        /* \"#utility.yul\":7670:7690   */\n      tag_324\n      tag_170\n      jump\t// in\n    tag_324:\n        /* \"#utility.yul\":7660:7690   */\n      swap1\n      pop\n        /* \"#utility.yul\":7699:7732   */\n      tag_325\n        /* \"#utility.yul\":7727:7731   */\n      dup3\n        /* \"#utility.yul\":7719:7725   */\n      dup3\n        /* \"#utility.yul\":7699:7732   */\n      tag_198\n      jump\t// in\n    tag_325:\n        /* \"#utility.yul\":7609:7738   */\n      swap2\n      swap1\n      pop\n      jump\t// out\n        /* \"#utility.yul\":7744:8052   */\n    tag_200:\n        /* \"#utility.yul\":7806:7810   */\n      0x00\n        /* \"#utility.yul\":7896:7914   */\n      0xffffffffffffffff\n        /* \"#utility.yul\":7888:7894   */\n      dup3\n        /* \"#utility.yul\":7885:7915   */\n      gt\n        /* \"#utility.yul\":7882:7938   */\n      iszero\n      tag_327\n      jumpi\n        /* \"#utility.yul\":7918:7936   */\n      tag_328\n      tag_95\n      jump\t// in\n    tag_328:\n        /* \"#utility.yul\":7882:7938   */\n    tag_327:\n        /* \"#utility.yul\":7956:7985   */\n      tag_329\n        /* \"#utility.yul\":7978:7984   */\n      dup3\n        /* \"#utility.yul\":7956:7985   */\n      tag_186\n      jump\t// in\n    tag_329:\n        /* \"#utility.yul\":7948:7985   */\n      swap1\n      pop\n        /* \"#utility.yul\":8040:8044   */\n      0x20\n        /* \"#utility.yul\":8034:8038   */\n      dup2\n        /* \"#utility.yul\":8030:8045   */\n      add\n        /* \"#utility.yul\":8022:8045   */\n      swap1\n      pop\n        /* \"#utility.yul\":7744:8052   */\n      swap2\n      swap1\n      pop\n      jump\t// out\n        /* \"#utility.yul\":8058:8204   */\n    tag_201:\n        /* \"#utility.yul\":8155:8161   */\n      dup3\n        /* \"#utility.yul\":8150:8153   */\n      dup2\n        /* \"#utility.yul\":8145:8148   */\n      dup4\n        /* \"#utility.yul\":8132:8162   */\n      calldatacopy\n        /* \"#utility.yul\":8196:8197   */\n      0x00\n        /* \"#utility.yul\":8187:8193   */\n      dup4\n        /* \"#utility.yul\":8182:8185   */\n      dup4\n        /* \"#utility.yul\":8178:8194   */\n      add\n        /* \"#utility.yul\":8171:8198   */\n      mstore\n        /* \"#utility.yul\":8058:8204   */\n      pop\n      pop\n      pop\n      jump\t// out\n        /* \"#utility.yul\":8210:8635   */\n    tag_202:\n        /* \"#utility.yul\":8288:8293   */\n      0x00\n        /* \"#utility.yul\":8313:8379   */\n      tag_332\n        /* \"#utility.yul\":8329:8378   */\n      tag_333\n        /* \"#utility.yul\":8371:8377   */\n      dup5\n        /* \"#utility.yul\":8329:8378   */\n      tag_200\n      jump\t// in\n    tag_333:\n        /* \"#utility.yul\":8313:8379   */\n      tag_199\n      jump\t// in\n    tag_332:\n        /* \"#utility.yul\":8304:8379   */\n      swap1\n      pop\n        /* \"#utility.yul\":8402:8408   */\n      dup3\n        /* \"#utility.yul\":8395:8400   */\n      dup2\n        /* \"#utility.yul\":8388:8409   */\n      mstore\n        /* \"#utility.yul\":8440:8444   */\n      0x20\n        /* \"#utility.yul\":8433:8438   */\n      dup2\n        /* \"#utility.yul\":8429:8445   */\n      add\n        /* \"#utility.yul\":8478:8481   */\n      dup5\n        /* \"#utility.yul\":8469:8475   */\n      dup5\n        /* \"#utility.yul\":8464:8467   */\n      dup5\n        /* \"#utility.yul\":8460:8476   */\n      add\n        /* \"#utility.yul\":8457:8482   */\n      gt\n        /* \"#utility.yul\":8454:8566   */\n      iszero\n      tag_334\n      jumpi\n        /* \"#utility.yul\":8485:8564   */\n      tag_335\n      tag_197\n      jump\t// in\n    tag_335:\n        /* \"#utility.yul\":8454:8566   */\n    tag_334:\n        /* \"#utility.yul\":8575:8629   */\n      tag_336\n        /* \"#utility.yul\":8622:8628   */\n      dup5\n        /* \"#utility.yul\":8617:8620   */\n      dup3\n        /* \"#utility.yul\":8612:8615   */\n      dup6\n        /* \"#utility.yul\":8575:8629   */\n      tag_201\n      jump\t// in\n    tag_336:\n        /* \"#utility.yul\":8294:8635   */\n      pop\n        /* \"#utility.yul\":8210:8635   */\n      swap4\n      swap3\n      pop\n      pop\n      pop\n      jump\t// out\n        /* \"#utility.yul\":8655:8995   */\n    tag_203:\n        /* \"#utility.yul\":8711:8716   */\n      0x00\n        /* \"#utility.yul\":8760:8763   */\n      dup3\n        /* \"#utility.yul\":8753:8757   */\n      0x1f\n        /* \"#utility.yul\":8745:8751   */\n      dup4\n        /* \"#utility.yul\":8741:8758   */\n      add\n        /* \"#utility.yul\":8737:8764   */\n      slt\n        /* \"#utility.yul\":8727:8849   */\n      tag_338\n      jumpi\n        /* \"#utility.yul\":8768:8847   */\n      tag_339\n      tag_196\n      jump\t// in\n    tag_339:\n        /* \"#utility.yul\":8727:8849   */\n    tag_338:\n        /* \"#utility.yul\":8885:8891   */\n      dup2\n        /* \"#utility.yul\":8872:8892   */\n      calldataload\n        /* \"#utility.yul\":8910:8989   */\n      tag_340\n        /* \"#utility.yul\":8985:8988   */\n      dup5\n        /* \"#utility.yul\":8977:8983   */\n      dup3\n        /* \"#utility.yul\":8970:8974   */\n      0x20\n        /* \"#utility.yul\":8962:8968   */\n      dup7\n        /* \"#utility.yul\":8958:8975   */\n      add\n        /* \"#utility.yul\":8910:8989   */\n      tag_202\n      jump\t// in\n    tag_340:\n        /* \"#utility.yul\":8901:8989   */\n      swap2\n      pop\n        /* \"#utility.yul\":8717:8995   */\n      pop\n        /* \"#utility.yul\":8655:8995   */\n      swap3\n      swap2\n      pop\n      pop\n      jump\t// out\n        /* \"#utility.yul\":9001:10632   */\n    tag_25:\n        /* \"#utility.yul\":9136:9142   */\n      0x00\n        /* \"#utility.yul\":9144:9150   */\n      dup1\n        /* \"#utility.yul\":9152:9158   */\n      0x00\n        /* \"#utility.yul\":9160:9166   */\n      dup1\n        /* \"#utility.yul\":9168:9174   */\n      0x00\n        /* \"#utility.yul\":9217:9220   */\n      0xa0\n        /* \"#utility.yul\":9205:9214   */\n      dup7\n        /* \"#utility.yul\":9196:9203   */\n      dup9\n        /* \"#utility.yul\":9192:9215   */\n      sub\n        /* \"#utility.yul\":9188:9221   */\n      slt\n        /* \"#utility.yul\":9185:9305   */\n      iszero\n      tag_342\n      jumpi\n        /* \"#utility.yul\":9224:9303   */\n      tag_343\n      tag_171\n      jump\t// in\n    tag_343:\n        /* \"#utility.yul\":9185:9305   */\n    tag_342:\n        /* \"#utility.yul\":9344:9345   */\n      0x00\n        /* \"#utility.yul\":9369:9422   */\n      tag_344\n        /* \"#utility.yul\":9414:9421   */\n      dup9\n        /* \"#utility.yul\":9405:9411   */\n      dup3\n        /* \"#utility.yul\":9394:9403   */\n      dup10\n        /* \"#utility.yul\":9390:9412   */\n      add\n        /* \"#utility.yul\":9369:9422   */\n      tag_182\n      jump\t// in\n    tag_344:\n        /* \"#utility.yul\":9359:9422   */\n      swap6\n      pop\n        /* \"#utility.yul\":9315:9432   */\n      pop\n        /* \"#utility.yul\":9499:9501   */\n      0x20\n        /* \"#utility.yul\":9488:9497   */\n      dup7\n        /* \"#utility.yul\":9484:9502   */\n      add\n        /* \"#utility.yul\":9471:9503   */\n      calldataload\n        /* \"#utility.yul\":9530:9548   */\n      0xffffffffffffffff\n        /* \"#utility.yul\":9522:9528   */\n      dup2\n        /* \"#utility.yul\":9519:9549   */\n      gt\n        /* \"#utility.yul\":9516:9633   */\n      iszero\n      tag_345\n      jumpi\n        /* \"#utility.yul\":9552:9631   */\n      tag_346\n      tag_172\n      jump\t// in\n    tag_346:\n        /* \"#utility.yul\":9516:9633   */\n    tag_345:\n        /* \"#utility.yul\":9657:9720   */\n      tag_347\n        /* \"#utility.yul\":9712:9719   */\n      dup9\n        /* \"#utility.yul\":9703:9709   */\n      dup3\n        /* \"#utility.yul\":9692:9701   */\n      dup10\n        /* \"#utility.yul\":9688:9710   */\n      add\n        /* \"#utility.yul\":9657:9720   */\n      tag_203\n      jump\t// in\n    tag_347:\n        /* \"#utility.yul\":9647:9720   */\n      swap5\n      pop\n        /* \"#utility.yul\":9442:9730   */\n      pop\n        /* \"#utility.yul\":9797:9799   */\n      0x40\n        /* \"#utility.yul\":9786:9795   */\n      dup7\n        /* \"#utility.yul\":9782:9800   */\n      add\n        /* \"#utility.yul\":9769:9801   */\n      calldataload\n        /* \"#utility.yul\":9828:9846   */\n      0xffffffffffffffff\n        /* \"#utility.yul\":9820:9826   */\n      dup2\n        /* \"#utility.yul\":9817:9847   */\n      gt\n        /* \"#utility.yul\":9814:9931   */\n      iszero\n      tag_348\n      jumpi\n        /* \"#utility.yul\":9850:9929   */\n      tag_349\n      tag_172\n      jump\t// in\n    tag_349:\n        /* \"#utility.yul\":9814:9931   */\n    tag_348:\n        /* \"#utility.yul\":9955:10018   */\n      tag_350\n        /* \"#utility.yul\":10010:10017   */\n      dup9\n        /* \"#utility.yul\":10001:10007   */\n      dup3\n        /* \"#utility.yul\":9990:9999   */\n      dup10\n        /* \"#utility.yul\":9986:10008   */\n      add\n        /* \"#utility.yul\":9955:10018   */\n      tag_203\n      jump\t// in\n    tag_350:\n        /* \"#utility.yul\":9945:10018   */\n      swap4\n      pop\n        /* \"#utility.yul\":9740:10028   */\n      pop\n        /* \"#utility.yul\":10095:10097   */\n      0x60\n        /* \"#utility.yul\":10084:10093   */\n      dup7\n        /* \"#utility.yul\":10080:10098   */\n      add\n        /* \"#utility.yul\":10067:10099   */\n      calldataload\n        /* \"#utility.yul\":10126:10144   */\n      0xffffffffffffffff\n        /* \"#utility.yul\":10118:10124   */\n      dup2\n        /* \"#utility.yul\":10115:10145   */\n      gt\n        /* \"#utility.yul\":10112:10229   */\n      iszero\n      tag_351\n      jumpi\n        /* \"#utility.yul\":10148:10227   */\n      tag_352\n      tag_172\n      jump\t// in\n    tag_352:\n        /* \"#utility.yul\":10112:10229   */\n    tag_351:\n        /* \"#utility.yul\":10253:10316   */\n      tag_353\n        /* \"#utility.yul\":10308:10315   */\n      dup9\n        /* \"#utility.yul\":10299:10305   */\n      dup3\n        /* \"#utility.yul\":10288:10297   */\n      dup10\n        /* \"#utility.yul\":10284:10306   */\n      add\n        /* \"#utility.yul\":10253:10316   */\n      tag_203\n      jump\t// in\n    tag_353:\n        /* \"#utility.yul\":10243:10316   */\n      swap3\n      pop\n        /* \"#utility.yul\":10038:10326   */\n      pop\n        /* \"#utility.yul\":10393:10396   */\n      0x80\n        /* \"#utility.yul\":10382:10391   */\n      dup7\n        /* \"#utility.yul\":10378:10397   */\n      add\n        /* \"#utility.yul\":10365:10398   */\n      calldataload\n        /* \"#utility.yul\":10425:10443   */\n      0xffffffffffffffff\n        /* \"#utility.yul\":10417:10423   */\n      dup2\n        /* \"#utility.yul\":10414:10444   */\n      gt\n        /* \"#utility.yul\":10411:10528   */\n      iszero\n      tag_354\n      jumpi\n        /* \"#utility.yul\":10447:10526   */\n      tag_355\n      tag_172\n      jump\t// in\n    tag_355:\n        /* \"#utility.yul\":10411:10528   */\n    tag_354:\n        /* \"#utility.yul\":10552:10615   */\n      tag_356\n        /* \"#utility.yul\":10607:10614   */\n      dup9\n        /* \"#utility.yul\":10598:10604   */\n      dup3\n        /* \"#utility.yul\":10587:10596   */\n      dup10\n        /* \"#utility.yul\":10583:10605   */\n      add\n        /* \"#utility.yul\":10552:10615   */\n      tag_203\n      jump\t// in\n    tag_356:\n        /* \"#utility.yul\":10542:10615   */\n      swap2\n      pop\n        /* \"#utility.yul\":10336:10625   */\n      pop\n        /* \"#utility.yul\":9001:10632   */\n      swap3\n      swap6\n      pop\n      swap3\n      swap6\n      swap1\n      swap4\n      pop\n      jump\t// out\n        /* \"#utility.yul\":10638:10747   */\n    tag_204:\n        /* \"#utility.yul\":10721:10722   */\n      0x03\n        /* \"#utility.yul\":10714:10719   */\n      dup2\n        /* \"#utility.yul\":10711:10723   */\n      lt\n        /* \"#utility.yul\":10701:10741   */\n      tag_358\n      jumpi\n        /* \"#utility.yul\":10737:10738   */\n      0x00\n        /* \"#utility.yul\":10734:10735   */\n      dup1\n        /* \"#utility.yul\":10727:10739   */\n      revert\n        /* \"#utility.yul\":10701:10741   */\n    tag_358:\n        /* \"#utility.yul\":10638:10747   */\n      pop\n      jump\t// out\n        /* \"#utility.yul\":10753:10912   */\n    tag_205:\n        /* \"#utility.yul\":10809:10814   */\n      0x00\n        /* \"#utility.yul\":10847:10853   */\n      dup2\n        /* \"#utility.yul\":10834:10854   */\n      calldataload\n        /* \"#utility.yul\":10825:10854   */\n      swap1\n      pop\n        /* \"#utility.yul\":10863:10906   */\n      tag_360\n        /* \"#utility.yul\":10900:10905   */\n      dup2\n        /* \"#utility.yul\":10863:10906   */\n      tag_204\n      jump\t// in\n    tag_360:\n        /* \"#utility.yul\":10753:10912   */\n      swap3\n      swap2\n      pop\n      pop\n      jump\t// out\n        /* \"#utility.yul\":10918:13003   */\n    tag_29:\n        /* \"#utility.yul\":11088:11094   */\n      0x00\n        /* \"#utility.yul\":11096:11102   */\n      dup1\n        /* \"#utility.yul\":11104:11110   */\n      0x00\n        /* \"#utility.yul\":11112:11118   */\n      dup1\n        /* \"#utility.yul\":11120:11126   */\n      0x00\n        /* \"#utility.yul\":11128:11134   */\n      dup1\n        /* \"#utility.yul\":11136:11142   */\n      0x00\n        /* \"#utility.yul\":11144:11150   */\n      dup1\n        /* \"#utility.yul\":11193:11196   */\n      0x0100\n        /* \"#utility.yul\":11181:11190   */\n      dup10\n        /* \"#utility.yul\":11172:11179   */\n      dup12\n        /* \"#utility.yul\":11168:11191   */\n      sub\n        /* \"#utility.yul\":11164:11197   */\n      slt\n        /* \"#utility.yul\":11161:11281   */\n      iszero\n      tag_362\n      jumpi\n        /* \"#utility.yul\":11200:11279   */\n      tag_363\n      tag_171\n      jump\t// in\n    tag_363:\n        /* \"#utility.yul\":11161:11281   */\n    tag_362:\n        /* \"#utility.yul\":11320:11321   */\n      0x00\n        /* \"#utility.yul\":11345:11398   */\n      tag_364\n        /* \"#utility.yul\":11390:11397   */\n      dup12\n        /* \"#utility.yul\":11381:11387   */\n      dup3\n        /* \"#utility.yul\":11370:11379   */\n      dup13\n        /* \"#utility.yul\":11366:11388   */\n      add\n        /* \"#utility.yul\":11345:11398   */\n      tag_176\n      jump\t// in\n    tag_364:\n        /* \"#utility.yul\":11335:11398   */\n      swap9\n      pop\n        /* \"#utility.yul\":11291:11408   */\n      pop\n        /* \"#utility.yul\":11475:11477   */\n      0x20\n        /* \"#utility.yul\":11464:11473   */\n      dup10\n        /* \"#utility.yul\":11460:11478   */\n      add\n        /* \"#utility.yul\":11447:11479   */\n      calldataload\n        /* \"#utility.yul\":11506:11524   */\n      0xffffffffffffffff\n        /* \"#utility.yul\":11498:11504   */\n      dup2\n        /* \"#utility.yul\":11495:11525   */\n      gt\n        /* \"#utility.yul\":11492:11609   */\n      iszero\n      tag_365\n      jumpi\n        /* \"#utility.yul\":11528:11607   */\n      tag_366\n      tag_172\n      jump\t// in\n    tag_366:\n        /* \"#utility.yul\":11492:11609   */\n    tag_365:\n        /* \"#utility.yul\":11633:11696   */\n      tag_367\n        /* \"#utility.yul\":11688:11695   */\n      dup12\n        /* \"#utility.yul\":11679:11685   */\n      dup3\n        /* \"#utility.yul\":11668:11677   */\n      dup13\n        /* \"#utility.yul\":11664:11686   */\n      add\n        /* \"#utility.yul\":11633:11696   */\n      tag_203\n      jump\t// in\n    tag_367:\n        /* \"#utility.yul\":11623:11696   */\n      swap8\n      pop\n        /* \"#utility.yul\":11418:11706   */\n      pop\n        /* \"#utility.yul\":11745:11747   */\n      0x40\n        /* \"#utility.yul\":11771:11824   */\n      tag_368\n        /* \"#utility.yul\":11816:11823   */\n      dup12\n        /* \"#utility.yul\":11807:11813   */\n      dup3\n        /* \"#utility.yul\":11796:11805   */\n      dup13\n        /* \"#utility.yul\":11792:11814   */\n      add\n        /* \"#utility.yul\":11771:11824   */\n      tag_182\n      jump\t// in\n    tag_368:\n        /* \"#utility.yul\":11761:11824   */\n      swap7\n      pop\n        /* \"#utility.yul\":11716:11834   */\n      pop\n        /* \"#utility.yul\":11901:11903   */\n      0x60\n        /* \"#utility.yul\":11890:11899   */\n      dup10\n        /* \"#utility.yul\":11886:11904   */\n      add\n        /* \"#utility.yul\":11873:11905   */\n      calldataload\n        /* \"#utility.yul\":11932:11950   */\n      0xffffffffffffffff\n        /* \"#utility.yul\":11924:11930   */\n      dup2\n        /* \"#utility.yul\":11921:11951   */\n      gt\n        /* \"#utility.yul\":11918:12035   */\n      iszero\n      tag_369\n      jumpi\n        /* \"#utility.yul\":11954:12033   */\n      tag_370\n      tag_172\n      jump\t// in\n    tag_370:\n        /* \"#utility.yul\":11918:12035   */\n    tag_369:\n        /* \"#utility.yul\":12059:12122   */\n      tag_371\n        /* \"#utility.yul\":12114:12121   */\n      dup12\n        /* \"#utility.yul\":12105:12111   */\n      dup3\n        /* \"#utility.yul\":12094:12103   */\n      dup13\n        /* \"#utility.yul\":12090:12112   */\n      add\n        /* \"#utility.yul\":12059:12122   */\n      tag_203\n      jump\t// in\n    tag_371:\n        /* \"#utility.yul\":12049:12122   */\n      swap6\n      pop\n        /* \"#utility.yul\":11844:12132   */\n      pop\n        /* \"#utility.yul\":12171:12174   */\n      0x80\n        /* \"#utility.yul\":12198:12249   */\n      tag_372\n        /* \"#utility.yul\":12241:12248   */\n      dup12\n        /* \"#utility.yul\":12232:12238   */\n      dup3\n        /* \"#utility.yul\":12221:12230   */\n      dup13\n        /* \"#utility.yul\":12217:12239   */\n      add\n        /* \"#utility.yul\":12198:12249   */\n      tag_179\n      jump\t// in\n    tag_372:\n        /* \"#utility.yul\":12188:12249   */\n      swap5\n      pop\n        /* \"#utility.yul\":12142:12259   */\n      pop\n        /* \"#utility.yul\":12326:12329   */\n      0xa0\n        /* \"#utility.yul\":12315:12324   */\n      dup10\n        /* \"#utility.yul\":12311:12330   */\n      add\n        /* \"#utility.yul\":12298:12331   */\n      calldataload\n        /* \"#utility.yul\":12358:12376   */\n      0xffffffffffffffff\n        /* \"#utility.yul\":12350:12356   */\n      dup2\n        /* \"#utility.yul\":12347:12377   */\n      gt\n        /* \"#utility.yul\":12344:12461   */\n      iszero\n      tag_373\n      jumpi\n        /* \"#utility.yul\":12380:12459   */\n      tag_374\n      tag_172\n      jump\t// in\n    tag_374:\n        /* \"#utility.yul\":12344:12461   */\n    tag_373:\n        /* \"#utility.yul\":12485:12548   */\n      tag_375\n        /* \"#utility.yul\":12540:12547   */\n      dup12\n        /* \"#utility.yul\":12531:12537   */\n      dup3\n        /* \"#utility.yul\":12520:12529   */\n      dup13\n        /* \"#utility.yul\":12516:12538   */\n      add\n        /* \"#utility.yul\":12485:12548   */\n      tag_203\n      jump\t// in\n    tag_375:\n        /* \"#utility.yul\":12475:12548   */\n      swap4\n      pop\n        /* \"#utility.yul\":12269:12558   */\n      pop\n        /* \"#utility.yul\":12625:12628   */\n      0xc0\n        /* \"#utility.yul\":12614:12623   */\n      dup10\n        /* \"#utility.yul\":12610:12629   */\n      add\n        /* \"#utility.yul\":12597:12630   */\n      calldataload\n        /* \"#utility.yul\":12657:12675   */\n      0xffffffffffffffff\n        /* \"#utility.yul\":12649:12655   */\n      dup2\n        /* \"#utility.yul\":12646:12676   */\n      gt\n        /* \"#utility.yul\":12643:12760   */\n      iszero\n      tag_376\n      jumpi\n        /* \"#utility.yul\":12679:12758   */\n      tag_377\n      tag_172\n      jump\t// in\n    tag_377:\n        /* \"#utility.yul\":12643:12760   */\n    tag_376:\n        /* \"#utility.yul\":12784:12847   */\n      tag_378\n        /* \"#utility.yul\":12839:12846   */\n      dup12\n        /* \"#utility.yul\":12830:12836   */\n      dup3\n        /* \"#utility.yul\":12819:12828   */\n      dup13\n        /* \"#utility.yul\":12815:12837   */\n      add\n        /* \"#utility.yul\":12784:12847   */\n      tag_203\n      jump\t// in\n    tag_378:\n        /* \"#utility.yul\":12774:12847   */\n      swap3\n      pop\n        /* \"#utility.yul\":12568:12857   */\n      pop\n        /* \"#utility.yul\":12896:12899   */\n      0xe0\n        /* \"#utility.yul\":12923:12986   */\n      tag_379\n        /* \"#utility.yul\":12978:12985   */\n      dup12\n        /* \"#utility.yul\":12969:12975   */\n      dup3\n        /* \"#utility.yul\":12958:12967   */\n      dup13\n        /* \"#utility.yul\":12954:12976   */\n      add\n        /* \"#utility.yul\":12923:12986   */\n      tag_205\n      jump\t// in\n    tag_379:\n        /* \"#utility.yul\":12913:12986   */\n      swap2\n      pop\n        /* \"#utility.yul\":12867:12996   */\n      pop\n        /* \"#utility.yul\":10918:13003   */\n      swap3\n      swap6\n      swap9\n      pop\n      swap3\n      swap6\n      swap9\n      swap1\n      swap4\n      swap7\n      pop\n      jump\t// out\n        /* \"#utility.yul\":13009:13338   */\n    tag_36:\n        /* \"#utility.yul\":13068:13074   */\n      0x00\n        /* \"#utility.yul\":13117:13119   */\n      0x20\n        /* \"#utility.yul\":13105:13114   */\n      dup3\n        /* \"#utility.yul\":13096:13103   */\n      dup5\n        /* \"#utility.yul\":13092:13115   */\n      sub\n        /* \"#utility.yul\":13088:13120   */\n      slt\n        /* \"#utility.yul\":13085:13204   */\n      iszero\n      tag_381\n      jumpi\n        /* \"#utility.yul\":13123:13202   */\n      tag_382\n      tag_171\n      jump\t// in\n    tag_382:\n        /* \"#utility.yul\":13085:13204   */\n    tag_381:\n        /* \"#utility.yul\":13243:13244   */\n      0x00\n        /* \"#utility.yul\":13268:13321   */\n      tag_383\n        /* \"#utility.yul\":13313:13320   */\n      dup5\n        /* \"#utility.yul\":13304:13310   */\n      dup3\n        /* \"#utility.yul\":13293:13302   */\n      dup6\n        /* \"#utility.yul\":13289:13311   */\n      add\n        /* \"#utility.yul\":13268:13321   */\n      tag_176\n      jump\t// in\n    tag_383:\n        /* \"#utility.yul\":13258:13321   */\n      swap2\n      pop\n        /* \"#utility.yul\":13214:13331   */\n      pop\n        /* \"#utility.yul\":13009:13338   */\n      swap3\n      swap2\n      pop\n      pop\n      jump\t// out\n        /* \"#utility.yul\":13344:13452   */\n    tag_206:\n        /* \"#utility.yul\":13421:13445   */\n      tag_385\n        /* \"#utility.yul\":13439:13444   */\n      dup2\n        /* \"#utility.yul\":13421:13445   */\n      tag_180\n      jump\t// in\n    tag_385:\n        /* \"#utility.yul\":13416:13419   */\n      dup3\n        /* \"#utility.yul\":13409:13446   */\n      mstore\n        /* \"#utility.yul\":13344:13452   */\n      pop\n      pop\n      jump\t// out\n        /* \"#utility.yul\":13458:13560   */\n    tag_207:\n        /* \"#utility.yul\":13531:13553   */\n      tag_387\n        /* \"#utility.yul\":13547:13552   */\n      dup2\n        /* \"#utility.yul\":13531:13553   */\n      tag_177\n      jump\t// in\n    tag_387:\n        /* \"#utility.yul\":13526:13529   */\n      dup3\n        /* \"#utility.yul\":13519:13554   */\n      mstore\n        /* \"#utility.yul\":13458:13560   */\n      pop\n      pop\n      jump\t// out\n        /* \"#utility.yul\":13566:13746   */\n    tag_111:\n        /* \"#utility.yul\":13614:13691   */\n      0x4e487b7100000000000000000000000000000000000000000000000000000000\n        /* \"#utility.yul\":13611:13612   */\n      0x00\n        /* \"#utility.yul\":13604:13692   */\n      mstore\n        /* \"#utility.yul\":13711:13715   */\n      0x21\n        /* \"#utility.yul\":13708:13709   */\n      0x04\n        /* \"#utility.yul\":13701:13716   */\n      mstore\n        /* \"#utility.yul\":13735:13739   */\n      0x24\n        /* \"#utility.yul\":13732:13733   */\n      0x00\n        /* \"#utility.yul\":13725:13740   */\n      revert\n        /* \"#utility.yul\":13752:13867   */\n    tag_208:\n        /* \"#utility.yul\":13835:13836   */\n      0x03\n        /* \"#utility.yul\":13828:13833   */\n      dup2\n        /* \"#utility.yul\":13825:13837   */\n      lt\n        /* \"#utility.yul\":13815:13861   */\n      tag_390\n      jumpi\n        /* \"#utility.yul\":13841:13859   */\n      tag_391\n      tag_111\n      jump\t// in\n    tag_391:\n        /* \"#utility.yul\":13815:13861   */\n    tag_390:\n        /* \"#utility.yul\":13752:13867   */\n      pop\n      jump\t// out\n        /* \"#utility.yul\":13873:14004   */\n    tag_209:\n        /* \"#utility.yul\":13920:13927   */\n      0x00\n        /* \"#utility.yul\":13949:13954   */\n      dup2\n        /* \"#utility.yul\":13938:13954   */\n      swap1\n      pop\n        /* \"#utility.yul\":13955:13998   */\n      tag_393\n        /* \"#utility.yul\":13992:13997   */\n      dup3\n        /* \"#utility.yul\":13955:13998   */\n      tag_208\n      jump\t// in\n    tag_393:\n        /* \"#utility.yul\":13873:14004   */\n      swap2\n      swap1\n      pop\n      jump\t// out\n        /* \"#utility.yul\":14010:14141   */\n    tag_210:\n        /* \"#utility.yul\":14068:14077   */\n      0x00\n        /* \"#utility.yul\":14101:14135   */\n      tag_395\n        /* \"#utility.yul\":14129:14134   */\n      dup3\n        /* \"#utility.yul\":14101:14135   */\n      tag_209\n      jump\t// in\n    tag_395:\n        /* \"#utility.yul\":14088:14135   */\n      swap1\n      pop\n        /* \"#utility.yul\":14010:14141   */\n      swap2\n      swap1\n      pop\n      jump\t// out\n        /* \"#utility.yul\":14147:14284   */\n    tag_211:\n        /* \"#utility.yul\":14232:14277   */\n      tag_397\n        /* \"#utility.yul\":14271:14276   */\n      dup2\n        /* \"#utility.yul\":14232:14277   */\n      tag_210\n      jump\t// in\n    tag_397:\n        /* \"#utility.yul\":14227:14230   */\n      dup3\n        /* \"#utility.yul\":14220:14278   */\n      mstore\n        /* \"#utility.yul\":14147:14284   */\n      pop\n      pop\n      jump\t// out\n        /* \"#utility.yul\":14370:16277   */\n    tag_212:\n        /* \"#utility.yul\":14505:14508   */\n      0x00\n        /* \"#utility.yul\":14541:14547   */\n      0x0100\n        /* \"#utility.yul\":14536:14539   */\n      dup4\n        /* \"#utility.yul\":14532:14548   */\n      add\n        /* \"#utility.yul\":14630:14634   */\n      0x00\n        /* \"#utility.yul\":14623:14628   */\n      dup4\n        /* \"#utility.yul\":14619:14635   */\n      add\n        /* \"#utility.yul\":14613:14636   */\n      mload\n        /* \"#utility.yul\":14683:14686   */\n      dup5\n        /* \"#utility.yul\":14677:14681   */\n      dup3\n        /* \"#utility.yul\":14673:14687   */\n      sub\n        /* \"#utility.yul\":14666:14670   */\n      0x00\n        /* \"#utility.yul\":14661:14664   */\n      dup7\n        /* \"#utility.yul\":14657:14671   */\n      add\n        /* \"#utility.yul\":14650:14688   */\n      mstore\n        /* \"#utility.yul\":14709:14782   */\n      tag_399\n        /* \"#utility.yul\":14777:14781   */\n      dup3\n        /* \"#utility.yul\":14763:14775   */\n      dup3\n        /* \"#utility.yul\":14709:14782   */\n      tag_187\n      jump\t// in\n    tag_399:\n        /* \"#utility.yul\":14701:14782   */\n      swap2\n      pop\n        /* \"#utility.yul\":14558:14793   */\n      pop\n        /* \"#utility.yul\":14876:14880   */\n      0x20\n        /* \"#utility.yul\":14869:14874   */\n      dup4\n        /* \"#utility.yul\":14865:14881   */\n      add\n        /* \"#utility.yul\":14859:14882   */\n      mload\n        /* \"#utility.yul\":14895:14958   */\n      tag_400\n        /* \"#utility.yul\":14952:14956   */\n      0x20\n        /* \"#utility.yul\":14947:14950   */\n      dup7\n        /* \"#utility.yul\":14943:14957   */\n      add\n        /* \"#utility.yul\":14929:14941   */\n      dup3\n        /* \"#utility.yul\":14895:14958   */\n      tag_206\n      jump\t// in\n    tag_400:\n        /* \"#utility.yul\":14803:14968   */\n      pop\n        /* \"#utility.yul\":15058:15062   */\n      0x40\n        /* \"#utility.yul\":15051:15056   */\n      dup4\n        /* \"#utility.yul\":15047:15063   */\n      add\n        /* \"#utility.yul\":15041:15064   */\n      mload\n        /* \"#utility.yul\":15111:15114   */\n      dup5\n        /* \"#utility.yul\":15105:15109   */\n      dup3\n        /* \"#utility.yul\":15101:15115   */\n      sub\n        /* \"#utility.yul\":15094:15098   */\n      0x40\n        /* \"#utility.yul\":15089:15092   */\n      dup7\n        /* \"#utility.yul\":15085:15099   */\n      add\n        /* \"#utility.yul\":15078:15116   */\n      mstore\n        /* \"#utility.yul\":15137:15210   */\n      tag_401\n        /* \"#utility.yul\":15205:15209   */\n      dup3\n        /* \"#utility.yul\":15191:15203   */\n      dup3\n        /* \"#utility.yul\":15137:15210   */\n      tag_187\n      jump\t// in\n    tag_401:\n        /* \"#utility.yul\":15129:15210   */\n      swap2\n      pop\n        /* \"#utility.yul\":14978:15221   */\n      pop\n        /* \"#utility.yul\":15302:15306   */\n      0x60\n        /* \"#utility.yul\":15295:15300   */\n      dup4\n        /* \"#utility.yul\":15291:15307   */\n      add\n        /* \"#utility.yul\":15285:15308   */\n      mload\n        /* \"#utility.yul\":15321:15380   */\n      tag_402\n        /* \"#utility.yul\":15374:15378   */\n      0x60\n        /* \"#utility.yul\":15369:15372   */\n      dup7\n        /* \"#utility.yul\":15365:15379   */\n      add\n        /* \"#utility.yul\":15351:15363   */\n      dup3\n        /* \"#utility.yul\":15321:15380   */\n      tag_207\n      jump\t// in\n    tag_402:\n        /* \"#utility.yul\":15231:15390   */\n      pop\n        /* \"#utility.yul\":15474:15478   */\n      0x80\n        /* \"#utility.yul\":15467:15472   */\n      dup4\n        /* \"#utility.yul\":15463:15479   */\n      add\n        /* \"#utility.yul\":15457:15480   */\n      mload\n        /* \"#utility.yul\":15493:15552   */\n      tag_403\n        /* \"#utility.yul\":15546:15550   */\n      0x80\n        /* \"#utility.yul\":15541:15544   */\n      dup7\n        /* \"#utility.yul\":15537:15551   */\n      add\n        /* \"#utility.yul\":15523:15535   */\n      dup3\n        /* \"#utility.yul\":15493:15552   */\n      tag_207\n      jump\t// in\n    tag_403:\n        /* \"#utility.yul\":15400:15562   */\n      pop\n        /* \"#utility.yul\":15646:15650   */\n      0xa0\n        /* \"#utility.yul\":15639:15644   */\n      dup4\n        /* \"#utility.yul\":15635:15651   */\n      add\n        /* \"#utility.yul\":15629:15652   */\n      mload\n        /* \"#utility.yul\":15699:15702   */\n      dup5\n        /* \"#utility.yul\":15693:15697   */\n      dup3\n        /* \"#utility.yul\":15689:15703   */\n      sub\n        /* \"#utility.yul\":15682:15686   */\n      0xa0\n        /* \"#utility.yul\":15677:15680   */\n      dup7\n        /* \"#utility.yul\":15673:15687   */\n      add\n        /* \"#utility.yul\":15666:15704   */\n      mstore\n        /* \"#utility.yul\":15725:15798   */\n      tag_404\n        /* \"#utility.yul\":15793:15797   */\n      dup3\n        /* \"#utility.yul\":15779:15791   */\n      dup3\n        /* \"#utility.yul\":15725:15798   */\n      tag_187\n      jump\t// in\n    tag_404:\n        /* \"#utility.yul\":15717:15798   */\n      swap2\n      pop\n        /* \"#utility.yul\":15572:15809   */\n      pop\n        /* \"#utility.yul\":15895:15899   */\n      0xc0\n        /* \"#utility.yul\":15888:15893   */\n      dup4\n        /* \"#utility.yul\":15884:15900   */\n      add\n        /* \"#utility.yul\":15878:15901   */\n      mload\n        /* \"#utility.yul\":15948:15951   */\n      dup5\n        /* \"#utility.yul\":15942:15946   */\n      dup3\n        /* \"#utility.yul\":15938:15952   */\n      sub\n        /* \"#utility.yul\":15931:15935   */\n      0xc0\n        /* \"#utility.yul\":15926:15929   */\n      dup7\n        /* \"#utility.yul\":15922:15936   */\n      add\n        /* \"#utility.yul\":15915:15953   */\n      mstore\n        /* \"#utility.yul\":15974:16047   */\n      tag_405\n        /* \"#utility.yul\":16042:16046   */\n      dup3\n        /* \"#utility.yul\":16028:16040   */\n      dup3\n        /* \"#utility.yul\":15974:16047   */\n      tag_187\n      jump\t// in\n    tag_405:\n        /* \"#utility.yul\":15966:16047   */\n      swap2\n      pop\n        /* \"#utility.yul\":15819:16058   */\n      pop\n        /* \"#utility.yul\":16150:16154   */\n      0xe0\n        /* \"#utility.yul\":16143:16148   */\n      dup4\n        /* \"#utility.yul\":16139:16155   */\n      add\n        /* \"#utility.yul\":16133:16156   */\n      mload\n        /* \"#utility.yul\":16169:16240   */\n      tag_406\n        /* \"#utility.yul\":16234:16238   */\n      0xe0\n        /* \"#utility.yul\":16229:16232   */\n      dup7\n        /* \"#utility.yul\":16225:16239   */\n      add\n        /* \"#utility.yul\":16211:16223   */\n      dup3\n        /* \"#utility.yul\":16169:16240   */\n      tag_211\n      jump\t// in\n    tag_406:\n        /* \"#utility.yul\":16068:16250   */\n      pop\n        /* \"#utility.yul\":16267:16271   */\n      dup1\n        /* \"#utility.yul\":16260:16271   */\n      swap2\n      pop\n        /* \"#utility.yul\":14510:16277   */\n      pop\n        /* \"#utility.yul\":14370:16277   */\n      swap3\n      swap2\n      pop\n      pop\n      jump\t// out\n        /* \"#utility.yul\":16283:16688   */\n    tag_39:\n        /* \"#utility.yul\":16442:16446   */\n      0x00\n        /* \"#utility.yul\":16480:16482   */\n      0x20\n        /* \"#utility.yul\":16469:16478   */\n      dup3\n        /* \"#utility.yul\":16465:16483   */\n      add\n        /* \"#utility.yul\":16457:16483   */\n      swap1\n      pop\n        /* \"#utility.yul\":16529:16538   */\n      dup2\n        /* \"#utility.yul\":16523:16527   */\n      dup2\n        /* \"#utility.yul\":16519:16539   */\n      sub\n        /* \"#utility.yul\":16515:16516   */\n      0x00\n        /* \"#utility.yul\":16504:16513   */\n      dup4\n        /* \"#utility.yul\":16500:16517   */\n      add\n        /* \"#utility.yul\":16493:16540   */\n      mstore\n        /* \"#utility.yul\":16557:16681   */\n      tag_408\n        /* \"#utility.yul\":16676:16680   */\n      dup2\n        /* \"#utility.yul\":16667:16673   */\n      dup5\n        /* \"#utility.yul\":16557:16681   */\n      tag_212\n      jump\t// in\n    tag_408:\n        /* \"#utility.yul\":16549:16681   */\n      swap1\n      pop\n        /* \"#utility.yul\":16283:16688   */\n      swap3\n      swap2\n      pop\n      pop\n      jump\t// out\n        /* \"#utility.yul\":16694:16841   */\n    tag_213:\n        /* \"#utility.yul\":16789:16834   */\n      tag_410\n        /* \"#utility.yul\":16828:16833   */\n      dup2\n        /* \"#utility.yul\":16789:16834   */\n      tag_210\n      jump\t// in\n    tag_410:\n        /* \"#utility.yul\":16784:16787   */\n      dup3\n        /* \"#utility.yul\":16777:16835   */\n      mstore\n        /* \"#utility.yul\":16694:16841   */\n      pop\n      pop\n      jump\t// out\n        /* \"#utility.yul\":16847:17085   */\n    tag_44:\n        /* \"#utility.yul\":16948:16952   */\n      0x00\n        /* \"#utility.yul\":16986:16988   */\n      0x20\n        /* \"#utility.yul\":16975:16984   */\n      dup3\n        /* \"#utility.yul\":16971:16989   */\n      add\n        /* \"#utility.yul\":16963:16989   */\n      swap1\n      pop\n        /* \"#utility.yul\":16999:17078   */\n      tag_412\n        /* \"#utility.yul\":17075:17076   */\n      0x00\n        /* \"#utility.yul\":17064:17073   */\n      dup4\n        /* \"#utility.yul\":17060:17077   */\n      add\n        /* \"#utility.yul\":17051:17057   */\n      dup5\n        /* \"#utility.yul\":16999:17078   */\n      tag_213\n      jump\t// in\n    tag_412:\n        /* \"#utility.yul\":16847:17085   */\n      swap3\n      swap2\n      pop\n      pop\n      jump\t// out\n        /* \"#utility.yul\":17091:17565   */\n    tag_47:\n        /* \"#utility.yul\":17159:17165   */\n      0x00\n        /* \"#utility.yul\":17167:17173   */\n      dup1\n        /* \"#utility.yul\":17216:17218   */\n      0x40\n        /* \"#utility.yul\":17204:17213   */\n      dup4\n        /* \"#utility.yul\":17195:17202   */\n      dup6\n        /* \"#utility.yul\":17191:17214   */\n      sub\n        /* \"#utility.yul\":17187:17219   */\n      slt\n        /* \"#utility.yul\":17184:17303   */\n      iszero\n      tag_414\n      jumpi\n        /* \"#utility.yul\":17222:17301   */\n      tag_415\n      tag_171\n      jump\t// in\n    tag_415:\n        /* \"#utility.yul\":17184:17303   */\n    tag_414:\n        /* \"#utility.yul\":17342:17343   */\n      0x00\n        /* \"#utility.yul\":17367:17420   */\n      tag_416\n        /* \"#utility.yul\":17412:17419   */\n      dup6\n        /* \"#utility.yul\":17403:17409   */\n      dup3\n        /* \"#utility.yul\":17392:17401   */\n      dup7\n        /* \"#utility.yul\":17388:17410   */\n      add\n        /* \"#utility.yul\":17367:17420   */\n      tag_182\n      jump\t// in\n    tag_416:\n        /* \"#utility.yul\":17357:17420   */\n      swap3\n      pop\n        /* \"#utility.yul\":17313:17430   */\n      pop\n        /* \"#utility.yul\":17469:17471   */\n      0x20\n        /* \"#utility.yul\":17495:17548   */\n      tag_417\n        /* \"#utility.yul\":17540:17547   */\n      dup6\n        /* \"#utility.yul\":17531:17537   */\n      dup3\n        /* \"#utility.yul\":17520:17529   */\n      dup7\n        /* \"#utility.yul\":17516:17538   */\n      add\n        /* \"#utility.yul\":17495:17548   */\n      tag_176\n      jump\t// in\n    tag_417:\n        /* \"#utility.yul\":17485:17548   */\n      swap2\n      pop\n        /* \"#utility.yul\":17440:17558   */\n      pop\n        /* \"#utility.yul\":17091:17565   */\n      swap3\n      pop\n      swap3\n      swap1\n      pop\n      jump\t// out\n        /* \"#utility.yul\":17571:17661   */\n    tag_214:\n        /* \"#utility.yul\":17605:17612   */\n      0x00\n        /* \"#utility.yul\":17648:17653   */\n      dup2\n        /* \"#utility.yul\":17641:17654   */\n      iszero\n        /* \"#utility.yul\":17634:17655   */\n      iszero\n        /* \"#utility.yul\":17623:17655   */\n      swap1\n      pop\n        /* \"#utility.yul\":17571:17661   */\n      swap2\n      swap1\n      pop\n      jump\t// out\n        /* \"#utility.yul\":17667:17776   */\n    tag_215:\n        /* \"#utility.yul\":17748:17769   */\n      tag_420\n        /* \"#utility.yul\":17763:17768   */\n      dup2\n        /* \"#utility.yul\":17748:17769   */\n      tag_214\n      jump\t// in\n    tag_420:\n        /* \"#utility.yul\":17743:17746   */\n      dup3\n        /* \"#utility.yul\":17736:17770   */\n      mstore\n        /* \"#utility.yul\":17667:17776   */\n      pop\n      pop\n      jump\t// out\n        /* \"#utility.yul\":17782:17992   */\n    tag_50:\n        /* \"#utility.yul\":17869:17873   */\n      0x00\n        /* \"#utility.yul\":17907:17909   */\n      0x20\n        /* \"#utility.yul\":17896:17905   */\n      dup3\n        /* \"#utility.yul\":17892:17910   */\n      add\n        /* \"#utility.yul\":17884:17910   */\n      swap1\n      pop\n        /* \"#utility.yul\":17920:17985   */\n      tag_422\n        /* \"#utility.yul\":17982:17983   */\n      0x00\n        /* \"#utility.yul\":17971:17980   */\n      dup4\n        /* \"#utility.yul\":17967:17984   */\n      add\n        /* \"#utility.yul\":17958:17964   */\n      dup5\n        /* \"#utility.yul\":17920:17985   */\n      tag_215\n      jump\t// in\n    tag_422:\n        /* \"#utility.yul\":17782:17992   */\n      swap3\n      swap2\n      pop\n      pop\n      jump\t// out\n        /* \"#utility.yul\":17998:18110   */\n    tag_216:\n        /* \"#utility.yul\":18081:18103   */\n      tag_424\n        /* \"#utility.yul\":18097:18102   */\n      dup2\n        /* \"#utility.yul\":18081:18103   */\n      tag_177\n      jump\t// in\n    tag_424:\n        /* \"#utility.yul\":18076:18079   */\n      dup3\n        /* \"#utility.yul\":18069:18104   */\n      mstore\n        /* \"#utility.yul\":17998:18110   */\n      pop\n      pop\n      jump\t// out\n        /* \"#utility.yul\":18116:18330   */\n    tag_55:\n        /* \"#utility.yul\":18205:18209   */\n      0x00\n        /* \"#utility.yul\":18243:18245   */\n      0x20\n        /* \"#utility.yul\":18232:18241   */\n      dup3\n        /* \"#utility.yul\":18228:18246   */\n      add\n        /* \"#utility.yul\":18220:18246   */\n      swap1\n      pop\n        /* \"#utility.yul\":18256:18323   */\n      tag_426\n        /* \"#utility.yul\":18320:18321   */\n      0x00\n        /* \"#utility.yul\":18309:18318   */\n      dup4\n        /* \"#utility.yul\":18305:18322   */\n      add\n        /* \"#utility.yul\":18296:18302   */\n      dup5\n        /* \"#utility.yul\":18256:18323   */\n      tag_216\n      jump\t// in\n    tag_426:\n        /* \"#utility.yul\":18116:18330   */\n      swap3\n      swap2\n      pop\n      pop\n      jump\t// out\n        /* \"#utility.yul\":18336:18505   */\n    tag_217:\n        /* \"#utility.yul\":18420:18431   */\n      0x00\n        /* \"#utility.yul\":18454:18460   */\n      dup3\n        /* \"#utility.yul\":18449:18452   */\n      dup3\n        /* \"#utility.yul\":18442:18461   */\n      mstore\n        /* \"#utility.yul\":18494:18498   */\n      0x20\n        /* \"#utility.yul\":18489:18492   */\n      dup3\n        /* \"#utility.yul\":18485:18499   */\n      add\n        /* \"#utility.yul\":18470:18499   */\n      swap1\n      pop\n        /* \"#utility.yul\":18336:18505   */\n      swap3\n      swap2\n      pop\n      pop\n      jump\t// out\n        /* \"#utility.yul\":18511:18691   */\n    tag_218:\n        /* \"#utility.yul\":18651:18683   */\n      0x526174696e67206d757374206265206265747765656e203120616e6420350000\n        /* \"#utility.yul\":18647:18648   */\n      0x00\n        /* \"#utility.yul\":18639:18645   */\n      dup3\n        /* \"#utility.yul\":18635:18649   */\n      add\n        /* \"#utility.yul\":18628:18684   */\n      mstore\n        /* \"#utility.yul\":18511:18691   */\n      pop\n      jump\t// out\n        /* \"#utility.yul\":18697:19063   */\n    tag_219:\n        /* \"#utility.yul\":18839:18842   */\n      0x00\n        /* \"#utility.yul\":18860:18927   */\n      tag_430\n        /* \"#utility.yul\":18924:18926   */\n      0x1e\n        /* \"#utility.yul\":18919:18922   */\n      dup4\n        /* \"#utility.yul\":18860:18927   */\n      tag_217\n      jump\t// in\n    tag_430:\n        /* \"#utility.yul\":18853:18927   */\n      swap2\n      pop\n        /* \"#utility.yul\":18936:19029   */\n      tag_431\n        /* \"#utility.yul\":19025:19028   */\n      dup3\n        /* \"#utility.yul\":18936:19029   */\n      tag_218\n      jump\t// in\n    tag_431:\n        /* \"#utility.yul\":19054:19056   */\n      0x20\n        /* \"#utility.yul\":19049:19052   */\n      dup3\n        /* \"#utility.yul\":19045:19057   */\n      add\n        /* \"#utility.yul\":19038:19057   */\n      swap1\n      pop\n        /* \"#utility.yul\":18697:19063   */\n      swap2\n      swap1\n      pop\n      jump\t// out\n        /* \"#utility.yul\":19069:19488   */\n    tag_60:\n        /* \"#utility.yul\":19235:19239   */\n      0x00\n        /* \"#utility.yul\":19273:19275   */\n      0x20\n        /* \"#utility.yul\":19262:19271   */\n      dup3\n        /* \"#utility.yul\":19258:19276   */\n      add\n        /* \"#utility.yul\":19250:19276   */\n      swap1\n      pop\n        /* \"#utility.yul\":19322:19331   */\n      dup2\n        /* \"#utility.yul\":19316:19320   */\n      dup2\n        /* \"#utility.yul\":19312:19332   */\n      sub\n        /* \"#utility.yul\":19308:19309   */\n      0x00\n        /* \"#utility.yul\":19297:19306   */\n      dup4\n        /* \"#utility.yul\":19293:19310   */\n      add\n        /* \"#utility.yul\":19286:19333   */\n      mstore\n        /* \"#utility.yul\":19350:19481   */\n      tag_433\n        /* \"#utility.yul\":19476:19480   */\n      dup2\n        /* \"#utility.yul\":19350:19481   */\n      tag_219\n      jump\t// in\n    tag_433:\n        /* \"#utility.yul\":19342:19481   */\n      swap1\n      pop\n        /* \"#utility.yul\":19069:19488   */\n      swap2\n      swap1\n      pop\n      jump\t// out\n        /* \"#utility.yul\":19494:19674   */\n    tag_220:\n        /* \"#utility.yul\":19542:19619   */\n      0x4e487b7100000000000000000000000000000000000000000000000000000000\n        /* \"#utility.yul\":19539:19540   */\n      0x00\n        /* \"#utility.yul\":19532:19620   */\n      mstore\n        /* \"#utility.yul\":19639:19643   */\n      0x22\n        /* \"#utility.yul\":19636:19637   */\n      0x04\n        /* \"#utility.yul\":19629:19644   */\n      mstore\n        /* \"#utility.yul\":19663:19667   */\n      0x24\n        /* \"#utility.yul\":19660:19661   */\n      0x00\n        /* \"#utility.yul\":19653:19668   */\n      revert\n        /* \"#utility.yul\":19680:20000   */\n    tag_65:\n        /* \"#utility.yul\":19724:19730   */\n      0x00\n        /* \"#utility.yul\":19761:19762   */\n      0x02\n        /* \"#utility.yul\":19755:19759   */\n      dup3\n        /* \"#utility.yul\":19751:19763   */\n      div\n        /* \"#utility.yul\":19741:19763   */\n      swap1\n      pop\n        /* \"#utility.yul\":19808:19809   */\n      0x01\n        /* \"#utility.yul\":19802:19806   */\n      dup3\n        /* \"#utility.yul\":19798:19810   */\n      and\n        /* \"#utility.yul\":19829:19847   */\n      dup1\n        /* \"#utility.yul\":19819:19900   */\n      tag_436\n      jumpi\n        /* \"#utility.yul\":19885:19889   */\n      0x7f\n        /* \"#utility.yul\":19877:19883   */\n      dup3\n        /* \"#utility.yul\":19873:19890   */\n      and\n        /* \"#utility.yul\":19863:19890   */\n      swap2\n      pop\n        /* \"#utility.yul\":19819:19900   */\n    tag_436:\n        /* \"#utility.yul\":19947:19949   */\n      0x20\n        /* \"#utility.yul\":19939:19945   */\n      dup3\n        /* \"#utility.yul\":19936:19950   */\n      lt\n        /* \"#utility.yul\":19916:19934   */\n      dup2\n        /* \"#utility.yul\":19913:19951   */\n      sub\n        /* \"#utility.yul\":19910:19994   */\n      tag_437\n      jumpi\n        /* \"#utility.yul\":19966:19984   */\n      tag_438\n      tag_220\n      jump\t// in\n    tag_438:\n        /* \"#utility.yul\":19910:19994   */\n    tag_437:\n        /* \"#utility.yul\":19731:20000   */\n      pop\n        /* \"#utility.yul\":19680:20000   */\n      swap2\n      swap1\n      pop\n      jump\t// out\n        /* \"#utility.yul\":20006:20227   */\n    tag_221:\n        /* \"#utility.yul\":20146:20180   */\n      0x4a6f6220776974682073696d696c617220494420616c72656164792045786973\n        /* \"#utility.yul\":20142:20143   */\n      0x00\n        /* \"#utility.yul\":20134:20140   */\n      dup3\n        /* \"#utility.yul\":20130:20144   */\n      add\n        /* \"#utility.yul\":20123:20181   */\n      mstore\n        /* \"#utility.yul\":20215:20219   */\n      0x7473000000000000000000000000000000000000000000000000000000000000\n        /* \"#utility.yul\":20210:20212   */\n      0x20\n        /* \"#utility.yul\":20202:20208   */\n      dup3\n        /* \"#utility.yul\":20198:20213   */\n      add\n        /* \"#utility.yul\":20191:20220   */\n      mstore\n        /* \"#utility.yul\":20006:20227   */\n      pop\n      jump\t// out\n        /* \"#utility.yul\":20233:20599   */\n    tag_222:\n        /* \"#utility.yul\":20375:20378   */\n      0x00\n        /* \"#utility.yul\":20396:20463   */\n      tag_441\n        /* \"#utility.yul\":20460:20462   */\n      0x22\n        /* \"#utility.yul\":20455:20458   */\n      dup4\n        /* \"#utility.yul\":20396:20463   */\n      tag_217\n      jump\t// in\n    tag_441:\n        /* \"#utility.yul\":20389:20463   */\n      swap2\n      pop\n        /* \"#utility.yul\":20472:20565   */\n      tag_442\n        /* \"#utility.yul\":20561:20564   */\n      dup3\n        /* \"#utility.yul\":20472:20565   */\n      tag_221\n      jump\t// in\n    tag_442:\n        /* \"#utility.yul\":20590:20592   */\n      0x40\n        /* \"#utility.yul\":20585:20588   */\n      dup3\n        /* \"#utility.yul\":20581:20593   */\n      add\n        /* \"#utility.yul\":20574:20593   */\n      swap1\n      pop\n        /* \"#utility.yul\":20233:20599   */\n      swap2\n      swap1\n      pop\n      jump\t// out\n        /* \"#utility.yul\":20605:21024   */\n    tag_91:\n        /* \"#utility.yul\":20771:20775   */\n      0x00\n        /* \"#utility.yul\":20809:20811   */\n      0x20\n        /* \"#utility.yul\":20798:20807   */\n      dup3\n        /* \"#utility.yul\":20794:20812   */\n      add\n        /* \"#utility.yul\":20786:20812   */\n      swap1\n      pop\n        /* \"#utility.yul\":20858:20867   */\n      dup2\n        /* \"#utility.yul\":20852:20856   */\n      dup2\n        /* \"#utility.yul\":20848:20868   */\n      sub\n        /* \"#utility.yul\":20844:20845   */\n      0x00\n        /* \"#utility.yul\":20833:20842   */\n      dup4\n        /* \"#utility.yul\":20829:20846   */\n      add\n        /* \"#utility.yul\":20822:20869   */\n      mstore\n        /* \"#utility.yul\":20886:21017   */\n      tag_444\n        /* \"#utility.yul\":21012:21016   */\n      dup2\n        /* \"#utility.yul\":20886:21017   */\n      tag_222\n      jump\t// in\n    tag_444:\n        /* \"#utility.yul\":20878:21017   */\n      swap1\n      pop\n        /* \"#utility.yul\":20605:21024   */\n      swap2\n      swap1\n      pop\n      jump\t// out\n        /* \"#utility.yul\":21030:21171   */\n    tag_223:\n        /* \"#utility.yul\":21079:21083   */\n      0x00\n        /* \"#utility.yul\":21102:21105   */\n      dup2\n        /* \"#utility.yul\":21094:21105   */\n      swap1\n      pop\n        /* \"#utility.yul\":21125:21128   */\n      dup2\n        /* \"#utility.yul\":21122:21123   */\n      0x00\n        /* \"#utility.yul\":21115:21129   */\n      mstore\n        /* \"#utility.yul\":21159:21163   */\n      0x20\n        /* \"#utility.yul\":21156:21157   */\n      0x00\n        /* \"#utility.yul\":21146:21164   */\n      keccak256\n        /* \"#utility.yul\":21138:21164   */\n      swap1\n      pop\n        /* \"#utility.yul\":21030:21171   */\n      swap2\n      swap1\n      pop\n      jump\t// out\n        /* \"#utility.yul\":21177:21270   */\n    tag_224:\n        /* \"#utility.yul\":21214:21220   */\n      0x00\n        /* \"#utility.yul\":21261:21263   */\n      0x20\n        /* \"#utility.yul\":21256:21258   */\n      0x1f\n        /* \"#utility.yul\":21249:21254   */\n      dup4\n        /* \"#utility.yul\":21245:21259   */\n      add\n        /* \"#utility.yul\":21241:21264   */\n      div\n        /* \"#utility.yul\":21231:21264   */\n      swap1\n      pop\n        /* \"#utility.yul\":21177:21270   */\n      swap2\n      swap1\n      pop\n      jump\t// out\n        /* \"#utility.yul\":21276:21383   */\n    tag_225:\n        /* \"#utility.yul\":21320:21328   */\n      0x00\n        /* \"#utility.yul\":21370:21375   */\n      dup3\n        /* \"#utility.yul\":21364:21368   */\n      dup3\n        /* \"#utility.yul\":21360:21376   */\n      shl\n        /* \"#utility.yul\":21339:21376   */\n      swap1\n      pop\n        /* \"#utility.yul\":21276:21383   */\n      swap3\n      swap2\n      pop\n      pop\n      jump\t// out\n        /* \"#utility.yul\":21389:21782   */\n    tag_226:\n        /* \"#utility.yul\":21458:21464   */\n      0x00\n        /* \"#utility.yul\":21508:21509   */\n      0x08\n        /* \"#utility.yul\":21496:21506   */\n      dup4\n        /* \"#utility.yul\":21492:21510   */\n      mul\n        /* \"#utility.yul\":21531:21628   */\n      tag_449\n        /* \"#utility.yul\":21561:21627   */\n      0xffffffffffffffffffffffffffffffffffffffffffffffffffffffffffffffff\n        /* \"#utility.yul\":21550:21559   */\n      dup3\n        /* \"#utility.yul\":21531:21628   */\n      tag_225\n      jump\t// in\n    tag_449:\n        /* \"#utility.yul\":21649:21688   */\n      tag_450\n        /* \"#utility.yul\":21679:21687   */\n      dup7\n        /* \"#utility.yul\":21668:21677   */\n      dup4\n        /* \"#utility.yul\":21649:21688   */\n      tag_225\n      jump\t// in\n    tag_450:\n        /* \"#utility.yul\":21637:21688   */\n      swap6\n      pop\n        /* \"#utility.yul\":21721:21725   */\n      dup1\n        /* \"#utility.yul\":21717:21726   */\n      not\n        /* \"#utility.yul\":21710:21715   */\n      dup5\n        /* \"#utility.yul\":21706:21727   */\n      and\n        /* \"#utility.yul\":21697:21727   */\n      swap4\n      pop\n        /* \"#utility.yul\":21770:21774   */\n      dup1\n        /* \"#utility.yul\":21760:21768   */\n      dup7\n        /* \"#utility.yul\":21756:21775   */\n      and\n        /* \"#utility.yul\":21749:21754   */\n      dup5\n        /* \"#utility.yul\":21746:21776   */\n      or\n        /* \"#utility.yul\":21736:21776   */\n      swap3\n      pop\n        /* \"#utility.yul\":21465:21782   */\n      pop\n      pop\n        /* \"#utility.yul\":21389:21782   */\n      swap4\n      swap3\n      pop\n      pop\n      pop\n      jump\t// out\n        /* \"#utility.yul\":21788:21848   */\n    tag_227:\n        /* \"#utility.yul\":21816:21819   */\n      0x00\n        /* \"#utility.yul\":21837:21842   */\n      dup2\n        /* \"#utility.yul\":21830:21842   */\n      swap1\n      pop\n        /* \"#utility.yul\":21788:21848   */\n      swap2\n      swap1\n      pop\n      jump\t// out\n        /* \"#utility.yul\":21854:21996   */\n    tag_228:\n        /* \"#utility.yul\":21904:21913   */\n      0x00\n        /* \"#utility.yul\":21937:21990   */\n      tag_453\n        /* \"#utility.yul\":21955:21989   */\n      tag_454\n        /* \"#utility.yul\":21964:21988   */\n      tag_455\n        /* \"#utility.yul\":21982:21987   */\n      dup5\n        /* \"#utility.yul\":21964:21988   */\n      tag_180\n      jump\t// in\n    tag_455:\n        /* \"#utility.yul\":21955:21989   */\n      tag_227\n      jump\t// in\n    tag_454:\n        /* \"#utility.yul\":21937:21990   */\n      tag_180\n      jump\t// in\n    tag_453:\n        /* \"#utility.yul\":21924:21990   */\n      swap1\n      pop\n        /* \"#utility.yul\":21854:21996   */\n      swap2\n      swap1\n      pop\n      jump\t// out\n        /* \"#utility.yul\":22002:22077   */\n    tag_229:\n        /* \"#utility.yul\":22045:22048   */\n      0x00\n        /* \"#utility.yul\":22066:22071   */\n      dup2\n        /* \"#utility.yul\":22059:22071   */\n      swap1\n      pop\n        /* \"#utility.yul\":22002:22077   */\n      swap2\n      swap1\n      pop\n      jump\t// out\n        /* \"#utility.yul\":22083:22352   */\n    tag_230:\n        /* \"#utility.yul\":22193:22232   */\n      tag_458\n        /* \"#utility.yul\":22224:22231   */\n      dup4\n        /* \"#utility.yul\":22193:22232   */\n      tag_228\n      jump\t// in\n    tag_458:\n        /* \"#utility.yul\":22254:22345   */\n      tag_459\n        /* \"#utility.yul\":22303:22344   */\n      tag_460\n        /* \"#utility.yul\":22327:22343   */\n      dup3\n        /* \"#utility.yul\":22303:22344   */\n      tag_229\n      jump\t// in\n    tag_460:\n        /* \"#utility.yul\":22295:22301   */\n      dup5\n        /* \"#utility.yul\":22288:22292   */\n      dup5\n        /* \"#utility.yul\":22282:22293   */\n      sload\n        /* \"#utility.yul\":22254:22345   */\n      tag_226\n      jump\t// in\n    tag_459:\n        /* \"#utility.yul\":22248:22252   */\n      dup3\n        /* \"#utility.yul\":22241:22346   */\n      sstore\n        /* \"#utility.yul\":22159:22352   */\n      pop\n        /* \"#utility.yul\":22083:22352   */\n      pop\n      pop\n      pop\n      jump\t// out\n        /* \"#utility.yul\":22358:22431   */\n    tag_231:\n        /* \"#utility.yul\":22403:22406   */\n      0x00\n        /* \"#utility.yul\":22358:22431   */\n      swap1\n      jump\t// out\n        /* \"#utility.yul\":22437:22626   */\n    tag_232:\n        /* \"#utility.yul\":22514:22546   */\n      tag_463\n      tag_231\n      jump\t// in\n    tag_463:\n        /* \"#utility.yul\":22555:22620   */\n      tag_464\n        /* \"#utility.yul\":22613:22619   */\n      dup2\n        /* \"#utility.yul\":22605:22611   */\n      dup5\n        /* \"#utility.yul\":22599:22603   */\n      dup5\n        /* \"#utility.yul\":22555:22620   */\n      tag_230\n      jump\t// in\n    tag_464:\n        /* \"#utility.yul\":22490:22626   */\n      pop\n        /* \"#utility.yul\":22437:22626   */\n      pop\n      pop\n      jump\t// out\n        /* \"#utility.yul\":22632:22818   */\n    tag_233:\n        /* \"#utility.yul\":22692:22812   */\n    tag_466:\n        /* \"#utility.yul\":22709:22712   */\n      dup2\n        /* \"#utility.yul\":22702:22707   */\n      dup2\n        /* \"#utility.yul\":22699:22713   */\n      lt\n        /* \"#utility.yul\":22692:22812   */\n      iszero\n      tag_468\n      jumpi\n        /* \"#utility.yul\":22763:22802   */\n      tag_469\n        /* \"#utility.yul\":22800:22801   */\n      0x00\n        /* \"#utility.yul\":22793:22798   */\n      dup3\n        /* \"#utility.yul\":22763:22802   */\n      tag_232\n      jump\t// in\n    tag_469:\n        /* \"#utility.yul\":22736:22737   */\n      0x01\n        /* \"#utility.yul\":22729:22734   */\n      dup2\n        /* \"#utility.yul\":22725:22738   */\n      add\n        /* \"#utility.yul\":22716:22738   */\n      swap1\n      pop\n        /* \"#utility.yul\":22692:22812   */\n      jump(tag_466)\n    tag_468:\n        /* \"#utility.yul\":22632:22818   */\n      pop\n      pop\n      jump\t// out\n        /* \"#utility.yul\":22824:23367   */\n    tag_234:\n        /* \"#utility.yul\":22925:22927   */\n      0x1f\n        /* \"#utility.yul\":22920:22923   */\n      dup3\n        /* \"#utility.yul\":22917:22928   */\n      gt\n        /* \"#utility.yul\":22914:23360   */\n      iszero\n      tag_471\n      jumpi\n        /* \"#utility.yul\":22959:22997   */\n      tag_472\n        /* \"#utility.yul\":22991:22996   */\n      dup2\n        /* \"#utility.yul\":22959:22997   */\n      tag_223\n      jump\t// in\n    tag_472:\n        /* \"#utility.yul\":23043:23072   */\n      tag_473\n        /* \"#utility.yul\":23061:23071   */\n      dup5\n        /* \"#utility.yul\":23043:23072   */\n      tag_224\n      jump\t// in\n    tag_473:\n        /* \"#utility.yul\":23033:23041   */\n      dup2\n        /* \"#utility.yul\":23029:23073   */\n      add\n        /* \"#utility.yul\":23226:23228   */\n      0x20\n        /* \"#utility.yul\":23214:23224   */\n      dup6\n        /* \"#utility.yul\":23211:23229   */\n      lt\n        /* \"#utility.yul\":23208:23257   */\n      iszero\n      tag_474\n      jumpi\n        /* \"#utility.yul\":23247:23255   */\n      dup2\n        /* \"#utility.yul\":23232:23255   */\n      swap1\n      pop\n        /* \"#utility.yul\":23208:23257   */\n    tag_474:\n        /* \"#utility.yul\":23270:23350   */\n      tag_475\n        /* \"#utility.yul\":23326:23348   */\n      tag_476\n        /* \"#utility.yul\":23344:23347   */\n      dup6\n        /* \"#utility.yul\":23326:23348   */\n      tag_224\n      jump\t// in\n    tag_476:\n        /* \"#utility.yul\":23316:23324   */\n      dup4\n        /* \"#utility.yul\":23312:23349   */\n      add\n        /* \"#utility.yul\":23299:23310   */\n      dup3\n        /* \"#utility.yul\":23270:23350   */\n      tag_233\n      jump\t// in\n    tag_475:\n        /* \"#utility.yul\":22929:23360   */\n      pop\n      pop\n        /* \"#utility.yul\":22914:23360   */\n    tag_471:\n        /* \"#utility.yul\":22824:23367   */\n      pop\n      pop\n      pop\n      jump\t// out\n        /* \"#utility.yul\":23373:23490   */\n    tag_235:\n        /* \"#utility.yul\":23427:23435   */\n      0x00\n        /* \"#utility.yul\":23477:23482   */\n      dup3\n        /* \"#utility.yul\":23471:23475   */\n      dup3\n        /* \"#utility.yul\":23467:23483   */\n      shr\n        /* \"#utility.yul\":23446:23483   */\n      swap1\n      pop\n        /* \"#utility.yul\":23373:23490   */\n      swap3\n      swap2\n      pop\n      pop\n      jump\t// out\n        /* \"#utility.yul\":23496:23665   */\n    tag_236:\n        /* \"#utility.yul\":23540:23546   */\n      0x00\n        /* \"#utility.yul\":23573:23624   */\n      tag_479\n        /* \"#utility.yul\":23621:23622   */\n      0x00\n        /* \"#utility.yul\":23617:23623   */\n      not\n        /* \"#utility.yul\":23609:23614   */\n      dup5\n        /* \"#utility.yul\":23606:23607   */\n      0x08\n        /* \"#utility.yul\":23602:23615   */\n      mul\n        /* \"#utility.yul\":23573:23624   */\n      tag_235\n      jump\t// in\n    tag_479:\n        /* \"#utility.yul\":23569:23625   */\n      not\n        /* \"#utility.yul\":23654:23658   */\n      dup1\n        /* \"#utility.yul\":23648:23652   */\n      dup4\n        /* \"#utility.yul\":23644:23659   */\n      and\n        /* \"#utility.yul\":23634:23659   */\n      swap2\n      pop\n        /* \"#utility.yul\":23547:23665   */\n      pop\n        /* \"#utility.yul\":23496:23665   */\n      swap3\n      swap2\n      pop\n      pop\n      jump\t// out\n        /* \"#utility.yul\":23670:23965   */\n    tag_237:\n        /* \"#utility.yul\":23746:23750   */\n      0x00\n        /* \"#utility.yul\":23892:23921   */\n      tag_481\n        /* \"#utility.yul\":23917:23920   */\n      dup4\n        /* \"#utility.yul\":23911:23915   */\n      dup4\n        /* \"#utility.yul\":23892:23921   */\n      tag_236\n      jump\t// in\n    tag_481:\n        /* \"#utility.yul\":23884:23921   */\n      swap2\n      pop\n        /* \"#utility.yul\":23954:23957   */\n      dup3\n        /* \"#utility.yul\":23951:23952   */\n      0x02\n        /* \"#utility.yul\":23947:23958   */\n      mul\n        /* \"#utility.yul\":23941:23945   */\n      dup3\n        /* \"#utility.yul\":23938:23959   */\n      or\n        /* \"#utility.yul\":23930:23959   */\n      swap1\n      pop\n        /* \"#utility.yul\":23670:23965   */\n      swap3\n      swap2\n      pop\n      pop\n      jump\t// out\n        /* \"#utility.yul\":23970:25365   */\n    tag_98:\n        /* \"#utility.yul\":24087:24124   */\n      tag_483\n        /* \"#utility.yul\":24120:24123   */\n      dup3\n        /* \"#utility.yul\":24087:24124   */\n      tag_183\n      jump\t// in\n    tag_483:\n        /* \"#utility.yul\":24189:24207   */\n      0xffffffffffffffff\n        /* \"#utility.yul\":24181:24187   */\n      dup2\n        /* \"#utility.yul\":24178:24208   */\n      gt\n        /* \"#utility.yul\":24175:24231   */\n      iszero\n      tag_484\n      jumpi\n        /* \"#utility.yul\":24211:24229   */\n      tag_485\n      tag_95\n      jump\t// in\n    tag_485:\n        /* \"#utility.yul\":24175:24231   */\n    tag_484:\n        /* \"#utility.yul\":24255:24293   */\n      tag_486\n        /* \"#utility.yul\":24287:24291   */\n      dup3\n        /* \"#utility.yul\":24281:24292   */\n      sload\n        /* \"#utility.yul\":24255:24293   */\n      tag_65\n      jump\t// in\n    tag_486:\n        /* \"#utility.yul\":24340:24407   */\n      tag_487\n        /* \"#utility.yul\":24400:24406   */\n      dup3\n        /* \"#utility.yul\":24392:24398   */\n      dup3\n        /* \"#utility.yul\":24386:24390   */\n      dup6\n        /* \"#utility.yul\":24340:24407   */\n      tag_234\n      jump\t// in\n    tag_487:\n        /* \"#utility.yul\":24434:24435   */\n      0x00\n        /* \"#utility.yul\":24458:24462   */\n      0x20\n        /* \"#utility.yul\":24445:24462   */\n      swap1\n      pop\n        /* \"#utility.yul\":24490:24492   */\n      0x1f\n        /* \"#utility.yul\":24482:24488   */\n      dup4\n        /* \"#utility.yul\":24479:24493   */\n      gt\n        /* \"#utility.yul\":24507:24508   */\n      0x01\n        /* \"#utility.yul\":24502:25120   */\n      dup2\n      eq\n      tag_489\n      jumpi\n        /* \"#utility.yul\":25164:25165   */\n      0x00\n        /* \"#utility.yul\":25181:25187   */\n      dup5\n        /* \"#utility.yul\":25178:25255   */\n      iszero\n      tag_490\n      jumpi\n        /* \"#utility.yul\":25230:25239   */\n      dup3\n        /* \"#utility.yul\":25225:25228   */\n      dup8\n        /* \"#utility.yul\":25221:25240   */\n      add\n        /* \"#utility.yul\":25215:25241   */\n      mload\n        /* \"#utility.yul\":25206:25241   */\n      swap1\n      pop\n        /* \"#utility.yul\":25178:25255   */\n    tag_490:\n        /* \"#utility.yul\":25281:25348   */\n      tag_491\n        /* \"#utility.yul\":25341:25347   */\n      dup6\n        /* \"#utility.yul\":25334:25339   */\n      dup3\n        /* \"#utility.yul\":25281:25348   */\n      tag_237\n      jump\t// in\n    tag_491:\n        /* \"#utility.yul\":25275:25279   */\n      dup7\n        /* \"#utility.yul\":25268:25349   */\n      sstore\n        /* \"#utility.yul\":25137:25359   */\n      pop\n        /* \"#utility.yul\":24472:25359   */\n      jump(tag_488)\n        /* \"#utility.yul\":24502:25120   */\n    tag_489:\n        /* \"#utility.yul\":24554:24558   */\n      0x1f\n        /* \"#utility.yul\":24550:24559   */\n      not\n        /* \"#utility.yul\":24542:24548   */\n      dup5\n        /* \"#utility.yul\":24538:24560   */\n      and\n        /* \"#utility.yul\":24588:24625   */\n      tag_492\n        /* \"#utility.yul\":24620:24624   */\n      dup7\n        /* \"#utility.yul\":24588:24625   */\n      tag_223\n      jump\t// in\n    tag_492:\n        /* \"#utility.yul\":24647:24648   */\n      0x00\n        /* \"#utility.yul\":24661:24869   */\n    tag_493:\n        /* \"#utility.yul\":24675:24682   */\n      dup3\n        /* \"#utility.yul\":24672:24673   */\n      dup2\n        /* \"#utility.yul\":24669:24683   */\n      lt\n        /* \"#utility.yul\":24661:24869   */\n      iszero\n      tag_495\n      jumpi\n        /* \"#utility.yul\":24754:24763   */\n      dup5\n        /* \"#utility.yul\":24749:24752   */\n      dup10\n        /* \"#utility.yul\":24745:24764   */\n      add\n        /* \"#utility.yul\":24739:24765   */\n      mload\n        /* \"#utility.yul\":24731:24737   */\n      dup3\n        /* \"#utility.yul\":24724:24766   */\n      sstore\n        /* \"#utility.yul\":24805:24806   */\n      0x01\n        /* \"#utility.yul\":24797:24803   */\n      dup3\n        /* \"#utility.yul\":24793:24807   */\n      add\n        /* \"#utility.yul\":24783:24807   */\n      swap2\n      pop\n        /* \"#utility.yul\":24852:24854   */\n      0x20\n        /* \"#utility.yul\":24841:24850   */\n      dup6\n        /* \"#utility.yul\":24837:24855   */\n      add\n        /* \"#utility.yul\":24824:24855   */\n      swap5\n      pop\n        /* \"#utility.yul\":24698:24702   */\n      0x20\n        /* \"#utility.yul\":24695:24696   */\n      dup2\n        /* \"#utility.yul\":24691:24703   */\n      add\n        /* \"#utility.yul\":24686:24703   */\n      swap1\n      pop\n        /* \"#utility.yul\":24661:24869   */\n      jump(tag_493)\n    tag_495:\n        /* \"#utility.yul\":24897:24903   */\n      dup7\n        /* \"#utility.yul\":24888:24895   */\n      dup4\n        /* \"#utility.yul\":24885:24904   */\n      lt\n        /* \"#utility.yul\":24882:25061   */\n      iszero\n      tag_496\n      jumpi\n        /* \"#utility.yul\":24955:24964   */\n      dup5\n        /* \"#utility.yul\":24950:24953   */\n      dup10\n        /* \"#utility.yul\":24946:24965   */\n      add\n        /* \"#utility.yul\":24940:24966   */\n      mload\n        /* \"#utility.yul\":24998:25046   */\n      tag_497\n        /* \"#utility.yul\":25040:25044   */\n      0x1f\n        /* \"#utility.yul\":25032:25038   */\n      dup10\n        /* \"#utility.yul\":25028:25045   */\n      and\n        /* \"#utility.yul\":25017:25026   */\n      dup3\n        /* \"#utility.yul\":24998:25046   */\n      tag_236\n      jump\t// in\n    tag_497:\n        /* \"#utility.yul\":24990:24996   */\n      dup4\n        /* \"#utility.yul\":24983:25047   */\n      sstore\n        /* \"#utility.yul\":24905:25061   */\n      pop\n        /* \"#utility.yul\":24882:25061   */\n    tag_496:\n        /* \"#utility.yul\":25107:25108   */\n      0x01\n        /* \"#utility.yul\":25103:25104   */\n      0x02\n        /* \"#utility.yul\":25095:25101   */\n      dup9\n        /* \"#utility.yul\":25091:25105   */\n      mul\n        /* \"#utility.yul\":25087:25109   */\n      add\n        /* \"#utility.yul\":25081:25085   */\n      dup9\n        /* \"#utility.yul\":25074:25110   */\n      sstore\n        /* \"#utility.yul\":24509:25120   */\n      pop\n      pop\n      pop\n        /* \"#utility.yul\":24472:25359   */\n    tag_488:\n      pop\n        /* \"#utility.yul\":24062:25365   */\n      pop\n      pop\n      pop\n        /* \"#utility.yul\":23970:25365   */\n      pop\n      pop\n      jump\t// out\n        /* \"#utility.yul\":25371:25595   */\n    tag_238:\n        /* \"#utility.yul\":25511:25545   */\n      0x4f6e6c792041646d696e20697320616c6c6f77656420666f7220746869732061\n        /* \"#utility.yul\":25507:25508   */\n      0x00\n        /* \"#utility.yul\":25499:25505   */\n      dup3\n        /* \"#utility.yul\":25495:25509   */\n      add\n        /* \"#utility.yul\":25488:25546   */\n      mstore\n        /* \"#utility.yul\":25580:25587   */\n      0x6374696f6e000000000000000000000000000000000000000000000000000000\n        /* \"#utility.yul\":25575:25577   */\n      0x20\n        /* \"#utility.yul\":25567:25573   */\n      dup3\n        /* \"#utility.yul\":25563:25578   */\n      add\n        /* \"#utility.yul\":25556:25588   */\n      mstore\n        /* \"#utility.yul\":25371:25595   */\n      pop\n      jump\t// out\n        /* \"#utility.yul\":25601:25967   */\n    tag_239:\n        /* \"#utility.yul\":25743:25746   */\n      0x00\n        /* \"#utility.yul\":25764:25831   */\n      tag_500\n        /* \"#utility.yul\":25828:25830   */\n      0x25\n        /* \"#utility.yul\":25823:25826   */\n      dup4\n        /* \"#utility.yul\":25764:25831   */\n      tag_217\n      jump\t// in\n    tag_500:\n        /* \"#utility.yul\":25757:25831   */\n      swap2\n      pop\n        /* \"#utility.yul\":25840:25933   */\n      tag_501\n        /* \"#utility.yul\":25929:25932   */\n      dup3\n        /* \"#utility.yul\":25840:25933   */\n      tag_238\n      jump\t// in\n    tag_501:\n        /* \"#utility.yul\":25958:25960   */\n      0x40\n        /* \"#utility.yul\":25953:25956   */\n      dup3\n        /* \"#utility.yul\":25949:25961   */\n      add\n        /* \"#utility.yul\":25942:25961   */\n      swap1\n      pop\n        /* \"#utility.yul\":25601:25967   */\n      swap2\n      swap1\n      pop\n      jump\t// out\n        /* \"#utility.yul\":25973:26392   */\n    tag_107:\n        /* \"#utility.yul\":26139:26143   */\n      0x00\n        /* \"#utility.yul\":26177:26179   */\n      0x20\n        /* \"#utility.yul\":26166:26175   */\n      dup3\n        /* \"#utility.yul\":26162:26180   */\n      add\n        /* \"#utility.yul\":26154:26180   */\n      swap1\n      pop\n        /* \"#utility.yul\":26226:26235   */\n      dup2\n        /* \"#utility.yul\":26220:26224   */\n      dup2\n        /* \"#utility.yul\":26216:26236   */\n      sub\n        /* \"#utility.yul\":26212:26213   */\n      0x00\n        /* \"#utility.yul\":26201:26210   */\n      dup4\n        /* \"#utility.yul\":26197:26214   */\n      add\n        /* \"#utility.yul\":26190:26237   */\n      mstore\n        /* \"#utility.yul\":26254:26385   */\n      tag_503\n        /* \"#utility.yul\":26380:26384   */\n      dup2\n        /* \"#utility.yul\":26254:26385   */\n      tag_239\n      jump\t// in\n    tag_503:\n        /* \"#utility.yul\":26246:26385   */\n      swap1\n      pop\n        /* \"#utility.yul\":25973:26392   */\n      swap2\n      swap1\n      pop\n      jump\t// out\n        /* \"#utility.yul\":26398:26566   */\n    tag_240:\n        /* \"#utility.yul\":26538:26558   */\n      0x4e6f2053756368204a6f62204578697374730000000000000000000000000000\n        /* \"#utility.yul\":26534:26535   */\n      0x00\n        /* \"#utility.yul\":26526:26532   */\n      dup3\n        /* \"#utility.yul\":26522:26536   */\n      add\n        /* \"#utility.yul\":26515:26559   */\n      mstore\n        /* \"#utility.yul\":26398:26566   */\n      pop\n      jump\t// out\n        /* \"#utility.yul\":26572:26938   */\n    tag_241:\n        /* \"#utility.yul\":26714:26717   */\n      0x00\n        /* \"#utility.yul\":26735:26802   */\n      tag_506\n        /* \"#utility.yul\":26799:26801   */\n      0x12\n        /* \"#utility.yul\":26794:26797   */\n      dup4\n        /* \"#utility.yul\":26735:26802   */\n      tag_217\n      jump\t// in\n    tag_506:\n        /* \"#utility.yul\":26728:26802   */\n      swap2\n      pop\n        /* \"#utility.yul\":26811:26904   */\n      tag_507\n        /* \"#utility.yul\":26900:26903   */\n      dup3\n        /* \"#utility.yul\":26811:26904   */\n      tag_240\n      jump\t// in\n    tag_507:\n        /* \"#utility.yul\":26929:26931   */\n      0x20\n        /* \"#utility.yul\":26924:26927   */\n      dup3\n        /* \"#utility.yul\":26920:26932   */\n      add\n        /* \"#utility.yul\":26913:26932   */\n      swap1\n      pop\n        /* \"#utility.yul\":26572:26938   */\n      swap2\n      swap1\n      pop\n      jump\t// out\n        /* \"#utility.yul\":26944:27363   */\n    tag_122:\n        /* \"#utility.yul\":27110:27114   */\n      0x00\n        /* \"#utility.yul\":27148:27150   */\n      0x20\n        /* \"#utility.yul\":27137:27146   */\n      dup3\n        /* \"#utility.yul\":27133:27151   */\n      add\n        /* \"#utility.yul\":27125:27151   */\n      swap1\n      pop\n        /* \"#utility.yul\":27197:27206   */\n      dup2\n        /* \"#utility.yul\":27191:27195   */\n      dup2\n        /* \"#utility.yul\":27187:27207   */\n      sub\n        /* \"#utility.yul\":27183:27184   */\n      0x00\n        /* \"#utility.yul\":27172:27181   */\n      dup4\n        /* \"#utility.yul\":27168:27185   */\n      add\n        /* \"#utility.yul\":27161:27208   */\n      mstore\n        /* \"#utility.yul\":27225:27356   */\n      tag_509\n        /* \"#utility.yul\":27351:27355   */\n      dup2\n        /* \"#utility.yul\":27225:27356   */\n      tag_241\n      jump\t// in\n    tag_509:\n        /* \"#utility.yul\":27217:27356   */\n      swap1\n      pop\n        /* \"#utility.yul\":26944:27363   */\n      swap2\n      swap1\n      pop\n      jump\t// out\n        /* \"#utility.yul\":27369:27591   */\n    tag_242:\n        /* \"#utility.yul\":27509:27543   */\n      0x4f6e6c792052656769737465726564206170706c6963616e742063616e206170\n        /* \"#utility.yul\":27505:27506   */\n      0x00\n        /* \"#utility.yul\":27497:27503   */\n      dup3\n        /* \"#utility.yul\":27493:27507   */\n      add\n        /* \"#utility.yul\":27486:27544   */\n      mstore\n        /* \"#utility.yul\":27578:27583   */\n      0x706c790000000000000000000000000000000000000000000000000000000000\n        /* \"#utility.yul\":27573:27575   */\n      0x20\n        /* \"#utility.yul\":27565:27571   */\n      dup3\n        /* \"#utility.yul\":27561:27576   */\n      add\n        /* \"#utility.yul\":27554:27584   */\n      mstore\n        /* \"#utility.yul\":27369:27591   */\n      pop\n      jump\t// out\n        /* \"#utility.yul\":27597:27963   */\n    tag_243:\n        /* \"#utility.yul\":27739:27742   */\n      0x00\n        /* \"#utility.yul\":27760:27827   */\n      tag_512\n        /* \"#utility.yul\":27824:27826   */\n      0x23\n        /* \"#utility.yul\":27819:27822   */\n      dup4\n        /* \"#utility.yul\":27760:27827   */\n      tag_217\n      jump\t// in\n    tag_512:\n        /* \"#utility.yul\":27753:27827   */\n      swap2\n      pop\n        /* \"#utility.yul\":27836:27929   */\n      tag_513\n        /* \"#utility.yul\":27925:27928   */\n      dup3\n        /* \"#utility.yul\":27836:27929   */\n      tag_242\n      jump\t// in\n    tag_513:\n        /* \"#utility.yul\":27954:27956   */\n      0x40\n        /* \"#utility.yul\":27949:27952   */\n      dup3\n        /* \"#utility.yul\":27945:27957   */\n      add\n        /* \"#utility.yul\":27938:27957   */\n      swap1\n      pop\n        /* \"#utility.yul\":27597:27963   */\n      swap2\n      swap1\n      pop\n      jump\t// out\n        /* \"#utility.yul\":27969:28388   */\n    tag_127:\n        /* \"#utility.yul\":28135:28139   */\n      0x00\n        /* \"#utility.yul\":28173:28175   */\n      0x20\n        /* \"#utility.yul\":28162:28171   */\n      dup3\n        /* \"#utility.yul\":28158:28176   */\n      add\n        /* \"#utility.yul\":28150:28176   */\n      swap1\n      pop\n        /* \"#utility.yul\":28222:28231   */\n      dup2\n        /* \"#utility.yul\":28216:28220   */\n      dup2\n        /* \"#utility.yul\":28212:28232   */\n      sub\n        /* \"#utility.yul\":28208:28209   */\n      0x00\n        /* \"#utility.yul\":28197:28206   */\n      dup4\n        /* \"#utility.yul\":28193:28210   */\n      add\n        /* \"#utility.yul\":28186:28233   */\n      mstore\n        /* \"#utility.yul\":28250:28381   */\n      tag_515\n        /* \"#utility.yul\":28376:28380   */\n      dup2\n        /* \"#utility.yul\":28250:28381   */\n      tag_243\n      jump\t// in\n    tag_515:\n        /* \"#utility.yul\":28242:28381   */\n      swap1\n      pop\n        /* \"#utility.yul\":27969:28388   */\n      swap2\n      swap1\n      pop\n      jump\t// out\n        /* \"#utility.yul\":28394:28559   */\n    tag_244:\n        /* \"#utility.yul\":28534:28551   */\n      0x416c7265616479204170706c6965640000000000000000000000000000000000\n        /* \"#utility.yul\":28530:28531   */\n      0x00\n        /* \"#utility.yul\":28522:28528   */\n      dup3\n        /* \"#utility.yul\":28518:28532   */\n      add\n        /* \"#utility.yul\":28511:28552   */\n      mstore\n        /* \"#utility.yul\":28394:28559   */\n      pop\n      jump\t// out\n        /* \"#utility.yul\":28565:28931   */\n    tag_245:\n        /* \"#utility.yul\":28707:28710   */\n      0x00\n        /* \"#utility.yul\":28728:28795   */\n      tag_518\n        /* \"#utility.yul\":28792:28794   */\n      0x0f\n        /* \"#utility.yul\":28787:28790   */\n      dup4\n        /* \"#utility.yul\":28728:28795   */\n      tag_217\n      jump\t// in\n    tag_518:\n        /* \"#utility.yul\":28721:28795   */\n      swap2\n      pop\n        /* \"#utility.yul\":28804:28897   */\n      tag_519\n        /* \"#utility.yul\":28893:28896   */\n      dup3\n        /* \"#utility.yul\":28804:28897   */\n      tag_244\n      jump\t// in\n    tag_519:\n        /* \"#utility.yul\":28922:28924   */\n      0x20\n        /* \"#utility.yul\":28917:28920   */\n      dup3\n        /* \"#utility.yul\":28913:28925   */\n      add\n        /* \"#utility.yul\":28906:28925   */\n      swap1\n      pop\n        /* \"#utility.yul\":28565:28931   */\n      swap2\n      swap1\n      pop\n      jump\t// out\n        /* \"#utility.yul\":28937:29356   */\n    tag_130:\n        /* \"#utility.yul\":29103:29107   */\n      0x00\n        /* \"#utility.yul\":29141:29143   */\n      0x20\n        /* \"#utility.yul\":29130:29139   */\n      dup3\n        /* \"#utility.yul\":29126:29144   */\n      add\n        /* \"#utility.yul\":29118:29144   */\n      swap1\n      pop\n        /* \"#utility.yul\":29190:29199   */\n      dup2\n        /* \"#utility.yul\":29184:29188   */\n      dup2\n        /* \"#utility.yul\":29180:29200   */\n      sub\n        /* \"#utility.yul\":29176:29177   */\n      0x00\n        /* \"#utility.yul\":29165:29174   */\n      dup4\n        /* \"#utility.yul\":29161:29178   */\n      add\n        /* \"#utility.yul\":29154:29201   */\n      mstore\n        /* \"#utility.yul\":29218:29349   */\n      tag_521\n        /* \"#utility.yul\":29344:29348   */\n      dup2\n        /* \"#utility.yul\":29218:29349   */\n      tag_245\n      jump\t// in\n    tag_521:\n        /* \"#utility.yul\":29210:29349   */\n      swap1\n      pop\n        /* \"#utility.yul\":28937:29356   */\n      swap2\n      swap1\n      pop\n      jump\t// out\n\n    auxdata: 0xa2646970667358221220655602ce12f263ea0375a86fc0066419c7f4f134c4baa78853b1650e88fa082964736f6c63430008160033\n}\n",
				"bytecode": {
					"linkReferences": {},
					"object": "608060405234801561000f575f80fd5b50335f806101000a81548173ffffffffffffffffffffffffffffffffffffffff021916908373ffffffffffffffffffffffffffffffffffffffff160217905550611f418061005c5f395ff3fe608060405234801561000f575f80fd5b5060043610610091575f3560e01c80638677b0a2116100645780638677b0a2146101195780639890877f14610135578063a038631014610165578063a39bf54414610195578063af43ceb4146101c557610091565b806315fc27d81461009557806361011df7146100b157806370787868146100e157806382050766146100fd575b5f80fd5b6100af60048036038101906100aa919061110e565b6101f5565b005b6100cb60048036038101906100c6919061117f565b6102a9565b6040516100d8919061137a565b60405180910390f35b6100fb60048036038101906100f691906114c6565b61059e565b005b610117600480360381019061011291906115d0565b6106ff565b005b610133600480360381019061012e919061117f565b6108f8565b005b61014f600480360381019061014a91906116f1565b610b5a565b60405161015c919061186f565b60405180910390f35b61017f600480360381019061017a91906116f1565b610e6e565b60405161018c919061189e565b60405180910390f35b6101af60048036038101906101aa91906118b7565b610ec3565b6040516101bc919061190f565b60405180910390f35b6101df60048036038101906101da91906116f1565b610eed565b6040516101ec9190611937565b60405180910390f35b60018160ff161015801561020d575060058160ff1611155b61024c576040517f08c379a0000000000000000000000000000000000000000000000000000000008152600401610243906119aa565b60405180910390fd5b8060015f8473ffffffffffffffffffffffffffffffffffffffff1673ffffffffffffffffffffffffffffffffffffffff1681526020019081526020015f2060030160016101000a81548160ff021916908360ff1602179055505050565b6102b1610f43565b60025f8381526020019081526020015f206040518060a00160405290815f820180546102dc906119f5565b80601f0160208091040260200160405190810160405280929190818152602001828054610308906119f5565b80156103535780601f1061032a57610100808354040283529160200191610353565b820191905f5260205f20905b81548152906001019060200180831161033657829003601f168201915b5050505050815260200160018201805461036c906119f5565b80601f0160208091040260200160405190810160405280929190818152602001828054610398906119f5565b80156103e35780601f106103ba576101008083540402835291602001916103e3565b820191905f5260205f20905b8154815290600101906020018083116103c657829003601f168201915b505050505081526020016002820180546103fc906119f5565b80601f0160208091040260200160405190810160405280929190818152602001828054610428906119f5565b80156104735780601f1061044a57610100808354040283529160200191610473565b820191905f5260205f20905b81548152906001019060200180831161045657829003601f168201915b5050505050815260200160038201805461048c906119f5565b80601f01602080910402602001604051908101604052809291908181526020018280546104b8906119f5565b80156105035780601f106104da57610100808354040283529160200191610503565b820191905f5260205f20905b8154815290600101906020018083116104e657829003601f168201915b505050505081526020016004820180548060200260200160405190810160405280929190818152602001828054801561058e57602002820191905f5260205f20905b815f9054906101000a900473ffffffffffffffffffffffffffffffffffffffff1673ffffffffffffffffffffffffffffffffffffffff1681526020019060010190808311610545575b5050505050815250509050919050565b845f60025f8381526020019081526020015f205f0180546105be906119f5565b90501115610601576040517f08c379a00000000000000000000000000000000000000000000000000000000081526004016105f890611a95565b60405180910390fd5b6040518060a001604052808681526020018581526020018481526020018381526020015f67ffffffffffffffff81111561063e5761063d6113a2565b5b60405190808252806020026020018201604052801561066c5781602001602082028036833780820191505090505b5081525060025f8881526020019081526020015f205f820151815f0190816106949190611c50565b5060208201518160010190816106aa9190611c50565b5060408201518160020190816106c09190611c50565b5060608201518160030190816106d69190611c50565b5060808201518160040190805190602001906106f3929190610f72565b50905050505050505050565b3373ffffffffffffffffffffffffffffffffffffffff165f8054906101000a900473ffffffffffffffffffffffffffffffffffffffff1673ffffffffffffffffffffffffffffffffffffffff161461078c576040517f08c379a000000000000000000000000000000000000000000000000000000000815260040161078390611d8f565b60405180910390fd5b6040518061010001604052808881526020018781526020018681526020018560ff1681526020015f60ff1681526020018481526020018381526020018260028111156107db576107da61173a565b5b81525060015f8a73ffffffffffffffffffffffffffffffffffffffff1673ffffffffffffffffffffffffffffffffffffffff1681526020019081526020015f205f820151815f01908161082e9190611c50565b5060208201518160010155604082015181600201908161084e9190611c50565b506060820151816003015f6101000a81548160ff021916908360ff16021790555060808201518160030160016101000a81548160ff021916908360ff16021790555060a08201518160040190816108a59190611c50565b5060c08201518160050190816108bb9190611c50565b5060e0820151816006015f6101000a81548160ff021916908360028111156108e6576108e561173a565b5b02179055509050505050505050505050565b805f60025f8381526020019081526020015f205f018054610918906119f5565b90501161095a576040517f08c379a000000000000000000000000000000000000000000000000000000000815260040161095190611df7565b60405180910390fd5b5f60015f3373ffffffffffffffffffffffffffffffffffffffff1673ffffffffffffffffffffffffffffffffffffffff1681526020019081526020015f205f0180546109a5906119f5565b9050116109e7576040517f08c379a00000000000000000000000000000000000000000000000000000000081526004016109de90611e85565b60405180910390fd5b60035f8381526020019081526020015f205f3373ffffffffffffffffffffffffffffffffffffffff1673ffffffffffffffffffffffffffffffffffffffff1681526020019081526020015f205f9054906101000a900460ff1615610a80576040517f08c379a0000000000000000000000000000000000000000000000000000000008152600401610a7790611eed565b60405180910390fd5b600160035f8481526020019081526020015f205f3373ffffffffffffffffffffffffffffffffffffffff1673ffffffffffffffffffffffffffffffffffffffff1681526020019081526020015f205f6101000a81548160ff02191690831515021790555060025f8381526020019081526020015f2060040133908060018154018082558091505060019003905f5260205f20015f9091909190916101000a81548173ffffffffffffffffffffffffffffffffffffffff021916908373ffffffffffffffffffffffffffffffffffffffff1602179055505050565b610b62610ff9565b60015f8373ffffffffffffffffffffffffffffffffffffffff1673ffffffffffffffffffffffffffffffffffffffff1681526020019081526020015f20604051806101000160405290815f82018054610bba906119f5565b80601f0160208091040260200160405190810160405280929190818152602001828054610be6906119f5565b8015610c315780601f10610c0857610100808354040283529160200191610c31565b820191905f5260205f20905b815481529060010190602001808311610c1457829003601f168201915b5050505050815260200160018201548152602001600282018054610c54906119f5565b80601f0160208091040260200160405190810160405280929190818152602001828054610c80906119f5565b8015610ccb5780601f10610ca257610100808354040283529160200191610ccb565b820191905f5260205f20905b815481529060010190602001808311610cae57829003601f168201915b50505050508152602001600382015f9054906101000a900460ff1660ff1660ff1681526020016003820160019054906101000a900460ff1660ff1660ff168152602001600482018054610d1d906119f5565b80601f0160208091040260200160405190810160405280929190818152602001828054610d49906119f5565b8015610d945780601f10610d6b57610100808354040283529160200191610d94565b820191905f5260205f20905b815481529060010190602001808311610d7757829003601f168201915b50505050508152602001600582018054610dad906119f5565b80601f0160208091040260200160405190810160405280929190818152602001828054610dd9906119f5565b8015610e245780601f10610dfb57610100808354040283529160200191610e24565b820191905f5260205f20905b815481529060010190602001808311610e0757829003601f168201915b50505050508152602001600682015f9054906101000a900460ff166002811115610e5157610e5061173a565b5b6002811115610e6357610e6261173a565b5b815250509050919050565b5f60015f8373ffffffffffffffffffffffffffffffffffffffff1673ffffffffffffffffffffffffffffffffffffffff1681526020019081526020015f206006015f9054906101000a900460ff169050919050565b6003602052815f5260405f20602052805f5260405f205f915091509054906101000a900460ff1681565b5f60015f8373ffffffffffffffffffffffffffffffffffffffff1673ffffffffffffffffffffffffffffffffffffffff1681526020019081526020015f2060030160019054906101000a900460ff169050919050565b6040518060a0016040528060608152602001606081526020016060815260200160608152602001606081525090565b828054828255905f5260205f20908101928215610fe8579160200282015b82811115610fe7578251825f6101000a81548173ffffffffffffffffffffffffffffffffffffffff021916908373ffffffffffffffffffffffffffffffffffffffff16021790555091602001919060010190610f90565b5b509050610ff59190611052565b5090565b604051806101000160405280606081526020015f8152602001606081526020015f60ff1681526020015f60ff16815260200160608152602001606081526020015f600281111561104c5761104b61173a565b5b81525090565b5b80821115611069575f815f905550600101611053565b5090565b5f604051905090565b5f80fd5b5f80fd5b5f73ffffffffffffffffffffffffffffffffffffffff82169050919050565b5f6110a78261107e565b9050919050565b6110b78161109d565b81146110c1575f80fd5b50565b5f813590506110d2816110ae565b92915050565b5f60ff82169050919050565b6110ed816110d8565b81146110f7575f80fd5b50565b5f81359050611108816110e4565b92915050565b5f806040838503121561112457611123611076565b5b5f611131858286016110c4565b9250506020611142858286016110fa565b9150509250929050565b5f819050919050565b61115e8161114c565b8114611168575f80fd5b50565b5f8135905061117981611155565b92915050565b5f6020828403121561119457611193611076565b5b5f6111a18482850161116b565b91505092915050565b5f81519050919050565b5f82825260208201905092915050565b5f5b838110156111e15780820151818401526020810190506111c6565b5f8484015250505050565b5f601f19601f8301169050919050565b5f611206826111aa565b61121081856111b4565b93506112208185602086016111c4565b611229816111ec565b840191505092915050565b5f81519050919050565b5f82825260208201905092915050565b5f819050602082019050919050565b6112668161109d565b82525050565b5f611277838361125d565b60208301905092915050565b5f602082019050919050565b5f61129982611234565b6112a3818561123e565b93506112ae8361124e565b805f5b838110156112de5781516112c5888261126c565b97506112d083611283565b9250506001810190506112b1565b5085935050505092915050565b5f60a083015f8301518482035f86015261130582826111fc565b9150506020830151848203602086015261131f82826111fc565b9150506040830151848203604086015261133982826111fc565b9150506060830151848203606086015261135382826111fc565b9150506080830151848203608086015261136d828261128f565b9150508091505092915050565b5f6020820190508181035f83015261139281846112eb565b905092915050565b5f80fd5b5f80fd5b7f4e487b71000000000000000000000000000000000000000000000000000000005f52604160045260245ffd5b6113d8826111ec565b810181811067ffffffffffffffff821117156113f7576113f66113a2565b5b80604052505050565b5f61140961106d565b905061141582826113cf565b919050565b5f67ffffffffffffffff821115611434576114336113a2565b5b61143d826111ec565b9050602081019050919050565b828183375f83830152505050565b5f61146a6114658461141a565b611400565b9050828152602081018484840111156114865761148561139e565b5b61149184828561144a565b509392505050565b5f82601f8301126114ad576114ac61139a565b5b81356114bd848260208601611458565b91505092915050565b5f805f805f60a086880312156114df576114de611076565b5b5f6114ec8882890161116b565b955050602086013567ffffffffffffffff81111561150d5761150c61107a565b5b61151988828901611499565b945050604086013567ffffffffffffffff81111561153a5761153961107a565b5b61154688828901611499565b935050606086013567ffffffffffffffff8111156115675761156661107a565b5b61157388828901611499565b925050608086013567ffffffffffffffff8111156115945761159361107a565b5b6115a088828901611499565b9150509295509295909350565b600381106115b9575f80fd5b50565b5f813590506115ca816115ad565b92915050565b5f805f805f805f80610100898b0312156115ed576115ec611076565b5b5f6115fa8b828c016110c4565b985050602089013567ffffffffffffffff81111561161b5761161a61107a565b5b6116278b828c01611499565b97505060406116388b828c0161116b565b965050606089013567ffffffffffffffff8111156116595761165861107a565b5b6116658b828c01611499565b95505060806116768b828c016110fa565b94505060a089013567ffffffffffffffff8111156116975761169661107a565b5b6116a38b828c01611499565b93505060c089013567ffffffffffffffff8111156116c4576116c361107a565b5b6116d08b828c01611499565b92505060e06116e18b828c016115bc565b9150509295985092959890939650565b5f6020828403121561170657611705611076565b5b5f611713848285016110c4565b91505092915050565b6117258161114c565b82525050565b611734816110d8565b82525050565b7f4e487b71000000000000000000000000000000000000000000000000000000005f52602160045260245ffd5b600381106117785761177761173a565b5b50565b5f81905061178882611767565b919050565b5f6117978261177b565b9050919050565b6117a78161178d565b82525050565b5f61010083015f8301518482035f8601526117c882826111fc565b91505060208301516117dd602086018261171c565b50604083015184820360408601526117f582826111fc565b915050606083015161180a606086018261172b565b50608083015161181d608086018261172b565b5060a083015184820360a086015261183582826111fc565b91505060c083015184820360c086015261184f82826111fc565b91505060e083015161186460e086018261179e565b508091505092915050565b5f6020820190508181035f83015261188781846117ad565b905092915050565b6118988161178d565b82525050565b5f6020820190506118b15f83018461188f565b92915050565b5f80604083850312156118cd576118cc611076565b5b5f6118da8582860161116b565b92505060206118eb858286016110c4565b9150509250929050565b5f8115159050919050565b611909816118f5565b82525050565b5f6020820190506119225f830184611900565b92915050565b611931816110d8565b82525050565b5f60208201905061194a5f830184611928565b92915050565b5f82825260208201905092915050565b7f526174696e67206d757374206265206265747765656e203120616e64203500005f82015250565b5f611994601e83611950565b915061199f82611960565b602082019050919050565b5f6020820190508181035f8301526119c181611988565b9050919050565b7f4e487b71000000000000000000000000000000000000000000000000000000005f52602260045260245ffd5b5f6002820490506001821680611a0c57607f821691505b602082108103611a1f57611a1e6119c8565b5b50919050565b7f4a6f6220776974682073696d696c617220494420616c726561647920457869735f8201527f7473000000000000000000000000000000000000000000000000000000000000602082015250565b5f611a7f602283611950565b9150611a8a82611a25565b604082019050919050565b5f6020820190508181035f830152611aac81611a73565b9050919050565b5f819050815f5260205f209050919050565b5f6020601f8301049050919050565b5f82821b905092915050565b5f60088302611b0f7fffffffffffffffffffffffffffffffffffffffffffffffffffffffffffffffff82611ad4565b611b198683611ad4565b95508019841693508086168417925050509392505050565b5f819050919050565b5f611b54611b4f611b4a8461114c565b611b31565b61114c565b9050919050565b5f819050919050565b611b6d83611b3a565b611b81611b7982611b5b565b848454611ae0565b825550505050565b5f90565b611b95611b89565b611ba0818484611b64565b505050565b5b81811015611bc357611bb85f82611b8d565b600181019050611ba6565b5050565b601f821115611c0857611bd981611ab3565b611be284611ac5565b81016020851015611bf1578190505b611c05611bfd85611ac5565b830182611ba5565b50505b505050565b5f82821c905092915050565b5f611c285f1984600802611c0d565b1980831691505092915050565b5f611c408383611c19565b9150826002028217905092915050565b611c59826111aa565b67ffffffffffffffff811115611c7257611c716113a2565b5b611c7c82546119f5565b611c87828285611bc7565b5f60209050601f831160018114611cb8575f8415611ca6578287015190505b611cb08582611c35565b865550611d17565b601f198416611cc686611ab3565b5f5b82811015611ced57848901518255600182019150602085019450602081019050611cc8565b86831015611d0a5784890151611d06601f891682611c19565b8355505b6001600288020188555050505b505050505050565b7f4f6e6c792041646d696e20697320616c6c6f77656420666f72207468697320615f8201527f6374696f6e000000000000000000000000000000000000000000000000000000602082015250565b5f611d79602583611950565b9150611d8482611d1f565b604082019050919050565b5f6020820190508181035f830152611da681611d6d565b9050919050565b7f4e6f2053756368204a6f622045786973747300000000000000000000000000005f82015250565b5f611de1601283611950565b9150611dec82611dad565b602082019050919050565b5f6020820190508181035f830152611e0e81611dd5565b9050919050565b7f4f6e6c792052656769737465726564206170706c6963616e742063616e2061705f8201527f706c790000000000000000000000000000000000000000000000000000000000602082015250565b5f611e6f602383611950565b9150611e7a82611e15565b604082019050919050565b5f6020820190508181035f830152611e9c81611e63565b9050919050565b7f416c7265616479204170706c69656400000000000000000000000000000000005f82015250565b5f611ed7600f83611950565b9150611ee282611ea3565b602082019050919050565b5f6020820190508181035f830152611f0481611ecb565b905091905056fea2646970667358221220655602ce12f263ea0375a86fc0066419c7f4f134c4baa78853b1650e88fa082964736f6c63430008160033",
					"opcodes": "PUSH1 0x80 PUSH1 0x40 MSTORE CALLVALUE DUP1 ISZERO PUSH2 0xF JUMPI PUSH0 DUP1 REVERT JUMPDEST POP CALLER PUSH0 DUP1 PUSH2 0x100 EXP DUP2 SLOAD DUP2 PUSH20 0xFFFFFFFFFFFFFFFFFFFFFFFFFFFFFFFFFFFFFFFF MUL NOT AND SWAP1 DUP4 PUSH20 0xFFFFFFFFFFFFFFFFFFFFFFFFFFFFFFFFFFFFFFFF AND MUL OR SWAP1 SSTORE POP PUSH2 0x1F41 DUP1 PUSH2 0x5C PUSH0 CODECOPY PUSH0 RETURN INVALID PUSH1 0x80 PUSH1 0x40 MSTORE CALLVALUE DUP1 ISZERO PUSH2 0xF JUMPI PUSH0 DUP1 REVERT JUMPDEST POP PUSH1 0x4 CALLDATASIZE LT PUSH2 0x91 JUMPI PUSH0 CALLDATALOAD PUSH1 0xE0 SHR DUP1 PUSH4 0x8677B0A2 GT PUSH2 0x64 JUMPI DUP1 PUSH4 0x8677B0A2 EQ PUSH2 0x119 JUMPI DUP1 PUSH4 0x9890877F EQ PUSH2 0x135 JUMPI DUP1 PUSH4 0xA0386310 EQ PUSH2 0x165 JUMPI DUP1 PUSH4 0xA39BF544 EQ PUSH2 0x195 JUMPI DUP1 PUSH4 0xAF43CEB4 EQ PUSH2 0x1C5 JUMPI PUSH2 0x91 JUMP JUMPDEST DUP1 PUSH4 0x15FC27D8 EQ PUSH2 0x95 JUMPI DUP1 PUSH4 0x61011DF7 EQ PUSH2 0xB1 JUMPI DUP1 PUSH4 0x70787868 EQ PUSH2 0xE1 JUMPI DUP1 PUSH4 0x82050766 EQ PUSH2 0xFD JUMPI JUMPDEST PUSH0 DUP1 REVERT JUMPDEST PUSH2 0xAF PUSH1 0x4 DUP1 CALLDATASIZE SUB DUP2 ADD SWAP1 PUSH2 0xAA SWAP2 SWAP1 PUSH2 0x110E JUMP JUMPDEST PUSH2 0x1F5 JUMP JUMPDEST STOP JUMPDEST PUSH2 0xCB PUSH1 0x4 DUP1 CALLDATASIZE SUB DUP2 ADD SWAP1 PUSH2 0xC6 SWAP2 SWAP1 PUSH2 0x117F JUMP JUMPDEST PUSH2 0x2A9 JUMP JUMPDEST PUSH1 0x40 MLOAD PUSH2 0xD8 SWAP2 SWAP1 PUSH2 0x137A JUMP JUMPDEST PUSH1 0x40 MLOAD DUP1 SWAP2 SUB SWAP1 RETURN JUMPDEST PUSH2 0xFB PUSH1 0x4 DUP1 CALLDATASIZE SUB DUP2 ADD SWAP1 PUSH2 0xF6 SWAP2 SWAP1 PUSH2 0x14C6 JUMP JUMPDEST PUSH2 0x59E JUMP JUMPDEST STOP JUMPDEST PUSH2 0x117 PUSH1 0x4 DUP1 CALLDATASIZE SUB DUP2 ADD SWAP1 PUSH2 0x112 SWAP2 SWAP1 PUSH2 0x15D0 JUMP JUMPDEST PUSH2 0x6FF JUMP JUMPDEST STOP JUMPDEST PUSH2 0x133 PUSH1 0x4 DUP1 CALLDATASIZE SUB DUP2 ADD SWAP1 PUSH2 0x12E SWAP2 SWAP1 PUSH2 0x117F JUMP JUMPDEST PUSH2 0x8F8 JUMP JUMPDEST STOP JUMPDEST PUSH2 0x14F PUSH1 0x4 DUP1 CALLDATASIZE SUB DUP2 ADD SWAP1 PUSH2 0x14A SWAP2 SWAP1 PUSH2 0x16F1 JUMP JUMPDEST PUSH2 0xB5A JUMP JUMPDEST PUSH1 0x40 MLOAD PUSH2 0x15C SWAP2 SWAP1 PUSH2 0x186F JUMP JUMPDEST PUSH1 0x40 MLOAD DUP1 SWAP2 SUB SWAP1 RETURN JUMPDEST PUSH2 0x17F PUSH1 0x4 DUP1 CALLDATASIZE SUB DUP2 ADD SWAP1 PUSH2 0x17A SWAP2 SWAP1 PUSH2 0x16F1 JUMP JUMPDEST PUSH2 0xE6E JUMP JUMPDEST PUSH1 0x40 MLOAD PUSH2 0x18C SWAP2 SWAP1 PUSH2 0x189E JUMP JUMPDEST PUSH1 0x40 MLOAD DUP1 SWAP2 SUB SWAP1 RETURN JUMPDEST PUSH2 0x1AF PUSH1 0x4 DUP1 CALLDATASIZE SUB DUP2 ADD SWAP1 PUSH2 0x1AA SWAP2 SWAP1 PUSH2 0x18B7 JUMP JUMPDEST PUSH2 0xEC3 JUMP JUMPDEST PUSH1 0x40 MLOAD PUSH2 0x1BC SWAP2 SWAP1 PUSH2 0x190F JUMP JUMPDEST PUSH1 0x40 MLOAD DUP1 SWAP2 SUB SWAP1 RETURN JUMPDEST PUSH2 0x1DF PUSH1 0x4 DUP1 CALLDATASIZE SUB DUP2 ADD SWAP1 PUSH2 0x1DA SWAP2 SWAP1 PUSH2 0x16F1 JUMP JUMPDEST PUSH2 0xEED JUMP JUMPDEST PUSH1 0x40 MLOAD PUSH2 0x1EC SWAP2 SWAP1 PUSH2 0x1937 JUMP JUMPDEST PUSH1 0x40 MLOAD DUP1 SWAP2 SUB SWAP1 RETURN JUMPDEST PUSH1 0x1 DUP2 PUSH1 0xFF AND LT ISZERO DUP1 ISZERO PUSH2 0x20D JUMPI POP PUSH1 0x5 DUP2 PUSH1 0xFF AND GT ISZERO JUMPDEST PUSH2 0x24C JUMPI PUSH1 0x40 MLOAD PUSH32 0x8C379A000000000000000000000000000000000000000000000000000000000 DUP2 MSTORE PUSH1 0x4 ADD PUSH2 0x243 SWAP1 PUSH2 0x19AA JUMP JUMPDEST PUSH1 0x40 MLOAD DUP1 SWAP2 SUB SWAP1 REVERT JUMPDEST DUP1 PUSH1 0x1 PUSH0 DUP5 PUSH20 0xFFFFFFFFFFFFFFFFFFFFFFFFFFFFFFFFFFFFFFFF AND PUSH20 0xFFFFFFFFFFFFFFFFFFFFFFFFFFFFFFFFFFFFFFFF AND DUP2 MSTORE PUSH1 0x20 ADD SWAP1 DUP2 MSTORE PUSH1 0x20 ADD PUSH0 KECCAK256 PUSH1 0x3 ADD PUSH1 0x1 PUSH2 0x100 EXP DUP2 SLOAD DUP2 PUSH1 0xFF MUL NOT AND SWAP1 DUP4 PUSH1 0xFF AND MUL OR SWAP1 SSTORE POP POP POP JUMP JUMPDEST PUSH2 0x2B1 PUSH2 0xF43 JUMP JUMPDEST PUSH1 0x2 PUSH0 DUP4 DUP2 MSTORE PUSH1 0x20 ADD SWAP1 DUP2 MSTORE PUSH1 0x20 ADD PUSH0 KECCAK256 PUSH1 0x40 MLOAD DUP1 PUSH1 0xA0 ADD PUSH1 0x40 MSTORE SWAP1 DUP2 PUSH0 DUP3 ADD DUP1 SLOAD PUSH2 0x2DC SWAP1 PUSH2 0x19F5 JUMP JUMPDEST DUP1 PUSH1 0x1F ADD PUSH1 0x20 DUP1 SWAP2 DIV MUL PUSH1 0x20 ADD PUSH1 0x40 MLOAD SWAP1 DUP2 ADD PUSH1 0x40 MSTORE DUP1 SWAP3 SWAP2 SWAP1 DUP2 DUP2 MSTORE PUSH1 0x20 ADD DUP3 DUP1 SLOAD PUSH2 0x308 SWAP1 PUSH2 0x19F5 JUMP JUMPDEST DUP1 ISZERO PUSH2 0x353 JUMPI DUP1 PUSH1 0x1F LT PUSH2 0x32A JUMPI PUSH2 0x100 DUP1 DUP4 SLOAD DIV MUL DUP4 MSTORE SWAP2 PUSH1 0x20 ADD SWAP2 PUSH2 0x353 JUMP JUMPDEST DUP3 ADD SWAP2 SWAP1 PUSH0 MSTORE PUSH1 0x20 PUSH0 KECCAK256 SWAP1 JUMPDEST DUP2 SLOAD DUP2 MSTORE SWAP1 PUSH1 0x1 ADD SWAP1 PUSH1 0x20 ADD DUP1 DUP4 GT PUSH2 0x336 JUMPI DUP3 SWAP1 SUB PUSH1 0x1F AND DUP3 ADD SWAP2 JUMPDEST POP POP POP POP POP DUP2 MSTORE PUSH1 0x20 ADD PUSH1 0x1 DUP3 ADD DUP1 SLOAD PUSH2 0x36C SWAP1 PUSH2 0x19F5 JUMP JUMPDEST DUP1 PUSH1 0x1F ADD PUSH1 0x20 DUP1 SWAP2 DIV MUL PUSH1 0x20 ADD PUSH1 0x40 MLOAD SWAP1 DUP2 ADD PUSH1 0x40 MSTORE DUP1 SWAP3 SWAP2 SWAP1 DUP2 DUP2 MSTORE PUSH1 0x20 ADD DUP3 DUP1 SLOAD PUSH2 0x398 SWAP1 PUSH2 0x19F5 JUMP JUMPDEST DUP1 ISZERO PUSH2 0x3E3 JUMPI DUP1 PUSH1 0x1F LT PUSH2 0x3BA JUMPI PUSH2 0x100 DUP1 DUP4 SLOAD DIV MUL DUP4 MSTORE SWAP2 PUSH1 0x20 ADD SWAP2 PUSH2 0x3E3 JUMP JUMPDEST DUP3 ADD SWAP2 SWAP1 PUSH0 MSTORE PUSH1 0x20 PUSH0 KECCAK256 SWAP1 JUMPDEST DUP2 SLOAD DUP2 MSTORE SWAP1 PUSH1 0x1 ADD SWAP1 PUSH1 0x20 ADD DUP1 DUP4 GT PUSH2 0x3C6 JUMPI DUP3 SWAP1 SUB PUSH1 0x1F AND DUP3 ADD SWAP2 JUMPDEST POP POP POP POP POP DUP2 MSTORE PUSH1 0x20 ADD PUSH1 0x2 DUP3 ADD DUP1 SLOAD PUSH2 0x3FC SWAP1 PUSH2 0x19F5 JUMP JUMPDEST DUP1 PUSH1 0x1F ADD PUSH1 0x20 DUP1 SWAP2 DIV MUL PUSH1 0x20 ADD PUSH1 0x40 MLOAD SWAP1 DUP2 ADD PUSH1 0x40 MSTORE DUP1 SWAP3 SWAP2 SWAP1 DUP2 DUP2 MSTORE PUSH1 0x20 ADD DUP3 DUP1 SLOAD PUSH2 0x428 SWAP1 PUSH2 0x19F5 JUMP JUMPDEST DUP1 ISZERO PUSH2 0x473 JUMPI DUP1 PUSH1 0x1F LT PUSH2 0x44A JUMPI PUSH2 0x100 DUP1 DUP4 SLOAD DIV MUL DUP4 MSTORE SWAP2 PUSH1 0x20 ADD SWAP2 PUSH2 0x473 JUMP JUMPDEST DUP3 ADD SWAP2 SWAP1 PUSH0 MSTORE PUSH1 0x20 PUSH0 KECCAK256 SWAP1 JUMPDEST DUP2 SLOAD DUP2 MSTORE SWAP1 PUSH1 0x1 ADD SWAP1 PUSH1 0x20 ADD DUP1 DUP4 GT PUSH2 0x456 JUMPI DUP3 SWAP1 SUB PUSH1 0x1F AND DUP3 ADD SWAP2 JUMPDEST POP POP POP POP POP DUP2 MSTORE PUSH1 0x20 ADD PUSH1 0x3 DUP3 ADD DUP1 SLOAD PUSH2 0x48C SWAP1 PUSH2 0x19F5 JUMP JUMPDEST DUP1 PUSH1 0x1F ADD PUSH1 0x20 DUP1 SWAP2 DIV MUL PUSH1 0x20 ADD PUSH1 0x40 MLOAD SWAP1 DUP2 ADD PUSH1 0x40 MSTORE DUP1 SWAP3 SWAP2 SWAP1 DUP2 DUP2 MSTORE PUSH1 0x20 ADD DUP3 DUP1 SLOAD PUSH2 0x4B8 SWAP1 PUSH2 0x19F5 JUMP JUMPDEST DUP1 ISZERO PUSH2 0x503 JUMPI DUP1 PUSH1 0x1F LT PUSH2 0x4DA JUMPI PUSH2 0x100 DUP1 DUP4 SLOAD DIV MUL DUP4 MSTORE SWAP2 PUSH1 0x20 ADD SWAP2 PUSH2 0x503 JUMP JUMPDEST DUP3 ADD SWAP2 SWAP1 PUSH0 MSTORE PUSH1 0x20 PUSH0 KECCAK256 SWAP1 JUMPDEST DUP2 SLOAD DUP2 MSTORE SWAP1 PUSH1 0x1 ADD SWAP1 PUSH1 0x20 ADD DUP1 DUP4 GT PUSH2 0x4E6 JUMPI DUP3 SWAP1 SUB PUSH1 0x1F AND DUP3 ADD SWAP2 JUMPDEST POP POP POP POP POP DUP2 MSTORE PUSH1 0x20 ADD PUSH1 0x4 DUP3 ADD DUP1 SLOAD DUP1 PUSH1 0x20 MUL PUSH1 0x20 ADD PUSH1 0x40 MLOAD SWAP1 DUP2 ADD PUSH1 0x40 MSTORE DUP1 SWAP3 SWAP2 SWAP1 DUP2 DUP2 MSTORE PUSH1 0x20 ADD DUP3 DUP1 SLOAD DUP1 ISZERO PUSH2 0x58E JUMPI PUSH1 0x20 MUL DUP3 ADD SWAP2 SWAP1 PUSH0 MSTORE PUSH1 0x20 PUSH0 KECCAK256 SWAP1 JUMPDEST DUP2 PUSH0 SWAP1 SLOAD SWAP1 PUSH2 0x100 EXP SWAP1 DIV PUSH20 0xFFFFFFFFFFFFFFFFFFFFFFFFFFFFFFFFFFFFFFFF AND PUSH20 0xFFFFFFFFFFFFFFFFFFFFFFFFFFFFFFFFFFFFFFFF AND DUP2 MSTORE PUSH1 0x20 ADD SWAP1 PUSH1 0x1 ADD SWAP1 DUP1 DUP4 GT PUSH2 0x545 JUMPI JUMPDEST POP POP POP POP POP DUP2 MSTORE POP POP SWAP1 POP SWAP2 SWAP1 POP JUMP JUMPDEST DUP5 PUSH0 PUSH1 0x2 PUSH0 DUP4 DUP2 MSTORE PUSH1 0x20 ADD SWAP1 DUP2 MSTORE PUSH1 0x20 ADD PUSH0 KECCAK256 PUSH0 ADD DUP1 SLOAD PUSH2 0x5BE SWAP1 PUSH2 0x19F5 JUMP JUMPDEST SWAP1 POP GT ISZERO PUSH2 0x601 JUMPI PUSH1 0x40 MLOAD PUSH32 0x8C379A000000000000000000000000000000000000000000000000000000000 DUP2 MSTORE PUSH1 0x4 ADD PUSH2 0x5F8 SWAP1 PUSH2 0x1A95 JUMP JUMPDEST PUSH1 0x40 MLOAD DUP1 SWAP2 SUB SWAP1 REVERT JUMPDEST PUSH1 0x40 MLOAD DUP1 PUSH1 0xA0 ADD PUSH1 0x40 MSTORE DUP1 DUP7 DUP2 MSTORE PUSH1 0x20 ADD DUP6 DUP2 MSTORE PUSH1 0x20 ADD DUP5 DUP2 MSTORE PUSH1 0x20 ADD DUP4 DUP2 MSTORE PUSH1 0x20 ADD PUSH0 PUSH8 0xFFFFFFFFFFFFFFFF DUP2 GT ISZERO PUSH2 0x63E JUMPI PUSH2 0x63D PUSH2 0x13A2 JUMP JUMPDEST JUMPDEST PUSH1 0x40 MLOAD SWAP1 DUP1 DUP3 MSTORE DUP1 PUSH1 0x20 MUL PUSH1 0x20 ADD DUP3 ADD PUSH1 0x40 MSTORE DUP1 ISZERO PUSH2 0x66C JUMPI DUP2 PUSH1 0x20 ADD PUSH1 0x20 DUP3 MUL DUP1 CALLDATASIZE DUP4 CALLDATACOPY DUP1 DUP3 ADD SWAP2 POP POP SWAP1 POP JUMPDEST POP DUP2 MSTORE POP PUSH1 0x2 PUSH0 DUP9 DUP2 MSTORE PUSH1 0x20 ADD SWAP1 DUP2 MSTORE PUSH1 0x20 ADD PUSH0 KECCAK256 PUSH0 DUP3 ADD MLOAD DUP2 PUSH0 ADD SWAP1 DUP2 PUSH2 0x694 SWAP2 SWAP1 PUSH2 0x1C50 JUMP JUMPDEST POP PUSH1 0x20 DUP3 ADD MLOAD DUP2 PUSH1 0x1 ADD SWAP1 DUP2 PUSH2 0x6AA SWAP2 SWAP1 PUSH2 0x1C50 JUMP JUMPDEST POP PUSH1 0x40 DUP3 ADD MLOAD DUP2 PUSH1 0x2 ADD SWAP1 DUP2 PUSH2 0x6C0 SWAP2 SWAP1 PUSH2 0x1C50 JUMP JUMPDEST POP PUSH1 0x60 DUP3 ADD MLOAD DUP2 PUSH1 0x3 ADD SWAP1 DUP2 PUSH2 0x6D6 SWAP2 SWAP1 PUSH2 0x1C50 JUMP JUMPDEST POP PUSH1 0x80 DUP3 ADD MLOAD DUP2 PUSH1 0x4 ADD SWAP1 DUP1 MLOAD SWAP1 PUSH1 0x20 ADD SWAP1 PUSH2 0x6F3 SWAP3 SWAP2 SWAP1 PUSH2 0xF72 JUMP JUMPDEST POP SWAP1 POP POP POP POP POP POP POP POP JUMP JUMPDEST CALLER PUSH20 0xFFFFFFFFFFFFFFFFFFFFFFFFFFFFFFFFFFFFFFFF AND PUSH0 DUP1 SLOAD SWAP1 PUSH2 0x100 EXP SWAP1 DIV PUSH20 0xFFFFFFFFFFFFFFFFFFFFFFFFFFFFFFFFFFFFFFFF AND PUSH20 0xFFFFFFFFFFFFFFFFFFFFFFFFFFFFFFFFFFFFFFFF AND EQ PUSH2 0x78C JUMPI PUSH1 0x40 MLOAD PUSH32 0x8C379A000000000000000000000000000000000000000000000000000000000 DUP2 MSTORE PUSH1 0x4 ADD PUSH2 0x783 SWAP1 PUSH2 0x1D8F JUMP JUMPDEST PUSH1 0x40 MLOAD DUP1 SWAP2 SUB SWAP1 REVERT JUMPDEST PUSH1 0x40 MLOAD DUP1 PUSH2 0x100 ADD PUSH1 0x40 MSTORE DUP1 DUP9 DUP2 MSTORE PUSH1 0x20 ADD DUP8 DUP2 MSTORE PUSH1 0x20 ADD DUP7 DUP2 MSTORE PUSH1 0x20 ADD DUP6 PUSH1 0xFF AND DUP2 MSTORE PUSH1 0x20 ADD PUSH0 PUSH1 0xFF AND DUP2 MSTORE PUSH1 0x20 ADD DUP5 DUP2 MSTORE PUSH1 0x20 ADD DUP4 DUP2 MSTORE PUSH1 0x20 ADD DUP3 PUSH1 0x2 DUP2 GT ISZERO PUSH2 0x7DB JUMPI PUSH2 0x7DA PUSH2 0x173A JUMP JUMPDEST JUMPDEST DUP2 MSTORE POP PUSH1 0x1 PUSH0 DUP11 PUSH20 0xFFFFFFFFFFFFFFFFFFFFFFFFFFFFFFFFFFFFFFFF AND PUSH20 0xFFFFFFFFFFFFFFFFFFFFFFFFFFFFFFFFFFFFFFFF AND DUP2 MSTORE PUSH1 0x20 ADD SWAP1 DUP2 MSTORE PUSH1 0x20 ADD PUSH0 KECCAK256 PUSH0 DUP3 ADD MLOAD DUP2 PUSH0 ADD SWAP1 DUP2 PUSH2 0x82E SWAP2 SWAP1 PUSH2 0x1C50 JUMP JUMPDEST POP PUSH1 0x20 DUP3 ADD MLOAD DUP2 PUSH1 0x1 ADD SSTORE PUSH1 0x40 DUP3 ADD MLOAD DUP2 PUSH1 0x2 ADD SWAP1 DUP2 PUSH2 0x84E SWAP2 SWAP1 PUSH2 0x1C50 JUMP JUMPDEST POP PUSH1 0x60 DUP3 ADD MLOAD DUP2 PUSH1 0x3 ADD PUSH0 PUSH2 0x100 EXP DUP2 SLOAD DUP2 PUSH1 0xFF MUL NOT AND SWAP1 DUP4 PUSH1 0xFF AND MUL OR SWAP1 SSTORE POP PUSH1 0x80 DUP3 ADD MLOAD DUP2 PUSH1 0x3 ADD PUSH1 0x1 PUSH2 0x100 EXP DUP2 SLOAD DUP2 PUSH1 0xFF MUL NOT AND SWAP1 DUP4 PUSH1 0xFF AND MUL OR SWAP1 SSTORE POP PUSH1 0xA0 DUP3 ADD MLOAD DUP2 PUSH1 0x4 ADD SWAP1 DUP2 PUSH2 0x8A5 SWAP2 SWAP1 PUSH2 0x1C50 JUMP JUMPDEST POP PUSH1 0xC0 DUP3 ADD MLOAD DUP2 PUSH1 0x5 ADD SWAP1 DUP2 PUSH2 0x8BB SWAP2 SWAP1 PUSH2 0x1C50 JUMP JUMPDEST POP PUSH1 0xE0 DUP3 ADD MLOAD DUP2 PUSH1 0x6 ADD PUSH0 PUSH2 0x100 EXP DUP2 SLOAD DUP2 PUSH1 0xFF MUL NOT AND SWAP1 DUP4 PUSH1 0x2 DUP2 GT ISZERO PUSH2 0x8E6 JUMPI PUSH2 0x8E5 PUSH2 0x173A JUMP JUMPDEST JUMPDEST MUL OR SWAP1 SSTORE POP SWAP1 POP POP POP POP POP POP POP POP POP POP JUMP JUMPDEST DUP1 PUSH0 PUSH1 0x2 PUSH0 DUP4 DUP2 MSTORE PUSH1 0x20 ADD SWAP1 DUP2 MSTORE PUSH1 0x20 ADD PUSH0 KECCAK256 PUSH0 ADD DUP1 SLOAD PUSH2 0x918 SWAP1 PUSH2 0x19F5 JUMP JUMPDEST SWAP1 POP GT PUSH2 0x95A JUMPI PUSH1 0x40 MLOAD PUSH32 0x8C379A000000000000000000000000000000000000000000000000000000000 DUP2 MSTORE PUSH1 0x4 ADD PUSH2 0x951 SWAP1 PUSH2 0x1DF7 JUMP JUMPDEST PUSH1 0x40 MLOAD DUP1 SWAP2 SUB SWAP1 REVERT JUMPDEST PUSH0 PUSH1 0x1 PUSH0 CALLER PUSH20 0xFFFFFFFFFFFFFFFFFFFFFFFFFFFFFFFFFFFFFFFF AND PUSH20 0xFFFFFFFFFFFFFFFFFFFFFFFFFFFFFFFFFFFFFFFF AND DUP2 MSTORE PUSH1 0x20 ADD SWAP1 DUP2 MSTORE PUSH1 0x20 ADD PUSH0 KECCAK256 PUSH0 ADD DUP1 SLOAD PUSH2 0x9A5 SWAP1 PUSH2 0x19F5 JUMP JUMPDEST SWAP1 POP GT PUSH2 0x9E7 JUMPI PUSH1 0x40 MLOAD PUSH32 0x8C379A000000000000000000000000000000000000000000000000000000000 DUP2 MSTORE PUSH1 0x4 ADD PUSH2 0x9DE SWAP1 PUSH2 0x1E85 JUMP JUMPDEST PUSH1 0x40 MLOAD DUP1 SWAP2 SUB SWAP1 REVERT JUMPDEST PUSH1 0x3 PUSH0 DUP4 DUP2 MSTORE PUSH1 0x20 ADD SWAP1 DUP2 MSTORE PUSH1 0x20 ADD PUSH0 KECCAK256 PUSH0 CALLER PUSH20 0xFFFFFFFFFFFFFFFFFFFFFFFFFFFFFFFFFFFFFFFF AND PUSH20 0xFFFFFFFFFFFFFFFFFFFFFFFFFFFFFFFFFFFFFFFF AND DUP2 MSTORE PUSH1 0x20 ADD SWAP1 DUP2 MSTORE PUSH1 0x20 ADD PUSH0 KECCAK256 PUSH0 SWAP1 SLOAD SWAP1 PUSH2 0x100 EXP SWAP1 DIV PUSH1 0xFF AND ISZERO PUSH2 0xA80 JUMPI PUSH1 0x40 MLOAD PUSH32 0x8C379A000000000000000000000000000000000000000000000000000000000 DUP2 MSTORE PUSH1 0x4 ADD PUSH2 0xA77 SWAP1 PUSH2 0x1EED JUMP JUMPDEST PUSH1 0x40 MLOAD DUP1 SWAP2 SUB SWAP1 REVERT JUMPDEST PUSH1 0x1 PUSH1 0x3 PUSH0 DUP5 DUP2 MSTORE PUSH1 0x20 ADD SWAP1 DUP2 MSTORE PUSH1 0x20 ADD PUSH0 KECCAK256 PUSH0 CALLER PUSH20 0xFFFFFFFFFFFFFFFFFFFFFFFFFFFFFFFFFFFFFFFF AND PUSH20 0xFFFFFFFFFFFFFFFFFFFFFFFFFFFFFFFFFFFFFFFF AND DUP2 MSTORE PUSH1 0x20 ADD SWAP1 DUP2 MSTORE PUSH1 0x20 ADD PUSH0 KECCAK256 PUSH0 PUSH2 0x100 EXP DUP2 SLOAD DUP2 PUSH1 0xFF MUL NOT AND SWAP1 DUP4 ISZERO ISZERO MUL OR SWAP1 SSTORE POP PUSH1 0x2 PUSH0 DUP4 DUP2 MSTORE PUSH1 0x20 ADD SWAP1 DUP2 MSTORE PUSH1 0x20 ADD PUSH0 KECCAK256 PUSH1 0x4 ADD CALLER SWAP1 DUP1 PUSH1 0x1 DUP2 SLOAD ADD DUP1 DUP3 SSTORE DUP1 SWAP2 POP POP PUSH1 0x1 SWAP1 SUB SWAP1 PUSH0 MSTORE PUSH1 0x20 PUSH0 KECCAK256 ADD PUSH0 SWAP1 SWAP2 SWAP1 SWAP2 SWAP1 SWAP2 PUSH2 0x100 EXP DUP2 SLOAD DUP2 PUSH20 0xFFFFFFFFFFFFFFFFFFFFFFFFFFFFFFFFFFFFFFFF MUL NOT AND SWAP1 DUP4 PUSH20 0xFFFFFFFFFFFFFFFFFFFFFFFFFFFFFFFFFFFFFFFF AND MUL OR SWAP1 SSTORE POP POP POP JUMP JUMPDEST PUSH2 0xB62 PUSH2 0xFF9 JUMP JUMPDEST PUSH1 0x1 PUSH0 DUP4 PUSH20 0xFFFFFFFFFFFFFFFFFFFFFFFFFFFFFFFFFFFFFFFF AND PUSH20 0xFFFFFFFFFFFFFFFFFFFFFFFFFFFFFFFFFFFFFFFF AND DUP2 MSTORE PUSH1 0x20 ADD SWAP1 DUP2 MSTORE PUSH1 0x20 ADD PUSH0 KECCAK256 PUSH1 0x40 MLOAD DUP1 PUSH2 0x100 ADD PUSH1 0x40 MSTORE SWAP1 DUP2 PUSH0 DUP3 ADD DUP1 SLOAD PUSH2 0xBBA SWAP1 PUSH2 0x19F5 JUMP JUMPDEST DUP1 PUSH1 0x1F ADD PUSH1 0x20 DUP1 SWAP2 DIV MUL PUSH1 0x20 ADD PUSH1 0x40 MLOAD SWAP1 DUP2 ADD PUSH1 0x40 MSTORE DUP1 SWAP3 SWAP2 SWAP1 DUP2 DUP2 MSTORE PUSH1 0x20 ADD DUP3 DUP1 SLOAD PUSH2 0xBE6 SWAP1 PUSH2 0x19F5 JUMP JUMPDEST DUP1 ISZERO PUSH2 0xC31 JUMPI DUP1 PUSH1 0x1F LT PUSH2 0xC08 JUMPI PUSH2 0x100 DUP1 DUP4 SLOAD DIV MUL DUP4 MSTORE SWAP2 PUSH1 0x20 ADD SWAP2 PUSH2 0xC31 JUMP JUMPDEST DUP3 ADD SWAP2 SWAP1 PUSH0 MSTORE PUSH1 0x20 PUSH0 KECCAK256 SWAP1 JUMPDEST DUP2 SLOAD DUP2 MSTORE SWAP1 PUSH1 0x1 ADD SWAP1 PUSH1 0x20 ADD DUP1 DUP4 GT PUSH2 0xC14 JUMPI DUP3 SWAP1 SUB PUSH1 0x1F AND DUP3 ADD SWAP2 JUMPDEST POP POP POP POP POP DUP2 MSTORE PUSH1 0x20 ADD PUSH1 0x1 DUP3 ADD SLOAD DUP2 MSTORE PUSH1 0x20 ADD PUSH1 0x2 DUP3 ADD DUP1 SLOAD PUSH2 0xC54 SWAP1 PUSH2 0x19F5 JUMP JUMPDEST DUP1 PUSH1 0x1F ADD PUSH1 0x20 DUP1 SWAP2 DIV MUL PUSH1 0x20 ADD PUSH1 0x40 MLOAD SWAP1 DUP2 ADD PUSH1 0x40 MSTORE DUP1 SWAP3 SWAP2 SWAP1 DUP2 DUP2 MSTORE PUSH1 0x20 ADD DUP3 DUP1 SLOAD PUSH2 0xC80 SWAP1 PUSH2 0x19F5 JUMP JUMPDEST DUP1 ISZERO PUSH2 0xCCB JUMPI DUP1 PUSH1 0x1F LT PUSH2 0xCA2 JUMPI PUSH2 0x100 DUP1 DUP4 SLOAD DIV MUL DUP4 MSTORE SWAP2 PUSH1 0x20 ADD SWAP2 PUSH2 0xCCB JUMP JUMPDEST DUP3 ADD SWAP2 SWAP1 PUSH0 MSTORE PUSH1 0x20 PUSH0 KECCAK256 SWAP1 JUMPDEST DUP2 SLOAD DUP2 MSTORE SWAP1 PUSH1 0x1 ADD SWAP1 PUSH1 0x20 ADD DUP1 DUP4 GT PUSH2 0xCAE JUMPI DUP3 SWAP1 SUB PUSH1 0x1F AND DUP3 ADD SWAP2 JUMPDEST POP POP POP POP POP DUP2 MSTORE PUSH1 0x20 ADD PUSH1 0x3 DUP3 ADD PUSH0 SWAP1 SLOAD SWAP1 PUSH2 0x100 EXP SWAP1 DIV PUSH1 0xFF AND PUSH1 0xFF AND PUSH1 0xFF AND DUP2 MSTORE PUSH1 0x20 ADD PUSH1 0x3 DUP3 ADD PUSH1 0x1 SWAP1 SLOAD SWAP1 PUSH2 0x100 EXP SWAP1 DIV PUSH1 0xFF AND PUSH1 0xFF AND PUSH1 0xFF AND DUP2 MSTORE PUSH1 0x20 ADD PUSH1 0x4 DUP3 ADD DUP1 SLOAD PUSH2 0xD1D SWAP1 PUSH2 0x19F5 JUMP JUMPDEST DUP1 PUSH1 0x1F ADD PUSH1 0x20 DUP1 SWAP2 DIV MUL PUSH1 0x20 ADD PUSH1 0x40 MLOAD SWAP1 DUP2 ADD PUSH1 0x40 MSTORE DUP1 SWAP3 SWAP2 SWAP1 DUP2 DUP2 MSTORE PUSH1 0x20 ADD DUP3 DUP1 SLOAD PUSH2 0xD49 SWAP1 PUSH2 0x19F5 JUMP JUMPDEST DUP1 ISZERO PUSH2 0xD94 JUMPI DUP1 PUSH1 0x1F LT PUSH2 0xD6B JUMPI PUSH2 0x100 DUP1 DUP4 SLOAD DIV MUL DUP4 MSTORE SWAP2 PUSH1 0x20 ADD SWAP2 PUSH2 0xD94 JUMP JUMPDEST DUP3 ADD SWAP2 SWAP1 PUSH0 MSTORE PUSH1 0x20 PUSH0 KECCAK256 SWAP1 JUMPDEST DUP2 SLOAD DUP2 MSTORE SWAP1 PUSH1 0x1 ADD SWAP1 PUSH1 0x20 ADD DUP1 DUP4 GT PUSH2 0xD77 JUMPI DUP3 SWAP1 SUB PUSH1 0x1F AND DUP3 ADD SWAP2 JUMPDEST POP POP POP POP POP DUP2 MSTORE PUSH1 0x20 ADD PUSH1 0x5 DUP3 ADD DUP1 SLOAD PUSH2 0xDAD SWAP1 PUSH2 0x19F5 JUMP JUMPDEST DUP1 PUSH1 0x1F ADD PUSH1 0x20 DUP1 SWAP2 DIV MUL PUSH1 0x20 ADD PUSH1 0x40 MLOAD SWAP1 DUP2 ADD PUSH1 0x40 MSTORE DUP1 SWAP3 SWAP2 SWAP1 DUP2 DUP2 MSTORE PUSH1 0x20 ADD DUP3 DUP1 SLOAD PUSH2 0xDD9 SWAP1 PUSH2 0x19F5 JUMP JUMPDEST DUP1 ISZERO PUSH2 0xE24 JUMPI DUP1 PUSH1 0x1F LT PUSH2 0xDFB JUMPI PUSH2 0x100 DUP1 DUP4 SLOAD DIV MUL DUP4 MSTORE SWAP2 PUSH1 0x20 ADD SWAP2 PUSH2 0xE24 JUMP JUMPDEST DUP3 ADD SWAP2 SWAP1 PUSH0 MSTORE PUSH1 0x20 PUSH0 KECCAK256 SWAP1 JUMPDEST DUP2 SLOAD DUP2 MSTORE SWAP1 PUSH1 0x1 ADD SWAP1 PUSH1 0x20 ADD DUP1 DUP4 GT PUSH2 0xE07 JUMPI DUP3 SWAP1 SUB PUSH1 0x1F AND DUP3 ADD SWAP2 JUMPDEST POP POP POP POP POP DUP2 MSTORE PUSH1 0x20 ADD PUSH1 0x6 DUP3 ADD PUSH0 SWAP1 SLOAD SWAP1 PUSH2 0x100 EXP SWAP1 DIV PUSH1 0xFF AND PUSH1 0x2 DUP2 GT ISZERO PUSH2 0xE51 JUMPI PUSH2 0xE50 PUSH2 0x173A JUMP JUMPDEST JUMPDEST PUSH1 0x2 DUP2 GT ISZERO PUSH2 0xE63 JUMPI PUSH2 0xE62 PUSH2 0x173A JUMP JUMPDEST JUMPDEST DUP2 MSTORE POP POP SWAP1 POP SWAP2 SWAP1 POP JUMP JUMPDEST PUSH0 PUSH1 0x1 PUSH0 DUP4 PUSH20 0xFFFFFFFFFFFFFFFFFFFFFFFFFFFFFFFFFFFFFFFF AND PUSH20 0xFFFFFFFFFFFFFFFFFFFFFFFFFFFFFFFFFFFFFFFF AND DUP2 MSTORE PUSH1 0x20 ADD SWAP1 DUP2 MSTORE PUSH1 0x20 ADD PUSH0 KECCAK256 PUSH1 0x6 ADD PUSH0 SWAP1 SLOAD SWAP1 PUSH2 0x100 EXP SWAP1 DIV PUSH1 0xFF AND SWAP1 POP SWAP2 SWAP1 POP JUMP JUMPDEST PUSH1 0x3 PUSH1 0x20 MSTORE DUP2 PUSH0 MSTORE PUSH1 0x40 PUSH0 KECCAK256 PUSH1 0x20 MSTORE DUP1 PUSH0 MSTORE PUSH1 0x40 PUSH0 KECCAK256 PUSH0 SWAP2 POP SWAP2 POP SWAP1 SLOAD SWAP1 PUSH2 0x100 EXP SWAP1 DIV PUSH1 0xFF AND DUP2 JUMP JUMPDEST PUSH0 PUSH1 0x1 PUSH0 DUP4 PUSH20 0xFFFFFFFFFFFFFFFFFFFFFFFFFFFFFFFFFFFFFFFF AND PUSH20 0xFFFFFFFFFFFFFFFFFFFFFFFFFFFFFFFFFFFFFFFF AND DUP2 MSTORE PUSH1 0x20 ADD SWAP1 DUP2 MSTORE PUSH1 0x20 ADD PUSH0 KECCAK256 PUSH1 0x3 ADD PUSH1 0x1 SWAP1 SLOAD SWAP1 PUSH2 0x100 EXP SWAP1 DIV PUSH1 0xFF AND SWAP1 POP SWAP2 SWAP1 POP JUMP JUMPDEST PUSH1 0x40 MLOAD DUP1 PUSH1 0xA0 ADD PUSH1 0x40 MSTORE DUP1 PUSH1 0x60 DUP2 MSTORE PUSH1 0x20 ADD PUSH1 0x60 DUP2 MSTORE PUSH1 0x20 ADD PUSH1 0x60 DUP2 MSTORE PUSH1 0x20 ADD PUSH1 0x60 DUP2 MSTORE PUSH1 0x20 ADD PUSH1 0x60 DUP2 MSTORE POP SWAP1 JUMP JUMPDEST DUP3 DUP1 SLOAD DUP3 DUP3 SSTORE SWAP1 PUSH0 MSTORE PUSH1 0x20 PUSH0 KECCAK256 SWAP1 DUP2 ADD SWAP3 DUP3 ISZERO PUSH2 0xFE8 JUMPI SWAP2 PUSH1 0x20 MUL DUP3 ADD JUMPDEST DUP3 DUP2 GT ISZERO PUSH2 0xFE7 JUMPI DUP3 MLOAD DUP3 PUSH0 PUSH2 0x100 EXP DUP2 SLOAD DUP2 PUSH20 0xFFFFFFFFFFFFFFFFFFFFFFFFFFFFFFFFFFFFFFFF MUL NOT AND SWAP1 DUP4 PUSH20 0xFFFFFFFFFFFFFFFFFFFFFFFFFFFFFFFFFFFFFFFF AND MUL OR SWAP1 SSTORE POP SWAP2 PUSH1 0x20 ADD SWAP2 SWAP1 PUSH1 0x1 ADD SWAP1 PUSH2 0xF90 JUMP JUMPDEST JUMPDEST POP SWAP1 POP PUSH2 0xFF5 SWAP2 SWAP1 PUSH2 0x1052 JUMP JUMPDEST POP SWAP1 JUMP JUMPDEST PUSH1 0x40 MLOAD DUP1 PUSH2 0x100 ADD PUSH1 0x40 MSTORE DUP1 PUSH1 0x60 DUP2 MSTORE PUSH1 0x20 ADD PUSH0 DUP2 MSTORE PUSH1 0x20 ADD PUSH1 0x60 DUP2 MSTORE PUSH1 0x20 ADD PUSH0 PUSH1 0xFF AND DUP2 MSTORE PUSH1 0x20 ADD PUSH0 PUSH1 0xFF AND DUP2 MSTORE PUSH1 0x20 ADD PUSH1 0x60 DUP2 MSTORE PUSH1 0x20 ADD PUSH1 0x60 DUP2 MSTORE PUSH1 0x20 ADD PUSH0 PUSH1 0x2 DUP2 GT ISZERO PUSH2 0x104C JUMPI PUSH2 0x104B PUSH2 0x173A JUMP JUMPDEST JUMPDEST DUP2 MSTORE POP SWAP1 JUMP JUMPDEST JUMPDEST DUP1 DUP3 GT ISZERO PUSH2 0x1069 JUMPI PUSH0 DUP2 PUSH0 SWAP1 SSTORE POP PUSH1 0x1 ADD PUSH2 0x1053 JUMP JUMPDEST POP SWAP1 JUMP JUMPDEST PUSH0 PUSH1 0x40 MLOAD SWAP1 POP SWAP1 JUMP JUMPDEST PUSH0 DUP1 REVERT JUMPDEST PUSH0 DUP1 REVERT JUMPDEST PUSH0 PUSH20 0xFFFFFFFFFFFFFFFFFFFFFFFFFFFFFFFFFFFFFFFF DUP3 AND SWAP1 POP SWAP2 SWAP1 POP JUMP JUMPDEST PUSH0 PUSH2 0x10A7 DUP3 PUSH2 0x107E JUMP JUMPDEST SWAP1 POP SWAP2 SWAP1 POP JUMP JUMPDEST PUSH2 0x10B7 DUP2 PUSH2 0x109D JUMP JUMPDEST DUP2 EQ PUSH2 0x10C1 JUMPI PUSH0 DUP1 REVERT JUMPDEST POP JUMP JUMPDEST PUSH0 DUP2 CALLDATALOAD SWAP1 POP PUSH2 0x10D2 DUP2 PUSH2 0x10AE JUMP JUMPDEST SWAP3 SWAP2 POP POP JUMP JUMPDEST PUSH0 PUSH1 0xFF DUP3 AND SWAP1 POP SWAP2 SWAP1 POP JUMP JUMPDEST PUSH2 0x10ED DUP2 PUSH2 0x10D8 JUMP JUMPDEST DUP2 EQ PUSH2 0x10F7 JUMPI PUSH0 DUP1 REVERT JUMPDEST POP JUMP JUMPDEST PUSH0 DUP2 CALLDATALOAD SWAP1 POP PUSH2 0x1108 DUP2 PUSH2 0x10E4 JUMP JUMPDEST SWAP3 SWAP2 POP POP JUMP JUMPDEST PUSH0 DUP1 PUSH1 0x40 DUP4 DUP6 SUB SLT ISZERO PUSH2 0x1124 JUMPI PUSH2 0x1123 PUSH2 0x1076 JUMP JUMPDEST JUMPDEST PUSH0 PUSH2 0x1131 DUP6 DUP3 DUP7 ADD PUSH2 0x10C4 JUMP JUMPDEST SWAP3 POP POP PUSH1 0x20 PUSH2 0x1142 DUP6 DUP3 DUP7 ADD PUSH2 0x10FA JUMP JUMPDEST SWAP2 POP POP SWAP3 POP SWAP3 SWAP1 POP JUMP JUMPDEST PUSH0 DUP2 SWAP1 POP SWAP2 SWAP1 POP JUMP JUMPDEST PUSH2 0x115E DUP2 PUSH2 0x114C JUMP JUMPDEST DUP2 EQ PUSH2 0x1168 JUMPI PUSH0 DUP1 REVERT JUMPDEST POP JUMP JUMPDEST PUSH0 DUP2 CALLDATALOAD SWAP1 POP PUSH2 0x1179 DUP2 PUSH2 0x1155 JUMP JUMPDEST SWAP3 SWAP2 POP POP JUMP JUMPDEST PUSH0 PUSH1 0x20 DUP3 DUP5 SUB SLT ISZERO PUSH2 0x1194 JUMPI PUSH2 0x1193 PUSH2 0x1076 JUMP JUMPDEST JUMPDEST PUSH0 PUSH2 0x11A1 DUP5 DUP3 DUP6 ADD PUSH2 0x116B JUMP JUMPDEST SWAP2 POP POP SWAP3 SWAP2 POP POP JUMP JUMPDEST PUSH0 DUP2 MLOAD SWAP1 POP SWAP2 SWAP1 POP JUMP JUMPDEST PUSH0 DUP3 DUP3 MSTORE PUSH1 0x20 DUP3 ADD SWAP1 POP SWAP3 SWAP2 POP POP JUMP JUMPDEST PUSH0 JUMPDEST DUP4 DUP2 LT ISZERO PUSH2 0x11E1 JUMPI DUP1 DUP3 ADD MLOAD DUP2 DUP5 ADD MSTORE PUSH1 0x20 DUP2 ADD SWAP1 POP PUSH2 0x11C6 JUMP JUMPDEST PUSH0 DUP5 DUP5 ADD MSTORE POP POP POP POP JUMP JUMPDEST PUSH0 PUSH1 0x1F NOT PUSH1 0x1F DUP4 ADD AND SWAP1 POP SWAP2 SWAP1 POP JUMP JUMPDEST PUSH0 PUSH2 0x1206 DUP3 PUSH2 0x11AA JUMP JUMPDEST PUSH2 0x1210 DUP2 DUP6 PUSH2 0x11B4 JUMP JUMPDEST SWAP4 POP PUSH2 0x1220 DUP2 DUP6 PUSH1 0x20 DUP7 ADD PUSH2 0x11C4 JUMP JUMPDEST PUSH2 0x1229 DUP2 PUSH2 0x11EC JUMP JUMPDEST DUP5 ADD SWAP2 POP POP SWAP3 SWAP2 POP POP JUMP JUMPDEST PUSH0 DUP2 MLOAD SWAP1 POP SWAP2 SWAP1 POP JUMP JUMPDEST PUSH0 DUP3 DUP3 MSTORE PUSH1 0x20 DUP3 ADD SWAP1 POP SWAP3 SWAP2 POP POP JUMP JUMPDEST PUSH0 DUP2 SWAP1 POP PUSH1 0x20 DUP3 ADD SWAP1 POP SWAP2 SWAP1 POP JUMP JUMPDEST PUSH2 0x1266 DUP2 PUSH2 0x109D JUMP JUMPDEST DUP3 MSTORE POP POP JUMP JUMPDEST PUSH0 PUSH2 0x1277 DUP4 DUP4 PUSH2 0x125D JUMP JUMPDEST PUSH1 0x20 DUP4 ADD SWAP1 POP SWAP3 SWAP2 POP POP JUMP JUMPDEST PUSH0 PUSH1 0x20 DUP3 ADD SWAP1 POP SWAP2 SWAP1 POP JUMP JUMPDEST PUSH0 PUSH2 0x1299 DUP3 PUSH2 0x1234 JUMP JUMPDEST PUSH2 0x12A3 DUP2 DUP6 PUSH2 0x123E JUMP JUMPDEST SWAP4 POP PUSH2 0x12AE DUP4 PUSH2 0x124E JUMP JUMPDEST DUP1 PUSH0 JUMPDEST DUP4 DUP2 LT ISZERO PUSH2 0x12DE JUMPI DUP2 MLOAD PUSH2 0x12C5 DUP9 DUP3 PUSH2 0x126C JUMP JUMPDEST SWAP8 POP PUSH2 0x12D0 DUP4 PUSH2 0x1283 JUMP JUMPDEST SWAP3 POP POP PUSH1 0x1 DUP2 ADD SWAP1 POP PUSH2 0x12B1 JUMP JUMPDEST POP DUP6 SWAP4 POP POP POP POP SWAP3 SWAP2 POP POP JUMP JUMPDEST PUSH0 PUSH1 0xA0 DUP4 ADD PUSH0 DUP4 ADD MLOAD DUP5 DUP3 SUB PUSH0 DUP7 ADD MSTORE PUSH2 0x1305 DUP3 DUP3 PUSH2 0x11FC JUMP JUMPDEST SWAP2 POP POP PUSH1 0x20 DUP4 ADD MLOAD DUP5 DUP3 SUB PUSH1 0x20 DUP7 ADD MSTORE PUSH2 0x131F DUP3 DUP3 PUSH2 0x11FC JUMP JUMPDEST SWAP2 POP POP PUSH1 0x40 DUP4 ADD MLOAD DUP5 DUP3 SUB PUSH1 0x40 DUP7 ADD MSTORE PUSH2 0x1339 DUP3 DUP3 PUSH2 0x11FC JUMP JUMPDEST SWAP2 POP POP PUSH1 0x60 DUP4 ADD MLOAD DUP5 DUP3 SUB PUSH1 0x60 DUP7 ADD MSTORE PUSH2 0x1353 DUP3 DUP3 PUSH2 0x11FC JUMP JUMPDEST SWAP2 POP POP PUSH1 0x80 DUP4 ADD MLOAD DUP5 DUP3 SUB PUSH1 0x80 DUP7 ADD MSTORE PUSH2 0x136D DUP3 DUP3 PUSH2 0x128F JUMP JUMPDEST SWAP2 POP POP DUP1 SWAP2 POP POP SWAP3 SWAP2 POP POP JUMP JUMPDEST PUSH0 PUSH1 0x20 DUP3 ADD SWAP1 POP DUP2 DUP2 SUB PUSH0 DUP4 ADD MSTORE PUSH2 0x1392 DUP2 DUP5 PUSH2 0x12EB JUMP JUMPDEST SWAP1 POP SWAP3 SWAP2 POP POP JUMP JUMPDEST PUSH0 DUP1 REVERT JUMPDEST PUSH0 DUP1 REVERT JUMPDEST PUSH32 0x4E487B7100000000000000000000000000000000000000000000000000000000 PUSH0 MSTORE PUSH1 0x41 PUSH1 0x4 MSTORE PUSH1 0x24 PUSH0 REVERT JUMPDEST PUSH2 0x13D8 DUP3 PUSH2 0x11EC JUMP JUMPDEST DUP2 ADD DUP2 DUP2 LT PUSH8 0xFFFFFFFFFFFFFFFF DUP3 GT OR ISZERO PUSH2 0x13F7 JUMPI PUSH2 0x13F6 PUSH2 0x13A2 JUMP JUMPDEST JUMPDEST DUP1 PUSH1 0x40 MSTORE POP POP POP JUMP JUMPDEST PUSH0 PUSH2 0x1409 PUSH2 0x106D JUMP JUMPDEST SWAP1 POP PUSH2 0x1415 DUP3 DUP3 PUSH2 0x13CF JUMP JUMPDEST SWAP2 SWAP1 POP JUMP JUMPDEST PUSH0 PUSH8 0xFFFFFFFFFFFFFFFF DUP3 GT ISZERO PUSH2 0x1434 JUMPI PUSH2 0x1433 PUSH2 0x13A2 JUMP JUMPDEST JUMPDEST PUSH2 0x143D DUP3 PUSH2 0x11EC JUMP JUMPDEST SWAP1 POP PUSH1 0x20 DUP2 ADD SWAP1 POP SWAP2 SWAP1 POP JUMP JUMPDEST DUP3 DUP2 DUP4 CALLDATACOPY PUSH0 DUP4 DUP4 ADD MSTORE POP POP POP JUMP JUMPDEST PUSH0 PUSH2 0x146A PUSH2 0x1465 DUP5 PUSH2 0x141A JUMP JUMPDEST PUSH2 0x1400 JUMP JUMPDEST SWAP1 POP DUP3 DUP2 MSTORE PUSH1 0x20 DUP2 ADD DUP5 DUP5 DUP5 ADD GT ISZERO PUSH2 0x1486 JUMPI PUSH2 0x1485 PUSH2 0x139E JUMP JUMPDEST JUMPDEST PUSH2 0x1491 DUP5 DUP3 DUP6 PUSH2 0x144A JUMP JUMPDEST POP SWAP4 SWAP3 POP POP POP JUMP JUMPDEST PUSH0 DUP3 PUSH1 0x1F DUP4 ADD SLT PUSH2 0x14AD JUMPI PUSH2 0x14AC PUSH2 0x139A JUMP JUMPDEST JUMPDEST DUP2 CALLDATALOAD PUSH2 0x14BD DUP5 DUP3 PUSH1 0x20 DUP7 ADD PUSH2 0x1458 JUMP JUMPDEST SWAP2 POP POP SWAP3 SWAP2 POP POP JUMP JUMPDEST PUSH0 DUP1 PUSH0 DUP1 PUSH0 PUSH1 0xA0 DUP7 DUP9 SUB SLT ISZERO PUSH2 0x14DF JUMPI PUSH2 0x14DE PUSH2 0x1076 JUMP JUMPDEST JUMPDEST PUSH0 PUSH2 0x14EC DUP9 DUP3 DUP10 ADD PUSH2 0x116B JUMP JUMPDEST SWAP6 POP POP PUSH1 0x20 DUP7 ADD CALLDATALOAD PUSH8 0xFFFFFFFFFFFFFFFF DUP2 GT ISZERO PUSH2 0x150D JUMPI PUSH2 0x150C PUSH2 0x107A JUMP JUMPDEST JUMPDEST PUSH2 0x1519 DUP9 DUP3 DUP10 ADD PUSH2 0x1499 JUMP JUMPDEST SWAP5 POP POP PUSH1 0x40 DUP7 ADD CALLDATALOAD PUSH8 0xFFFFFFFFFFFFFFFF DUP2 GT ISZERO PUSH2 0x153A JUMPI PUSH2 0x1539 PUSH2 0x107A JUMP JUMPDEST JUMPDEST PUSH2 0x1546 DUP9 DUP3 DUP10 ADD PUSH2 0x1499 JUMP JUMPDEST SWAP4 POP POP PUSH1 0x60 DUP7 ADD CALLDATALOAD PUSH8 0xFFFFFFFFFFFFFFFF DUP2 GT ISZERO PUSH2 0x1567 JUMPI PUSH2 0x1566 PUSH2 0x107A JUMP JUMPDEST JUMPDEST PUSH2 0x1573 DUP9 DUP3 DUP10 ADD PUSH2 0x1499 JUMP JUMPDEST SWAP3 POP POP PUSH1 0x80 DUP7 ADD CALLDATALOAD PUSH8 0xFFFFFFFFFFFFFFFF DUP2 GT ISZERO PUSH2 0x1594 JUMPI PUSH2 0x1593 PUSH2 0x107A JUMP JUMPDEST JUMPDEST PUSH2 0x15A0 DUP9 DUP3 DUP10 ADD PUSH2 0x1499 JUMP JUMPDEST SWAP2 POP POP SWAP3 SWAP6 POP SWAP3 SWAP6 SWAP1 SWAP4 POP JUMP JUMPDEST PUSH1 0x3 DUP2 LT PUSH2 0x15B9 JUMPI PUSH0 DUP1 REVERT JUMPDEST POP JUMP JUMPDEST PUSH0 DUP2 CALLDATALOAD SWAP1 POP PUSH2 0x15CA DUP2 PUSH2 0x15AD JUMP JUMPDEST SWAP3 SWAP2 POP POP JUMP JUMPDEST PUSH0 DUP1 PUSH0 DUP1 PUSH0 DUP1 PUSH0 DUP1 PUSH2 0x100 DUP10 DUP12 SUB SLT ISZERO PUSH2 0x15ED JUMPI PUSH2 0x15EC PUSH2 0x1076 JUMP JUMPDEST JUMPDEST PUSH0 PUSH2 0x15FA DUP12 DUP3 DUP13 ADD PUSH2 0x10C4 JUMP JUMPDEST SWAP9 POP POP PUSH1 0x20 DUP10 ADD CALLDATALOAD PUSH8 0xFFFFFFFFFFFFFFFF DUP2 GT ISZERO PUSH2 0x161B JUMPI PUSH2 0x161A PUSH2 0x107A JUMP JUMPDEST JUMPDEST PUSH2 0x1627 DUP12 DUP3 DUP13 ADD PUSH2 0x1499 JUMP JUMPDEST SWAP8 POP POP PUSH1 0x40 PUSH2 0x1638 DUP12 DUP3 DUP13 ADD PUSH2 0x116B JUMP JUMPDEST SWAP7 POP POP PUSH1 0x60 DUP10 ADD CALLDATALOAD PUSH8 0xFFFFFFFFFFFFFFFF DUP2 GT ISZERO PUSH2 0x1659 JUMPI PUSH2 0x1658 PUSH2 0x107A JUMP JUMPDEST JUMPDEST PUSH2 0x1665 DUP12 DUP3 DUP13 ADD PUSH2 0x1499 JUMP JUMPDEST SWAP6 POP POP PUSH1 0x80 PUSH2 0x1676 DUP12 DUP3 DUP13 ADD PUSH2 0x10FA JUMP JUMPDEST SWAP5 POP POP PUSH1 0xA0 DUP10 ADD CALLDATALOAD PUSH8 0xFFFFFFFFFFFFFFFF DUP2 GT ISZERO PUSH2 0x1697 JUMPI PUSH2 0x1696 PUSH2 0x107A JUMP JUMPDEST JUMPDEST PUSH2 0x16A3 DUP12 DUP3 DUP13 ADD PUSH2 0x1499 JUMP JUMPDEST SWAP4 POP POP PUSH1 0xC0 DUP10 ADD CALLDATALOAD PUSH8 0xFFFFFFFFFFFFFFFF DUP2 GT ISZERO PUSH2 0x16C4 JUMPI PUSH2 0x16C3 PUSH2 0x107A JUMP JUMPDEST JUMPDEST PUSH2 0x16D0 DUP12 DUP3 DUP13 ADD PUSH2 0x1499 JUMP JUMPDEST SWAP3 POP POP PUSH1 0xE0 PUSH2 0x16E1 DUP12 DUP3 DUP13 ADD PUSH2 0x15BC JUMP JUMPDEST SWAP2 POP POP SWAP3 SWAP6 SWAP9 POP SWAP3 SWAP6 SWAP9 SWAP1 SWAP4 SWAP7 POP JUMP JUMPDEST PUSH0 PUSH1 0x20 DUP3 DUP5 SUB SLT ISZERO PUSH2 0x1706 JUMPI PUSH2 0x1705 PUSH2 0x1076 JUMP JUMPDEST JUMPDEST PUSH0 PUSH2 0x1713 DUP5 DUP3 DUP6 ADD PUSH2 0x10C4 JUMP JUMPDEST SWAP2 POP POP SWAP3 SWAP2 POP POP JUMP JUMPDEST PUSH2 0x1725 DUP2 PUSH2 0x114C JUMP JUMPDEST DUP3 MSTORE POP POP JUMP JUMPDEST PUSH2 0x1734 DUP2 PUSH2 0x10D8 JUMP JUMPDEST DUP3 MSTORE POP POP JUMP JUMPDEST PUSH32 0x4E487B7100000000000000000000000000000000000000000000000000000000 PUSH0 MSTORE PUSH1 0x21 PUSH1 0x4 MSTORE PUSH1 0x24 PUSH0 REVERT JUMPDEST PUSH1 0x3 DUP2 LT PUSH2 0x1778 JUMPI PUSH2 0x1777 PUSH2 0x173A JUMP JUMPDEST JUMPDEST POP JUMP JUMPDEST PUSH0 DUP2 SWAP1 POP PUSH2 0x1788 DUP3 PUSH2 0x1767 JUMP JUMPDEST SWAP2 SWAP1 POP JUMP JUMPDEST PUSH0 PUSH2 0x1797 DUP3 PUSH2 0x177B JUMP JUMPDEST SWAP1 POP SWAP2 SWAP1 POP JUMP JUMPDEST PUSH2 0x17A7 DUP2 PUSH2 0x178D JUMP JUMPDEST DUP3 MSTORE POP POP JUMP JUMPDEST PUSH0 PUSH2 0x100 DUP4 ADD PUSH0 DUP4 ADD MLOAD DUP5 DUP3 SUB PUSH0 DUP7 ADD MSTORE PUSH2 0x17C8 DUP3 DUP3 PUSH2 0x11FC JUMP JUMPDEST SWAP2 POP POP PUSH1 0x20 DUP4 ADD MLOAD PUSH2 0x17DD PUSH1 0x20 DUP7 ADD DUP3 PUSH2 0x171C JUMP JUMPDEST POP PUSH1 0x40 DUP4 ADD MLOAD DUP5 DUP3 SUB PUSH1 0x40 DUP7 ADD MSTORE PUSH2 0x17F5 DUP3 DUP3 PUSH2 0x11FC JUMP JUMPDEST SWAP2 POP POP PUSH1 0x60 DUP4 ADD MLOAD PUSH2 0x180A PUSH1 0x60 DUP7 ADD DUP3 PUSH2 0x172B JUMP JUMPDEST POP PUSH1 0x80 DUP4 ADD MLOAD PUSH2 0x181D PUSH1 0x80 DUP7 ADD DUP3 PUSH2 0x172B JUMP JUMPDEST POP PUSH1 0xA0 DUP4 ADD MLOAD DUP5 DUP3 SUB PUSH1 0xA0 DUP7 ADD MSTORE PUSH2 0x1835 DUP3 DUP3 PUSH2 0x11FC JUMP JUMPDEST SWAP2 POP POP PUSH1 0xC0 DUP4 ADD MLOAD DUP5 DUP3 SUB PUSH1 0xC0 DUP7 ADD MSTORE PUSH2 0x184F DUP3 DUP3 PUSH2 0x11FC JUMP JUMPDEST SWAP2 POP POP PUSH1 0xE0 DUP4 ADD MLOAD PUSH2 0x1864 PUSH1 0xE0 DUP7 ADD DUP3 PUSH2 0x179E JUMP JUMPDEST POP DUP1 SWAP2 POP POP SWAP3 SWAP2 POP POP JUMP JUMPDEST PUSH0 PUSH1 0x20 DUP3 ADD SWAP1 POP DUP2 DUP2 SUB PUSH0 DUP4 ADD MSTORE PUSH2 0x1887 DUP2 DUP5 PUSH2 0x17AD JUMP JUMPDEST SWAP1 POP SWAP3 SWAP2 POP POP JUMP JUMPDEST PUSH2 0x1898 DUP2 PUSH2 0x178D JUMP JUMPDEST DUP3 MSTORE POP POP JUMP JUMPDEST PUSH0 PUSH1 0x20 DUP3 ADD SWAP1 POP PUSH2 0x18B1 PUSH0 DUP4 ADD DUP5 PUSH2 0x188F JUMP JUMPDEST SWAP3 SWAP2 POP POP JUMP JUMPDEST PUSH0 DUP1 PUSH1 0x40 DUP4 DUP6 SUB SLT ISZERO PUSH2 0x18CD JUMPI PUSH2 0x18CC PUSH2 0x1076 JUMP JUMPDEST JUMPDEST PUSH0 PUSH2 0x18DA DUP6 DUP3 DUP7 ADD PUSH2 0x116B JUMP JUMPDEST SWAP3 POP POP PUSH1 0x20 PUSH2 0x18EB DUP6 DUP3 DUP7 ADD PUSH2 0x10C4 JUMP JUMPDEST SWAP2 POP POP SWAP3 POP SWAP3 SWAP1 POP JUMP JUMPDEST PUSH0 DUP2 ISZERO ISZERO SWAP1 POP SWAP2 SWAP1 POP JUMP JUMPDEST PUSH2 0x1909 DUP2 PUSH2 0x18F5 JUMP JUMPDEST DUP3 MSTORE POP POP JUMP JUMPDEST PUSH0 PUSH1 0x20 DUP3 ADD SWAP1 POP PUSH2 0x1922 PUSH0 DUP4 ADD DUP5 PUSH2 0x1900 JUMP JUMPDEST SWAP3 SWAP2 POP POP JUMP JUMPDEST PUSH2 0x1931 DUP2 PUSH2 0x10D8 JUMP JUMPDEST DUP3 MSTORE POP POP JUMP JUMPDEST PUSH0 PUSH1 0x20 DUP3 ADD SWAP1 POP PUSH2 0x194A PUSH0 DUP4 ADD DUP5 PUSH2 0x1928 JUMP JUMPDEST SWAP3 SWAP2 POP POP JUMP JUMPDEST PUSH0 DUP3 DUP3 MSTORE PUSH1 0x20 DUP3 ADD SWAP1 POP SWAP3 SWAP2 POP POP JUMP JUMPDEST PUSH32 0x526174696E67206D757374206265206265747765656E203120616E6420350000 PUSH0 DUP3 ADD MSTORE POP JUMP JUMPDEST PUSH0 PUSH2 0x1994 PUSH1 0x1E DUP4 PUSH2 0x1950 JUMP JUMPDEST SWAP2 POP PUSH2 0x199F DUP3 PUSH2 0x1960 JUMP JUMPDEST PUSH1 0x20 DUP3 ADD SWAP1 POP SWAP2 SWAP1 POP JUMP JUMPDEST PUSH0 PUSH1 0x20 DUP3 ADD SWAP1 POP DUP2 DUP2 SUB PUSH0 DUP4 ADD MSTORE PUSH2 0x19C1 DUP2 PUSH2 0x1988 JUMP JUMPDEST SWAP1 POP SWAP2 SWAP1 POP JUMP JUMPDEST PUSH32 0x4E487B7100000000000000000000000000000000000000000000000000000000 PUSH0 MSTORE PUSH1 0x22 PUSH1 0x4 MSTORE PUSH1 0x24 PUSH0 REVERT JUMPDEST PUSH0 PUSH1 0x2 DUP3 DIV SWAP1 POP PUSH1 0x1 DUP3 AND DUP1 PUSH2 0x1A0C JUMPI PUSH1 0x7F DUP3 AND SWAP2 POP JUMPDEST PUSH1 0x20 DUP3 LT DUP2 SUB PUSH2 0x1A1F JUMPI PUSH2 0x1A1E PUSH2 0x19C8 JUMP JUMPDEST JUMPDEST POP SWAP2 SWAP1 POP JUMP JUMPDEST PUSH32 0x4A6F6220776974682073696D696C617220494420616C72656164792045786973 PUSH0 DUP3 ADD MSTORE PUSH32 0x7473000000000000000000000000000000000000000000000000000000000000 PUSH1 0x20 DUP3 ADD MSTORE POP JUMP JUMPDEST PUSH0 PUSH2 0x1A7F PUSH1 0x22 DUP4 PUSH2 0x1950 JUMP JUMPDEST SWAP2 POP PUSH2 0x1A8A DUP3 PUSH2 0x1A25 JUMP JUMPDEST PUSH1 0x40 DUP3 ADD SWAP1 POP SWAP2 SWAP1 POP JUMP JUMPDEST PUSH0 PUSH1 0x20 DUP3 ADD SWAP1 POP DUP2 DUP2 SUB PUSH0 DUP4 ADD MSTORE PUSH2 0x1AAC DUP2 PUSH2 0x1A73 JUMP JUMPDEST SWAP1 POP SWAP2 SWAP1 POP JUMP JUMPDEST PUSH0 DUP2 SWAP1 POP DUP2 PUSH0 MSTORE PUSH1 0x20 PUSH0 KECCAK256 SWAP1 POP SWAP2 SWAP1 POP JUMP JUMPDEST PUSH0 PUSH1 0x20 PUSH1 0x1F DUP4 ADD DIV SWAP1 POP SWAP2 SWAP1 POP JUMP JUMPDEST PUSH0 DUP3 DUP3 SHL SWAP1 POP SWAP3 SWAP2 POP POP JUMP JUMPDEST PUSH0 PUSH1 0x8 DUP4 MUL PUSH2 0x1B0F PUSH32 0xFFFFFFFFFFFFFFFFFFFFFFFFFFFFFFFFFFFFFFFFFFFFFFFFFFFFFFFFFFFFFFFF DUP3 PUSH2 0x1AD4 JUMP JUMPDEST PUSH2 0x1B19 DUP7 DUP4 PUSH2 0x1AD4 JUMP JUMPDEST SWAP6 POP DUP1 NOT DUP5 AND SWAP4 POP DUP1 DUP7 AND DUP5 OR SWAP3 POP POP POP SWAP4 SWAP3 POP POP POP JUMP JUMPDEST PUSH0 DUP2 SWAP1 POP SWAP2 SWAP1 POP JUMP JUMPDEST PUSH0 PUSH2 0x1B54 PUSH2 0x1B4F PUSH2 0x1B4A DUP5 PUSH2 0x114C JUMP JUMPDEST PUSH2 0x1B31 JUMP JUMPDEST PUSH2 0x114C JUMP JUMPDEST SWAP1 POP SWAP2 SWAP1 POP JUMP JUMPDEST PUSH0 DUP2 SWAP1 POP SWAP2 SWAP1 POP JUMP JUMPDEST PUSH2 0x1B6D DUP4 PUSH2 0x1B3A JUMP JUMPDEST PUSH2 0x1B81 PUSH2 0x1B79 DUP3 PUSH2 0x1B5B JUMP JUMPDEST DUP5 DUP5 SLOAD PUSH2 0x1AE0 JUMP JUMPDEST DUP3 SSTORE POP POP POP POP JUMP JUMPDEST PUSH0 SWAP1 JUMP JUMPDEST PUSH2 0x1B95 PUSH2 0x1B89 JUMP JUMPDEST PUSH2 0x1BA0 DUP2 DUP5 DUP5 PUSH2 0x1B64 JUMP JUMPDEST POP POP POP JUMP JUMPDEST JUMPDEST DUP2 DUP2 LT ISZERO PUSH2 0x1BC3 JUMPI PUSH2 0x1BB8 PUSH0 DUP3 PUSH2 0x1B8D JUMP JUMPDEST PUSH1 0x1 DUP2 ADD SWAP1 POP PUSH2 0x1BA6 JUMP JUMPDEST POP POP JUMP JUMPDEST PUSH1 0x1F DUP3 GT ISZERO PUSH2 0x1C08 JUMPI PUSH2 0x1BD9 DUP2 PUSH2 0x1AB3 JUMP JUMPDEST PUSH2 0x1BE2 DUP5 PUSH2 0x1AC5 JUMP JUMPDEST DUP2 ADD PUSH1 0x20 DUP6 LT ISZERO PUSH2 0x1BF1 JUMPI DUP2 SWAP1 POP JUMPDEST PUSH2 0x1C05 PUSH2 0x1BFD DUP6 PUSH2 0x1AC5 JUMP JUMPDEST DUP4 ADD DUP3 PUSH2 0x1BA5 JUMP JUMPDEST POP POP JUMPDEST POP POP POP JUMP JUMPDEST PUSH0 DUP3 DUP3 SHR SWAP1 POP SWAP3 SWAP2 POP POP JUMP JUMPDEST PUSH0 PUSH2 0x1C28 PUSH0 NOT DUP5 PUSH1 0x8 MUL PUSH2 0x1C0D JUMP JUMPDEST NOT DUP1 DUP4 AND SWAP2 POP POP SWAP3 SWAP2 POP POP JUMP JUMPDEST PUSH0 PUSH2 0x1C40 DUP4 DUP4 PUSH2 0x1C19 JUMP JUMPDEST SWAP2 POP DUP3 PUSH1 0x2 MUL DUP3 OR SWAP1 POP SWAP3 SWAP2 POP POP JUMP JUMPDEST PUSH2 0x1C59 DUP3 PUSH2 0x11AA JUMP JUMPDEST PUSH8 0xFFFFFFFFFFFFFFFF DUP2 GT ISZERO PUSH2 0x1C72 JUMPI PUSH2 0x1C71 PUSH2 0x13A2 JUMP JUMPDEST JUMPDEST PUSH2 0x1C7C DUP3 SLOAD PUSH2 0x19F5 JUMP JUMPDEST PUSH2 0x1C87 DUP3 DUP3 DUP6 PUSH2 0x1BC7 JUMP JUMPDEST PUSH0 PUSH1 0x20 SWAP1 POP PUSH1 0x1F DUP4 GT PUSH1 0x1 DUP2 EQ PUSH2 0x1CB8 JUMPI PUSH0 DUP5 ISZERO PUSH2 0x1CA6 JUMPI DUP3 DUP8 ADD MLOAD SWAP1 POP JUMPDEST PUSH2 0x1CB0 DUP6 DUP3 PUSH2 0x1C35 JUMP JUMPDEST DUP7 SSTORE POP PUSH2 0x1D17 JUMP JUMPDEST PUSH1 0x1F NOT DUP5 AND PUSH2 0x1CC6 DUP7 PUSH2 0x1AB3 JUMP JUMPDEST PUSH0 JUMPDEST DUP3 DUP2 LT ISZERO PUSH2 0x1CED JUMPI DUP5 DUP10 ADD MLOAD DUP3 SSTORE PUSH1 0x1 DUP3 ADD SWAP2 POP PUSH1 0x20 DUP6 ADD SWAP5 POP PUSH1 0x20 DUP2 ADD SWAP1 POP PUSH2 0x1CC8 JUMP JUMPDEST DUP7 DUP4 LT ISZERO PUSH2 0x1D0A JUMPI DUP5 DUP10 ADD MLOAD PUSH2 0x1D06 PUSH1 0x1F DUP10 AND DUP3 PUSH2 0x1C19 JUMP JUMPDEST DUP4 SSTORE POP JUMPDEST PUSH1 0x1 PUSH1 0x2 DUP9 MUL ADD DUP9 SSTORE POP POP POP JUMPDEST POP POP POP POP POP POP JUMP JUMPDEST PUSH32 0x4F6E6C792041646D696E20697320616C6C6F77656420666F7220746869732061 PUSH0 DUP3 ADD MSTORE PUSH32 0x6374696F6E000000000000000000000000000000000000000000000000000000 PUSH1 0x20 DUP3 ADD MSTORE POP JUMP JUMPDEST PUSH0 PUSH2 0x1D79 PUSH1 0x25 DUP4 PUSH2 0x1950 JUMP JUMPDEST SWAP2 POP PUSH2 0x1D84 DUP3 PUSH2 0x1D1F JUMP JUMPDEST PUSH1 0x40 DUP3 ADD SWAP1 POP SWAP2 SWAP1 POP JUMP JUMPDEST PUSH0 PUSH1 0x20 DUP3 ADD SWAP1 POP DUP2 DUP2 SUB PUSH0 DUP4 ADD MSTORE PUSH2 0x1DA6 DUP2 PUSH2 0x1D6D JUMP JUMPDEST SWAP1 POP SWAP2 SWAP1 POP JUMP JUMPDEST PUSH32 0x4E6F2053756368204A6F62204578697374730000000000000000000000000000 PUSH0 DUP3 ADD MSTORE POP JUMP JUMPDEST PUSH0 PUSH2 0x1DE1 PUSH1 0x12 DUP4 PUSH2 0x1950 JUMP JUMPDEST SWAP2 POP PUSH2 0x1DEC DUP3 PUSH2 0x1DAD JUMP JUMPDEST PUSH1 0x20 DUP3 ADD SWAP1 POP SWAP2 SWAP1 POP JUMP JUMPDEST PUSH0 PUSH1 0x20 DUP3 ADD SWAP1 POP DUP2 DUP2 SUB PUSH0 DUP4 ADD MSTORE PUSH2 0x1E0E DUP2 PUSH2 0x1DD5 JUMP JUMPDEST SWAP1 POP SWAP2 SWAP1 POP JUMP JUMPDEST PUSH32 0x4F6E6C792052656769737465726564206170706C6963616E742063616E206170 PUSH0 DUP3 ADD MSTORE PUSH32 0x706C790000000000000000000000000000000000000000000000000000000000 PUSH1 0x20 DUP3 ADD MSTORE POP JUMP JUMPDEST PUSH0 PUSH2 0x1E6F PUSH1 0x23 DUP4 PUSH2 0x1950 JUMP JUMPDEST SWAP2 POP PUSH2 0x1E7A DUP3 PUSH2 0x1E15 JUMP JUMPDEST PUSH1 0x40 DUP3 ADD SWAP1 POP SWAP2 SWAP1 POP JUMP JUMPDEST PUSH0 PUSH1 0x20 DUP3 ADD SWAP1 POP DUP2 DUP2 SUB PUSH0 DUP4 ADD MSTORE PUSH2 0x1E9C DUP2 PUSH2 0x1E63 JUMP JUMPDEST SWAP1 POP SWAP2 SWAP1 POP JUMP JUMPDEST PUSH32 0x416C7265616479204170706C6965640000000000000000000000000000000000 PUSH0 DUP3 ADD MSTORE POP JUMP JUMPDEST PUSH0 PUSH2 0x1ED7 PUSH1 0xF DUP4 PUSH2 0x1950 JUMP JUMPDEST SWAP2 POP PUSH2 0x1EE2 DUP3 PUSH2 0x1EA3 JUMP JUMPDEST PUSH1 0x20 DUP3 ADD SWAP1 POP SWAP2 SWAP1 POP JUMP JUMPDEST PUSH0 PUSH1 0x20 DUP3 ADD SWAP1 POP DUP2 DUP2 SUB PUSH0 DUP4 ADD MSTORE PUSH2 0x1F04 DUP2 PUSH2 0x1ECB JUMP JUMPDEST SWAP1 POP SWAP2 SWAP1 POP JUMP INVALID LOG2 PUSH5 0x6970667358 0x22 SLT KECCAK256 PUSH6 0x5602CE12F263 0xEA SUB PUSH22 0xA86FC0066419C7F4F134C4BAA78853B1650E88FA0829 PUSH5 0x736F6C6343 STOP ADDMOD AND STOP CALLER "
				},
				"gasEstimates": {
					"creation": {
						"codeDepositCost": "1600200",
						"executionCost": "25943",
						"totalCost": "1626143"
					},
					"external": {
						"addApplicant(address,string,uint256,string,uint8,string,string,uint8)": "infinite",
						"addJob(uint256,string,string,string,string)": "infinite",
						"addRating(address,uint8)": "25110",
						"fetchApplicant(address)": "infinite",
						"fetchApplicantType(address)": "3008",
						"fetchJob(uint256)": "infinite",
						"fetchRating(address)": "3015",
						"hasApplied(uint256,address)": "3137",
						"jobApply(uint256)": "infinite"
					}
				},
				"methodIdentifiers": {
					"addApplicant(address,string,uint256,string,uint8,string,string,uint8)": "82050766",
					"addJob(uint256,string,string,string,string)": "70787868",
					"addRating(address,uint8)": "15fc27d8",
					"fetchApplicant(address)": "9890877f",
					"fetchApplicantType(address)": "a0386310",
					"fetchJob(uint256)": "61011df7",
					"fetchRating(address)": "af43ceb4",
					"hasApplied(uint256,address)": "a39bf544",
					"jobApply(uint256)": "8677b0a2"
				}
			},
			"storageLayout": {
				"storage": [
					{
						"astId": 3,
						"contract": "contracts/jobPortal.sol:jobPortal",
						"label": "admin",
						"offset": 0,
						"slot": "0",
						"type": "t_address"
					},
					{
						"astId": 51,
						"contract": "contracts/jobPortal.sol:jobPortal",
						"label": "applicant",
						"offset": 0,
						"slot": "1",
						"type": "t_mapping(t_address,t_struct(applicant_details)34_storage)"
					},
					{
						"astId": 56,
						"contract": "contracts/jobPortal.sol:jobPortal",
						"label": "job",
						"offset": 0,
						"slot": "2",
						"type": "t_mapping(t_uint256,t_struct(job_details)46_storage)"
					},
					{
						"astId": 62,
						"contract": "contracts/jobPortal.sol:jobPortal",
						"label": "hasApplied",
						"offset": 0,
						"slot": "3",
						"type": "t_mapping(t_uint256,t_mapping(t_address,t_bool))"
					}
				],
				"types": {
					"t_address": {
						"encoding": "inplace",
						"label": "address",
						"numberOfBytes": "20"
					},
					"t_array(t_address)dyn_storage": {
						"base": "t_address",
						"encoding": "dynamic_array",
						"label": "address[]",
						"numberOfBytes": "32"
					},
					"t_bool": {
						"encoding": "inplace",
						"label": "bool",
						"numberOfBytes": "1"
					},
					"t_enum(jobType)16": {
						"encoding": "inplace",
						"label": "enum jobPortal.jobType",
						"numberOfBytes": "1"
					},
					"t_mapping(t_address,t_bool)": {
						"encoding": "mapping",
						"key": "t_address",
						"label": "mapping(address => bool)",
						"numberOfBytes": "32",
						"value": "t_bool"
					},
					"t_mapping(t_address,t_struct(applicant_details)34_storage)": {
						"encoding": "mapping",
						"key": "t_address",
						"label": "mapping(address => struct jobPortal.applicant_details)",
						"numberOfBytes": "32",
						"value": "t_struct(applicant_details)34_storage"
					},
					"t_mapping(t_uint256,t_mapping(t_address,t_bool))": {
						"encoding": "mapping",
						"key": "t_uint256",
						"label": "mapping(uint256 => mapping(address => bool))",
						"numberOfBytes": "32",
						"value": "t_mapping(t_address,t_bool)"
					},
					"t_mapping(t_uint256,t_struct(job_details)46_storage)": {
						"encoding": "mapping",
						"key": "t_uint256",
						"label": "mapping(uint256 => struct jobPortal.job_details)",
						"numberOfBytes": "32",
						"value": "t_struct(job_details)46_storage"
					},
					"t_string_storage": {
						"encoding": "bytes",
						"label": "string",
						"numberOfBytes": "32"
					},
					"t_struct(applicant_details)34_storage": {
						"encoding": "inplace",
						"label": "struct jobPortal.applicant_details",
						"members": [
							{
								"astId": 18,
								"contract": "contracts/jobPortal.sol:jobPortal",
								"label": "name",
								"offset": 0,
								"slot": "0",
								"type": "t_string_storage"
							},
							{
								"astId": 20,
								"contract": "contracts/jobPortal.sol:jobPortal",
								"label": "phone",
								"offset": 0,
								"slot": "1",
								"type": "t_uint256"
							},
							{
								"astId": 22,
								"contract": "contracts/jobPortal.sol:jobPortal",
								"label": "home_address",
								"offset": 0,
								"slot": "2",
								"type": "t_string_storage"
							},
							{
								"astId": 24,
								"contract": "contracts/jobPortal.sol:jobPortal",
								"label": "age",
								"offset": 0,
								"slot": "3",
								"type": "t_uint8"
							},
							{
								"astId": 26,
								"contract": "contracts/jobPortal.sol:jobPortal",
								"label": "rating",
								"offset": 1,
								"slot": "3",
								"type": "t_uint8"
							},
							{
								"astId": 28,
								"contract": "contracts/jobPortal.sol:jobPortal",
								"label": "skills",
								"offset": 0,
								"slot": "4",
								"type": "t_string_storage"
							},
							{
								"astId": 30,
								"contract": "contracts/jobPortal.sol:jobPortal",
								"label": "work_exp",
								"offset": 0,
								"slot": "5",
								"type": "t_string_storage"
							},
							{
								"astId": 33,
								"contract": "contracts/jobPortal.sol:jobPortal",
								"label": "job_preference",
								"offset": 0,
								"slot": "6",
								"type": "t_enum(jobType)16"
							}
						],
						"numberOfBytes": "224"
					},
					"t_struct(job_details)46_storage": {
						"encoding": "inplace",
						"label": "struct jobPortal.job_details",
						"members": [
							{
								"astId": 36,
								"contract": "contracts/jobPortal.sol:jobPortal",
								"label": "title",
								"offset": 0,
								"slot": "0",
								"type": "t_string_storage"
							},
							{
								"astId": 38,
								"contract": "contracts/jobPortal.sol:jobPortal",
								"label": "description",
								"offset": 0,
								"slot": "1",
								"type": "t_string_storage"
							},
							{
								"astId": 40,
								"contract": "contracts/jobPortal.sol:jobPortal",
								"label": "salary",
								"offset": 0,
								"slot": "2",
								"type": "t_string_storage"
							},
							{
								"astId": 42,
								"contract": "contracts/jobPortal.sol:jobPortal",
								"label": "expirence",
								"offset": 0,
								"slot": "3",
								"type": "t_string_storage"
							},
							{
								"astId": 45,
								"contract": "contracts/jobPortal.sol:jobPortal",
								"label": "applicants",
								"offset": 0,
								"slot": "4",
								"type": "t_array(t_address)dyn_storage"
							}
						],
						"numberOfBytes": "160"
					},
					"t_uint256": {
						"encoding": "inplace",
						"label": "uint256",
						"numberOfBytes": "32"
					},
					"t_uint8": {
						"encoding": "inplace",
						"label": "uint8",
						"numberOfBytes": "1"
					}
				}
			},
			"userdoc": {
				"kind": "user",
				"methods": {},
				"version": 1
			}
		}
	}
}